:020000040800F2
:1000000000800020052A0008A5060008A7060008B1
:10001000A9060008AB060008AD06000800000000B5
:10002000000000000000000000000000AF06000813
:10003000B106000800000000B3060008B50600087D
:10004000552A0008552A0008552A0008552A000894
:10005000552A0008552A0008552A0008552A000884
:10006000552A0008552A0008552A0008552A000874
:10007000552A0008552A0008552A0008552A000864
:10008000552A0008552A0008552A0008552A000854
:10009000552A0008552A0008552A0008552A000844
:1000A000552A0008552A0008552A0008552A000834
:1000B000552A0008552A0008552A0008552A000824
:1000C000552A0008552A0008552A0008552A000814
:1000D000BD060008552A0008552A0008552A0008C0
:1000E000552A0008552A0008552A0008552A0008F4
:1000F000552A0008552A0008552A0008552A0008E4
:10010000552A0008552A0008552A0008552A0008D3
:10011000552A0008552A0008552A0008552A0008C3
:10012000552A0008552A0008552A0008552A0008B3
:08013000552A0008552A0008B9
:1001380010B5054C237833B9044B13B10448AFF319
:1001480000800123237010BD100000200000000073
:10015800CC2A000808B5034B1BB103490348AFF389
:10016800008008BD0000000014000020CC2A000810
:1001780053B94AB9002908BF00281CBF4FF0FF3106
:100188004FF0FF3000F074B9ADF1080C6DE904CE02
:1001980000F006F8DDF804E0DDE9022304B070475A
:1001A8002DE9F047089E0D4604468846002B4DD1A0
:1001B8008A42944668D9B2FA82F252B101FA02F33D
:1001C800C2F1200120FA01F10CFA02FC41EA03080D
:1001D80094404FEA1C45210CB8FBF5FE1FFA8CF73A
:1001E80005FB1E8341EA03430EFB07F199420BD935
:1001F8001CEB03030EF1FF3080F01E81994240F2A0
:100208001B81AEF1020E63445B1AA4B2B3FBF5F096
:1002180005FB103344EA034400FB07F7A7420AD959
:100228001CEB040400F1FF3380F00881A74240F280
:10023800058164440238E41B40EA0E4000211EB1E7
:10024800D4400023C6E90043BDE8F0878B4208D9B3
:10025800002E00F0EE800021C6E900050846BDE842
:10026800F087B3FA83F100294AD1AB4202D3824224
:1002780000F2F980841A65EB030301209846002EEA
:10028800E2D0C6E90048DFE702B9FFDEB2FA82F23F
:10029800002A40F09180A1EB0C054FEA1C471FFA99
:1002A8008CFE0121B5FBF7F307FB1350250C45EA3B
:1002B80000450EFB03F0A84208D91CEB050503F125
:1002C800FF3802D2A84200F2CB8043462D1AA4B2CE
:1002D800B5FBF7F007FB105544EA05440EFB00FE9A
:1002E800A64508D91CEB040400F1FF3502D2A64547
:1002F80000F2BB802846A4EB0E0440EA03409EE7C8
:10030800C1F120078B4022FA07FC4CEA030C20FAC3
:1003180007F405FA01F31C43FD404FEA1C4900FAB3
:1003280001F3B5FBF9F8200C1FFA8CFE09FB1855F0
:1003380040EA054508FB0EF0A84202FA01F20BD983
:100348001CEB050508F1FF3A80F08880A84240F2CE
:100358008580A8F1020865442D1AA4B2B5FBF9F00E
:1003680009FB105544EA054500FB0EFEAE4508D9C9
:100378001CEB050500F1FF346CD2AE456AD9023892
:10038800654440EA0840A0FB0294A5EB0E05A5428F
:10039800C846A64656D353D05EB1B3EB080265EB08
:1003A8000E0505FA07F722FA01F3CD401F43C6E907
:1003B80000750021BDE8F087C2F1200320FA03F19F
:1003C8000CFA02FC25FA03F395400D434FEA1C474B
:1003D8001FFA8CFEB3FBF7F107FB11302B0C43EA35
:1003E800004301FB0EF0984204FA02F408D91CEB12
:1003F800030301F1FF382FD298422DD90239634403
:100408001B1AADB2B3FBF7F007FB103345EA0345FF
:1004180000FB0EF3AB4208D91CEB050500F1FF38D1
:1004280016D2AB4214D902386544ED1A40EA0141AC
:1004380038E73146304607E78646E5E61846FAE6E5
:100448004B45A9D2B9EB020864EB0C0E0138A3E7BF
:100458004046EAE7204694E74146D1E7D0467BE7A5
:10046800023B654432E7084609E76444023842E73C
:10047800704700BF70B588B00024039404940594B5
:10048800069407944FF0B043DA6C42F00202DA6443
:10049800DA6C02F002020292029ADA6C42F001026D
:1004A800DA64DB6C03F001030193019B204D2246C3
:1004B8002421284601F030F922466C214FF0904063
:1004C80001F02AF92423039301260496059406943F
:1004D80003A9284601F04EF84FF4C0730393122382
:1004E8000493059406940423079303A9284601F06E
:1004F80041F840F6820303930494059403A94FF04E
:10050800904001F037F86C23039304960594069401
:1005180003A94FF0904001F02DF84FF48053039356
:100528000494059403A9284601F024F808B070BD86
:100538000004004872B6FEE708B51848184B036077
:100548004FF4E133436000238360C36003610C22EE
:1005580042618361C36103624362402282624FF455
:1005680080124264836402F0C0F870B900210B481D
:1005780002F0F8F958B90021084802F018FA40B911
:10058800064802F0D0F930B908BDFFF7D3FFFFF7EE
:10059800D1FFFFF7CFFFFFF7CDFF00BF2C000020F2
:1005A8000038014000B59BB04822002108A802F09D
:1005B80081FA00230193029303930493059306930E
:1005C800079315490A6822F4C06242F480620A60FF
:1005D8000A6802F4C0620092009A2022089201225E
:1005E8001092119360221292139308A800F0E8F970
:1005F80070B94F2301930021029103910491059151
:10060800079101A800F018FD20B91BB05DF804FBA4
:10061800FFF790FFFFF78EFF0004005830B5E1B0F8
:1006280001F096F9FFF7BEFFFFF724FFFFF784FFFD
:100638004B2214494DA802F02FFA002309E003F5D4
:10064800C0720DEB020111F84C2CD24301F8982C22
:1006580001334A2BF3DD0C4C4B252A46214627A8AB
:1006680002F01AFA2A46214614A802F015FA2A4678
:10067800214601A802F010FA4B2227A9034802F0EC
:10068800FBF8F9E7502B0008E82A00082C000020A6
:1006980008B500F001F808BD00207047FEE7FEE746
:1006A800FEE7FEE7FEE770477047704708B501F0C0
:1006B80065F908BD08B5024801F0B8F908BD00BFE2
:1006C8002C0000207047000070B596B00446002149
:1006D80011911291139114911591382203A802F0E7
:1006E800E9F92268284B9A4201D016B070BD01235F
:1006F80003934FF44033049303A800F0F1FD00285E
:100708003ED14FF0B0431A6E42F480421A661A6E18
:1007180002F480420292029ADA6C42F00202DA642F
:10072800DA6C02F002020192019ADA6C42F00102DC
:10073800DA64DB6C03F001030093009B4023119300
:10074800022612960024139414940725159511A9CE
:100758000E4800F00FFF4FF4806311931296139424
:100768001494159511A94FF0904000F003FF22460C
:100778002146242001F06AF8242001F09FF8B4E70C
:10078800FFF7D8FEBDE700BF00380140000400486D
:1007980030B589B004468C462A4B93E8030006908E
:1007A800ADF81C1003F1080292E803000490ADF8BC
:1007B800141001AD103393E8070085E80700BCF575
:1007C800007F07D0002314E008AA02EB830353F844
:1007D8001C5C1EE00023022B08D808AA02EB430287
:1007E80032F8082CA242EFD20133F4E7002510E0DA
:1007F8000133022B0CD808AA02EB430232F8102C62
:10080800A242F5D308AA02EB830353F81C5C00E06C
:1008180000250D4A136823F007032B431360FFF7E5
:1008280037FF0446084B1B6803F00703AB4206D0AA
:10083800FFF72EFF001B0228F4D9032000E0002058
:1008480009B030BD342B00080040005810B5C0F383
:1008580003100C4B53F820404FF0B043D3F8083145
:1008680003F00F03084A52F82300B4FBF0F400F039
:10087800D3FF01460548A0FB0430800CFFF788FF32
:1008880010BD00BF242C0008C42B000883DE1B43C6
:100898004FF0B0439968DB6803F0030311F00C01D3
:1008A8000AD00C2906D0042947D008293BD00022B9
:1008B800104626E0012BF6D14FF0B0431B6813F029
:1008C80008030DD04FF0B0431B6813F0080324D180
:1008D8004FF0B042D2F894202E4A52F823200EE06E
:1008E8004FF0B042126812F0080F12D14FF0B04327
:1008F800D3F89430C3F30323264A52F82320D1B106
:1009080000204FF0B0439B6803F00C030C2B1AD067
:1009180070474FF0B0421268EEE74FF0B0431B68E3
:10092800C3F30313D8E74FF0B0431A6812F48012E8
:1009380006D11948E5E71046E3E700221748E0E743
:1009480000221648DDE74FF0B043DB6803F00303ED
:10095800022B09D0032B08D14FF0B0431B6813F4C6
:10096800801F15D10C4A00E00C4A4FF0B043D868FC
:10097800C0F3062000FB02F2D868C0F30210013071
:10098800B2FBF0F2D868400F0130B2FBF0F0BFE7DD
:10099800024AEAE7242C00080048E8010024F40091
:1009A80008B5FFF775FF4FF0B0439B68C3F3031317
:1009B800024A52F82330B0FBF3F008BDC42B0008FC
:1009C800002800F01983F8B504464FF0B0439D683D
:1009D80005F00C05DE6806F00306036813F0200F27
:1009E80000F08F80EDB10C2D19D0236A002B00F098
:1009F800BC804FF0B042136843F001031360FFF767
:100A080047FE07464FF0B0431B6813F0020F65D14D
:100A1800FFF73EFEC01B0228F4D90320F9E2012E9D
:100A2800E3D14FF0B0431B6813F0020F03D0236AE1
:100A3800002B00F0E382A06A4FF0B0431B6813F06C
:100A4800080F29D04FF0B0431B6803F0F003984219
:100A58002AD9FFF7FBFE002840F0D2824FF0B043BE
:100A68001A6842F008021A601A6822F0F002A16AB5
:100A78000A431A60616A5A6822F47F4242EA0122F4
:100A88005A60FFF78DFFB04B1860B04B186800F044
:100A980037FF002835D0BCE24FF0B043D3F894308C
:100AA8001B0903F0F003D2E74FF0B0431A6842F095
:100AB80008021A601A6822F0F002A16A0A431A6052
:100AC800616A5A6822F47F4242EA01225A60A06AA7
:100AD800FFF7BCFE0028D4D001209AE24FF0B043C3
:100AE8001A6842F008021A601A6822F0F002A16A35
:100AF8000A431A60616A5A6822F47F4242EA012274
:100B08005A60236813F0010F51D0082D45D00C2DE1
:100B180041D04FF0B042136823F48013A1680B430F
:100B280013606368B3F5803F63D0B3F5041F65D0E5
:100B38004FF0B0431A6822F480321A601A6822F41F
:100B480000121A606368002B63D0FFF7A1FD074607
:100B58004FF0B0431B6813F4003F28D1FFF798FD0E
:100B6800C01B6428F4D9032053E24FF0B042136845
:100B780023F001031360FFF78BFD07464FF0B043E6
:100B88001B6813F0020FBCD0FFF782FDC01B0228C0
:100B9800F4D903203DE2032EBBD14FF0B0431B68CC
:100BA80013F4003F03D06368002B00F02B82236806
:100BB80013F0020F52D0042D3DD00C2D39D02369EB
:100BC800002B00F091804FF0B042136843F480731B
:100BD8001360FFF75DFD06464FF0B0431B6813F442
:100BE800806F77D1FFF754FD801B0228F4D90320CA
:100BF8000FE2136843F480331360A3E74FF0B04368
:100C08001A6842F400121A601A6842F480321A60B4
:100C180098E7FFF73DFD07464FF0B0431B6813F414
:100C2800003FC4D0FFF734FDC01B6428F4D903206B
:100C3800EFE1022EC3D14FF0B0431B6813F4806F6D
:100C480003D02369002B00F0DF8161694FF0B042C7
:100C5800536823F0FE4343EA01635360236813F0AB
:100C6800080F00F08E80A369002B71D04FF0B043BD
:100C7800D3F89430E16903F01002914211D003F0E7
:100C88000302022A00F0C28113F0010F42D14FF093
:100C9800B042D2F8943023F01003E1690B43C2F854
:100CA80094304FF0B042D2F8943043F00103C2F8C8
:100CB8009430FFF7EDFC06464FF0B043D3F894307C
:100CC80013F0020F5DD1FFF7E3FC801B1128F3D965
:100CD80003209EE161694FF0B042536823F0FE4360
:100CE80043EA01635360B9E74FF0B042136823F455
:100CF80080731360FFF7CCFC06464FF0B0431B68C7
:100D080013F4806FAAD0FFF7C3FC801B0228F4D924
:100D180003207EE14FF0B042D2F8943023F0010373
:100D2800C2F89430FFF7B4FC06464FF0B043D3F84E
:100D3800943013F0020FAAD0FFF7AAFC801B1128E9
:100D4800F3D9032065E100BF08000020040000205B
:100D58004FF0B042D2F8943023F00103C2F8943037
:100D6800FFF796FC06464FF0B043D3F8943013F0E3
:100D7800020F06D0FFF78CFC801B1128F3D9032043
:100D880047E1236813F0040F00F0B180A84B1B68FB
:100D980013F4807F10D100F037FDFFF779FC064689
:100DA800A34B1B6813F4807F06D1FFF771FC801BEF
:100DB8000228F5D903202CE1E368002B61D0852BAC
:100DC80001D0052B07D14FF0B042D2F8903043F054
:100DD8000403C2F89030FFF75BFC06464FF0B042C0
:100DE800D2F8903043F00103C2F890304FF0B0438E
:100DF800D3F8903013F0020F08D1FFF749FC801B9D
:100E080041F288339842F1D9032002E1E368812B4B
:100E180001D0852B1AD1FFF73BFC06464FF0B042B4
:100E2800D2F8903043F08003C2F890304FF0B043CE
:100E3800D3F8903013F4006F59D1FFF729FC801BC9
:100E480041F288339842F1D90320E2E0FFF720FC11
:100E580006464FF0B042D2F8903023F08003C2F833
:100E680090304FF0B043D3F8903013F4006F3ED079
:100E7800FFF70EFC801B41F288339842F1D903201A
:100E8800C7E0FFF705FC06464FF0B042D2F89030B5
:100E980023F08003C2F890304FF0B043D3F890307D
:100EA80013F4006F08D0FFF7F3FB801B41F288337F
:100EB8009842F1D90320ACE0FFF7EAFB06464FF071
:100EC800B042D2F8903023F00103C2F890304FF0CE
:100ED800B043D3F8903013F0020F08D0FFF7D8FBD7
:100EE800801B41F288339842F1D9032091E0E36AEC
:100EF800002B00F08D800C2D62D0022B1FD04FF0FC
:100F0800B0431A6822F080721A60DA6822F003028D
:100F1800DA60DA6822F0885222F48032DA60FFF769
:100F2800B7FB04464FF0B0431B6813F0007F73D043
:100F3800FFF7AEFB001B0A28F4D9032069E04FF045
:100F4800B042136823F080731360FFF7A1FB0546D6
:100F58004FF0B0431B6813F0007F2AD14FF0B04226
:100F6800D36834491940236B606B0343A06B43EA91
:100F78000023E06B0343206C0343606C03430B4383
:100F8800D360136843F080731360D36843F08053D1
:100F9800D360FFF77DFB04464FF0B0431B6813F0A6
:100FA800007F37D1FFF774FB001B0A28F4D9032010
:100FB8002FE0FFF76DFB401B0A28C9D9032028E062
:100FC800012B2BD04FF0B043DB6803F00301226BF9
:100FD800914225D103F07002616B8A4222D103F459
:100FE800FE42A16BB2EB012F1ED103F06043626C8D
:100FF80093421BD100200CE001207047012008E03B
:10100800012006E0012004E0012002E0012000E0C8
:101018000020F8BD0020FCE70020FAE70120F8E7EF
:101028000120F6E70120F4E70120F2E70120F0E7CC
:10103800000400588C80C111002800F0278170B589
:101048000C460546934B1B6803F007038B422DD3D0
:101058002B6813F0020F3FD12B6813F0200F53D1E8
:101068002B6813F0400F6AD12B6813F0040F40F07F
:1010780083802B6813F0080F40F097802B6813F0DB
:10108800010F00F0DE806B68022B00F0A880032BB4
:1010980000F0AD80002B40F0B2804FF0B0421268F3
:1010A80012F0020F40F0B1800120EEE0794A136897
:1010B80023F007030B431360FFF7EAFA0646754B64
:1010C8001B6803F00703A342C2D0FFF7E1FA801BB5
:1010D8000228F4D90320D8E0AB684FF0B0418A6801
:1010E80022F0F00213438B60FFF7D2FA06464FF066
:1010F800B0439B6813F4803FAED1FFF7C9FA801B59
:101108000228F4D90320C0E06B694FF0B041D1F850
:10111800082122F0F0021343C1F80831FFF7B8FAAA
:1011280006464FF0B043D3F8083113F4003F97D187
:10113800FFF7AEFA801B0228F3D90320A5E0A969BE
:101148004FF0B042D2F8083123F00F0343EA1113ED
:10115800C2F80831FFF79CFA06464FF0B043D3F8BF
:10116800083113F4803F7FF47FAFFFF791FA801BBB
:101178000228F2D9032088E0EB684FF0B0418A6872
:1011880022F4E06213438B60FFF782FA06464FF0C1
:10119800B0439B6813F4003F7FF46BAFFFF778FA16
:1011A800801B0228F3D903206FE029694FF0B04271
:1011B800936823F4605343EAC1039360FFF768FA26
:1011C80006464FF0B0439B6813F4802F7FF456AF68
:1011D800FFF75EFA801B0228F3D9032055E04FF091
:1011E800B042126812F4003F0FD101204DE04FF0D9
:1011F800B042126812F0007F07D1012045E04FF09D
:10120800B042126812F4806F42D04FF0B0418A6841
:1012180022F0030213438B60FFF73AFA06464FF0B9
:10122800B0439B6803F00C036A68B3EB820F08D0E5
:10123800FFF72EFA801B41F288339842EFD903203A
:1012480023E0144B1B6803F00703A34215D9114A86
:10125800136823F0070323431360FFF719FA0546C1
:101268000C4B1B6803F00703A34206D0FFF710FAE4
:10127800401B0228F4D9032007E0FFF791FB064B37
:101288001860064B186800F03BFB70BD01207047E2
:101298000120FAE700400058080000200400002060
:1012A80008B5FFF77DFB4FF0B0439B68C3F30223FB
:1012B800024A52F82330D84008BD00BF042C000869
:1012C80008B5FFF76DFB4FF0B0439B68C3F3C2232B
:1012D800024A52F82330D84008BD00BF042C000849
:1012E80070B50446036813F4803F40F0AB800025D6
:1012F800236813F0010F0AD062684FF0B041D1F8AB
:10130800883023EA124392B21343C1F88830236825
:1013180013F0020F0AD0A2684FF0B041D1F888301C
:1013280023EA124392B21343C1F88830236813F0BA
:10133800200F09D023694FF0B041D1F8882022F45A
:1013480040621343C1F88830236813F4007F0CD03F
:10135800206A4FF0B041D1F88830020C120423EA19
:10136800020343EA0043C1F88830236813F4806F0E
:101378000CD0606A4FF0B041D1F88830020C1204EA
:1013880023EA020343EA0043C1F88830236813F4D0
:10139800006F0CD0A06A4FF0B041D1F88830020C31
:1013A800120423EA020343EA0043C1F888302368A1
:1013B80013F0400F40F09E80236813F0800F40F038
:1013C800AA80236813F4807F40F0B680236813F066
:1013D800100F0ED0E3684FF0B041D1F8882022F406
:1013E80040721343C1F88830E368B3F5807F00F09A
:1013F800B480236813F4004F0FD0236B4FF0B04133
:10140800D1F8882022F040421343C1F88830236B7A
:101418001BB9CB6843F08073CB60236813F4804F0B
:101428000ED0E36A4FF0B041D1F8882022F0405244
:101438001343C1F88830E36AB3F1005F00F092808B
:10144800284670BD00F0E0F9FFF722F90546484B41
:101458001B6813F4807F06D1FFF71AF9401B022896
:10146800F5D9032500E00025002D7FF441AF4FF0AA
:10147800B043D3F8903003F44073626B9A4224D09F
:101488004FF0B043D3F8902022F44072D3F8901074
:1014980041F48031C3F89010D3F8901021F48031D2
:1014A800C3F89010C3F8902012F0020F0FD1002D4E
:1014B8007FF41EAF636B4FF0B041D1F8902022F457
:1014C80040721343C1F8903012E70022ECE7FFF7AF
:1014D800DFF806464FF0B043D3F8903013F0020F10
:1014E800E5D1FFF7D5F8801B41F288339842F1D94E
:1014F8000325DCE763694FF0B040D0F8882019096C
:1015080001F47F2122EA01021B0103F47F23134324
:10151800C0F8883050E7A3694FF0B040D0F8882071
:10152800190901F47F2122EA01021B0103F47F2338
:101538001343C0F8883044E7E3694FF0B040D0F86F
:101548008820190901F47F2122EA01021B0103F412
:101558007F231343C0F8883038E7CB6843F08073A3
:10156800CB6046E7CB6843F48033CB6068E700BFC5
:101578000004005870B5002369E085685E00032404
:10158800B44025EA0405CC68B4402C438460446820
:1015980024EA0C0C4C68C4F300149C4044EA0C0484
:1015A800446065E0DD08083550F8256003F007045D
:1015B8004FEA840C0F2404FA0CF426EA040E0C6992
:1015C80004FA0CF444EA0E0440F8254067E00224CB
:1015D80000E0002404FA0EF42C430CF1020C4B4DED
:1015E80045F82C404A4CD4F88050D44325EA0206EA
:1015F800D1F804C01CF4803F01D042EA0506444DEE
:10160800C5F88060D5F8845004EA0506D1F804C00E
:101618001CF4003F01D042EA05063D4DC5F8846040
:101628002D6804EA0506D1F804C01CF4801F01D017
:1016380042EA0506364D2E606D682C404E6816F459
:10164800001F01D042EA0504314A546001330A6898
:1016580032FA03F458D04FF0010C0CFA03FC1CEAE0
:101668000202F3D04C6804F00304013C012C84D935
:101678004C6804F00304032C0CD0C4685D004FF0E0
:10168800030C0CFA05FC24EA0C0C8C68AC4044EA08
:101698000C04C4604C6804F00304022C82D0046873
:1016A8004FEA430E4FF0030C0CFA0EFC24EA0C0C24
:1016B8004C6804F0030404FA0EF444EA0C040460D1
:1016C8004C6814F4403FC1D04FEA930C0CF102056A
:1016D8000E4C54F8255003F003044FEA840E0724F7
:1016E80004FA0EF425EA0405B0F1904F3FF471AF07
:1016F800084CA04206D004F58064A0423FF467AFCE
:10170800072467E7012465E770BD00BF00000140BA
:1017180000080058000400480AB1816170478162DE
:1017280070470346002834D090F82520D2B2022A08
:1017380006D00422C263002280F8242001207047CA
:1017480001680A6822F00E020A60816C0A6822F4B5
:1017580080720A6001680A6822F001020A60426C1D
:1017680002F01C01006C01228A404260DA6C196D9B
:1017780051605A6D32B1116821F4807111609A6D0F
:10178800D96D5160012283F82520002083F82400B8
:1017980070470120704708B590F82530DBB2022B5E
:1017A80003D00423C363012008BD0268136823F033
:1017B8000E0313600268136823F001031360826C40
:1017C800136823F480731360436C03F01C02016CEC
:1017D800012393404B60C36C026D5A60436D33B173
:1017E8001A6822F480721A60836DC26D5A600123F0
:1017F80080F82530002380F82430836B13B1984794
:101808000020D1E70020CFE7024A136843F4807331
:101818001360704700040058024B186800F4C06059
:10182800704700BF00040058074AD36823F4E063F8
:101838001B041B0C000200F4E060034343F0BF6389
:1018480043F40033D360704700ED00E000B5194B56
:10185800DB68C3F30223C3F1070CBCF1040F28BFF4
:101868004FF0040C03F1040EBEF1060F18D9033B28
:101878004FF0FF3E0EFA0CFC21EA0C0199400EFADB
:1018880003F322EA0303194300280BDB0901C9B259
:1018980000F1604000F5614080F800135DF804FB3A
:1018A8000023E5E700F00F000901C9B2024B195403
:1018B800F4E700BF00ED00E014ED00E0002807DBCE
:1018C80000F01F02400901239340024A42F82030E9
:1018D800704700BF00E100E00138B0F1807F0BD213
:1018E8004FF0E0235861054AF02182F823100020C8
:1018F800986107221A6170470120704700ED00E0E7
:10190800114B1B780BB90120704710B50446FFF73F
:1019180047F80D4B1A784FF47A73B3FBF2F3B0FB28
:10192800F3F0FFF7D9FF68B90F2C01D901200AE0BD
:10193800002221464FF0FF30FFF788FF034B1C6061
:10194800002000E0012010BD00000020040000205D
:1019580010B50320FFF768FFFFF722F8064B186061
:101968000F20FFF7CDFF10B10124204610BD04461B
:10197800FEF7A8FEF9E700BF08000020034B1B781C
:10198800034A11680B441360704700BF0000002031
:10199800BC000020026852E8003F23F4907342E83C
:1019A80000310029F6D1026802F1080353E8003F2C
:1019B80023F0805323F00103083242E80031002964
:1019C800F1D1C36E012B06D02023C0F88830002344
:1019D800C36603677047026852E8003F23F01003AC
:1019E80042E800310029F6D1EEE7704708B50268F1
:1019F80052E8003F23F0400342E800310029F6D1C5
:101A08002023C0F8843000234367FFF7EEFF08BDAA
:101A18007047704708B5806A0023A0F85E30A0F8C8
:101A28005630FFF7F6FF08BD7047000070B5044652
:101A38000168CB6908688D6840F60F021A4008D122
:101A480013F0200F05D010F0200F34D115F0805F6F
:101A580031D12AB1954A2A4033D1954E304230D1FE
:101A6800E26E012A00F0C38013F4801F03D015F43E
:101A7800800F40F05B8113F0800F07D010F0800FCB
:101A880040F05B8115F4000F40F0578113F0400FD0
:101A980003D010F0400F40F0578113F4000F03D02B
:101AA80010F0804F40F0548113F0807F02D000285E
:101AB800C0F2528170BD236F002BFBD0204698479F
:101AC800F8E713F0010F09D010F4807F06D0012643
:101AD8000E62D4F88C103143C4F88C1013F0020F46
:101AE8000BD015F0010F08D0216802260E62D4F839
:101AF8008C1041F00401C4F88C1013F0040F0BD0C3
:101B080015F0010F08D0216804260E62D4F88C1055
:101B180041F00201C4F88C1013F0080F0BD010F03C
:101B2800200F00D13AB1226808211162D4F88C2024
:101B38000A43C4F88C2013F4006F0CD010F0806FA7
:101B480009D022684FF400611162D4F88C2042F069
:101B58002002C4F88C20D4F88C20002AAAD013F0D4
:101B6800200F09D010F0200F02D115F0805F03D0AC
:101B7800236F0BB120469847D4F88C2023689B68C4
:101B880013F0400F02D112F0280F29D02046FFF79A
:101B980001FF23689B6813F0400F1DD0226802F1F3
:101BA800080353E8003F23F04003083242E80031BD
:101BB8000029F3D1E36F5BB13E4A9A63E06FFFF708
:101BC800EAFD00283FF476AFE06F836B984771E732
:101BD8002046FFF71EFF6DE72046FFF71AFF69E76B
:101BE8002046FFF716FF0023C4F88C3062E713F095
:101BF800100F3FF439AF10F0100F3FF435AF10233A
:101C08000B6223689B6813F0400F55D0E26F13688E
:101C18005B689BB2002B3FF44DAFB4F85C1099425F
:101C28007FF648AFA4F85E3013681B6813F0200FE6
:101C380031D1226852E8003F23F4807342E8003132
:101C48000029F6D1226802F1080353E8003F23F087
:101C58000103083242E800310029F3D1226802F179
:101C6800080353E8003F23F04003083242E80031FC
:101C78000029F3D12023C4F888300023E3662268C2
:101C880052E8003F23F0100342E800310029F6D162
:101C9800E06FFFF746FDB4F85C10B4F85E309BB215
:101CA800C91A89B22046FFF7BFFE03E701000010FA
:101CB800200100041D1A0008B4F85C10B4F85E3066
:101CC8009BB2C91A89B2B4F85E309BB2002B3FF4BC
:101CD800F1AE00293FF4EEAE226852E8003F23F44B
:101CE800907342E800300028F6D1226802F1080318
:101CF80053E8003F23F0805323F00103083242E801
:101D080000300028F1D12023C4F888300023E3668E
:101D18002367226852E8003F23F0100342E80030AE
:101D28000028F6D12046FFF77FFEC3E64FF4801364
:101D38000B62204600F0F4FDBCE6636F002B3FF415
:101D4800B9AE20469847B5E62046FFF74FFEB1E604
:101D5800204600F0E7FDADE6204600F0E2FDA9E6EA
:101D680008B5B0F86030D0F88820222A05D002687B
:101D7800936943F00803936108BD0268516ADBB2B6
:101D8800826D0B401370836D01338365B0F85E304C
:101D98009BB2013B9BB2A0F85E30B0F85E309BB2BC
:101DA800002BE9D1026852E8003F23F4907342E81F
:101DB80000310029F6D1026802F1080353E8003F18
:101DC80023F00103083242E800310029F3D120232F
:101DD800C0F8883000230367C36E012B16D1002397
:101DE800C366026852E8003F23F0100342E800315E
:101DF8000029F6D10368DA6912F0100F01D0102219
:101E08001A62B0F85C10FFF70FFEB5E7FFF700FEA7
:101E1800B2E708B5B0F86020D0F88830222B05D09A
:101E28000268936943F00803936108BD03685B6A1D
:101E3800816D13400B80836D02338365B0F85E308B
:101E48009BB2013B9BB2A0F85E30B0F85E309BB20B
:101E5800002BEAD1026852E8003F23F4907342E86D
:101E680000310029F6D1026802F1080353E8003F67
:101E780023F00103083242E800310029F3D120237E
:101E8800C0F8883000230367C36E012B16D10023E6
:101E9800C366026852E8003F23F0100342E80031AD
:101EA8000029F6D10368DA6912F0100F01D0102268
:101EB8001A62B0F85C10FFF7B7FDB6E7FFF7A8FDA8
:101EC800B3E700002DE9F843B0F860600368DD6906
:101ED800D3F80090D3F80880D0F88820222A05D0BB
:101EE8009A6942F008029A61BDE8F8830446B0F89E
:101EF800687008E0D4F88C30002B4CD1B4F85E3010
:101F08009BB2002B4ED0002F00F0878015F0200FD9
:101F180000F083802368596AF3B2A26D0B401370F6
:101F2800A36D0133A365B4F85E309BB2013B9BB24D
:101F3800A4F85E302368DD6915F0070FDED015F0D0
:101F4800010F09D019F4807F06D001221A62D4F853
:101F58008C301343C4F88C3015F0020F0BD018F0F6
:101F6800010F08D0236802221A62D4F88C3043F09B
:101F78000403C4F88C3015F0040FBBD018F0010F1F
:101F8800B8D0236804221A62D4F88C3043F00203D4
:101F9800C4F88C30AEE72046FFF73BFD0023C4F8B9
:101FA8008C30ABE7226852E8003F23F4807342E8A4
:101FB80000310029F6D1226802F1080353E8003FF6
:101FC80023F0805323F00103083242E8003100294E
:101FD800F1D12023C4F8883000232367E36E012B56
:101FE80003D02046FFF714FD8DE70023E36622683F
:101FF80052E8003F23F0100342E800310029F6D1EF
:102008002368DA6912F0100F01D010221A62B4F8AE
:102018005C102046FFF708FD75E7B4F85E309BB208
:10202800002B3FF461AFB4F868209A427FF65CAFAA
:10203800226802F1080353E8003F23F08053083276
:1020480042E800310029F3D1054B2367226852E8A2
:10205800003F43F0200342E800310029F6D143E76E
:10206800691D00082DE9F843B0F860600368DD6970
:10207800D3F80090D3F80880D0F88820222A05D019
:102088009A6942F008029A61BDE8F8830446B0F8FC
:10209800687008E0D4F88C30002B4BD1B4F85E306F
:1020A8009BB2002B4DD0002F00F0868015F0200F3A
:1020B80000F0828023685B6AA26D33401380A36DB1
:1020C8000233A365B4F85E309BB2013B9BB2A4F81F
:1020D8005E302368DD6915F0070FDFD015F0010FBA
:1020E80009D019F4807F06D001221A62D4F88C3006
:1020F8001343C4F88C3015F0020F0BD018F0010F01
:1021080008D0236802221A62D4F88C3043F0040302
:10211800C4F88C3015F0040FBCD018F0010FB9D0FA
:10212800236804221A62D4F88C3043F00203C4F8FE
:102138008C30AFE72046FFF76CFC0023C4F88C30E6
:10214800ACE7226852E8003F23F4807342E800318C
:102158000029F6D1226802F1080353E8003F23F072
:10216800805323F00103083242E800310029F1D1FD
:102178002023C4F8883000232367E36E012B03D0A3
:102188002046FFF745FC8EE70023E366226852E805
:10219800003F23F0100342E800310029F6D12368FC
:1021A800DA6912F0100F01D010221A62B4F85C102C
:1021B8002046FFF739FC76E7B4F85E309BB2002B77
:1021C8003FF462AFB4F868209A427FF65DAF2268A8
:1021D80002F1080353E8003F23F08053083242E835
:1021E80000310029F3D1064B2367226852E8003FEB
:1021F80043F0200342E800310029F6D144E700BF4C
:102208001B1E000870B50446016883680269134301
:1022180042691343C269134308689D4A0240134345
:102228000B602268536823F44053E1680B43536002
:10223800A1692268974B9A4201D0236A194393688F
:1022480023F06E4323F430630B4393602268D36A10
:1022580023F00F03616A0B43D36223688E4A9342CB
:102268001CD08E4A934231D08A4A93424BD01022D6
:1022780088498B4268D0E069B0F5004F00F0A5802E
:10228800082A00F21F81DFE812F0D300F500D10020
:102298001D01F8001D011D011D01FB004FF0B0429A
:1022A800D2F8882002F0030242F44032A2F540320C
:1022B800032A09D8DFE802F002043C060122D7E726
:1022C8000422D5E70822D3E71022D1E74FF0B04225
:1022D800D2F8882002F00C0242F44022A2F54022F3
:1022E8000C2A0ED8DFE802F0070D0D0D090D0D0DB3
:1022F800260D0D0D0B000022BAE70422B8E70822CC
:10230800B6E71022B4E74FF0B042D2F8882002F4C2
:102318004062B2F5006F0FD005D87AB1B2F5806F80
:102328000ED10422A4E7B2F5406F0BD108229FE733
:1023380002229DE702229BE7022299E7002297E703
:10234800102295E7102293E7082A00F29C80DFE824
:1023580002F0089A3A9A379A9A9A05004FF4004080
:1023680004E0FEF79DFF002800F08F80626A4C4B66
:1023780033F81220B0FBF2F3656805EB450199428A
:1023880000F29480B3EB053F00F2928000263346BA
:102398003146FDF7EDFE090241EA106100026B08C3
:1023A800C0182A46334641F10001FDF7E1FEA0F5C9
:1023B80040723C4B9A427DD82368D860304650E042
:1023C800FEF766FACFE73848D0E7082A74D8DFE87E
:1023D80002F0072705732A7373730B00324803E072
:1023E800FEF75EFF002869D0626A2D4B33F8123081
:1023F800B0FBF3F06268530803EB4000B0FBF2F067
:1024080080B2A0F110024FF6EF739A4258D820F02C
:102418000F03C0F3420018432368D860002020E06F
:10242800FEF74EFFDEE7FEF733FADBE71E4803E070
:10243800FEF736FF002847D0626A194B33F812308E
:10244800B0FBF3F0636800EB5300B0FBF3F080B22D
:10245800A0F110024FF6EF739A4237D82368D8607C
:1024680000200123A4F86A30A4F868300023236709
:10247800636770BDFEF724FFDCE7FEF709FAD9E7CA
:102488004FF40040D8E70120EBE70020E9E700BF60
:10249800F369FFCF0080004000380140004400404D
:1024A8009C2B0008FFFC0F000024F4000120D8E753
:1024B8000120D6E70120D4E70120D2E70020D0E7A9
:1024C8000120CEE70120CCE70020CAE70120C8E7B9
:1024D800836A13F0010F06D00268536823F40033AF
:1024E800C16A0B435360836A13F0020F06D0026877
:1024F800536823F48033016B0B435360836A13F0F2
:10250800040F06D00268536823F48023416B0B4301
:102518005360836A13F0080F06D00268536823F4E7
:102528000043816B0B435360836A13F0100F06D08E
:102538000268936823F48053C16B0B439360836AEA
:1025480013F0200F06D00268936823F40053016C3F
:102558000B439360836A13F0400F0AD002685368F4
:1025680023F48013416C0B435360436CB3F5801F15
:102578000BD0836A13F0800F06D00268536823F4E7
:102588000023C16C0B43536070470268536823F4FF
:10259800C003816C0B435360EBE72DE9F843054614
:1025A8000F4616469946DDF820802C68E46937EA1C
:1025B80004030CBF4FF0010C4FF0000CB44557D189
:1025C800B8F1FF3FF1D0FEF763F8A0EB09004045F2
:1025D8002FD8B8F1000F2CD02B681A6812F0040F0E
:1025E800E3D0DA6912F4006FDFD04FF400621A62A8
:1025F8002A6852E8003F23F4D07342E800310029EA
:10260800F6D12A6802F1080353E8003F23F00103DA
:10261800083242E800310029F3D12023C5F884307C
:10262800C5F88830C5F88C30002385F88030032041
:102638001FE02A6852E8003F23F4D07342E80031D3
:102648000029F6D12A6802F1080353E8003F23F075
:102658000103083242E800310029F3D12023C5F8EC
:102668008430C5F88830002385F88030032000E0E6
:102678000020BDE8F88330B583B004460023C0F8D5
:102688008C30FEF705F805462268126812F0080F2C
:102698000FD123681B6813F0040F18D12023C4F846
:1026A8008430C4F888300020E06684F8800003B0E5
:1026B80030BD6FF07E430093034600224FF40011B3
:1026C8002046FFF76AFF0028E3D00320EFE76FF00A
:1026D8007E4300932B4600224FF480012046FFF7EB
:1026E8005CFF0028DAD00320E1E778B310B5044690
:1026F800D0F884300BB32423C4F8843022681368DC
:1027080023F0010313602046FFF77CFD012813D056
:10271800A36ABBB92268536823F4904353602268C4
:10272800936823F02A0393602268136843F0010337
:1027380013602046FFF79FFF10BD80F88030FDF73B
:10274800C3FFD8E72046FFF7C3FEE3E70120704741
:1027580010B48165A0F85C20A0F85E200023036710
:102768008368B3F5805F06D0A3B9036973B9FF2303
:10277800A0F8603014E0036923B940F2FF13A0F811
:1027880060300DE0FF23A0F8603009E07F23A0F857
:10279800603005E0B3F1805F2DD00023A0F86030F1
:1027A8000023C0F88C302223C0F88830016801F17A
:1027B800080353E8003F43F00103083141E80034BF
:1027C800002CF3D1436EB3F1005F1ED08368B3F5DC
:1027D800805F43D0244B0367002380F88030026871
:1027E80052E8003F43F4907342E800310029F6D1E3
:1027F800002010BC704703691BB97F23A0F8603024
:10280800CEE73F23A0F86030CAE7B0F868309342BB
:10281800DCD88368B3F5805F1AD0144B03670023B4
:1028280080F88030026852E8003F43F4807342E841
:1028380000310029F6D1026802F1080353E8003F8D
:1028480043F08053083242E800310029F3D1CFE742
:102858000369002BE1D1064B0367E0E70369002B0E
:10286800B8D1044B0367B7E7691D0008CD1E0008FF
:102878006D2000081B1E000838B5D0F88830202BC2
:102888001ED1F9B102B390F88030012B1ED001237C
:1028980080F880300023C36603680D4CA3420CD037
:1028A8005B6813F4000F08D0046854E8003F43F055
:1028B800806344E80035002DF6D1FFF749FF00E0BA
:1028C800022038BD0120FCE70120FAE70220F8E7E2
:1028D80000800040436E2BB90123A0F86A30A0F8AD
:1028E8006830704730B403689A68C2F342629968E6
:1028F800490F094D6B5CDB00084C615C93FBF1F3FD
:10290800A0F86A30AB5CDB00A25C93FBF2F3A0F8A2
:10291800683030BC704700BFBC2B0008B42B0008DF
:1029280070477047704790F88030012B18D001230A
:1029380080F880302423C0F8843003681A68196846
:1029480021F00101196022F000520023436601685A
:102958000A602022C0F8842080F88030184670472A
:102968000220704738B590F88030012B1DD00446FE
:10297800012380F880302423C0F8843003681D6860
:102988001A6822F001021A600268936823F0604313
:1029980019439160FFF79EFF23681D602023C4F848
:1029A8008430002084F8800038BD0220FCE738B568
:1029B80090F88030012B1DD00446012380F8803028
:1029C8002423C0F8843003681D681A6822F00102C5
:1029D8001A600268936823F0606319439160FFF7F7
:1029E80079FF23681D602023C4F88430002084F810
:1029F800800038BD0220FCE7704700000D4885467E
:102A0800FFF7FAFF0C480D490D4A002302E0D4589D
:102A1800C4500433C4188C42F9D30A4A0A4C002320
:102A280001E013600432A242FBD300F011F8FDF775
:102A3800F5FDFEE7008000200000002010000020C7
:102A4800802C000810000020C0000020FEE70000D5
:102A580070B50D4D0D4C641BA4100026A64209D17B
:102A68000B4D0C4C00F02EF8641BA4100026A64257
:102A780005D170BD55F8043B98470136EEE755F887
:102A8800043B98470136F2E7702C0008702C0008C8
:102A9800702C0008742C00080A44914200F1FF339E
:102AA80000D1704710B511F8014B03F8014F91425E
:102AB800F9D110BD02440346934200D1704703F890
:102AC800011BF9E7F8B500BFF8BC08BC9E46704783
:102AD800F8B500BFF8BC08BC9E467047000000006F
:102AE80000000000000000000000000000000000DE
:102AF80000000000000000000000000000000000CE
:102B080000000000000000000000000000000000BD
:102B180000000000000000000000000000000000AD
:102B28000000000000000000000000001200240067
:102B38003000000006000C0010000000000000003B
:102B48000100000002000000244750472424475099
:102B580047242447504724244750472424475047B4
:102B680024244750472424475047242447504724C7
:102B780024475047242447504724244750472424B7
:102B88004750472424475047242447504724244784
:102B980050472400010002000400060008000A0053
:102BA8000C0010002000400080000001080402040E
:102BB80008010101010101030701000001000000F3
:102BC80003000000050000000100000001000000F3
:102BD800060000000A0000002000000002000000BB
:102BE8000400000008000000100000004000000081
:102BF800800000000001000000020000000000004A
:102C080000000000000000000000000001000000BB
:102C1800020000000300000004000000A08601007C
:102C2800400D0300801A060000350C0040420F00DA
:102C380080841E0000093D0000127A000024F40080
:102C480000366E010048E801006CDC02000000005C
:102C5800000000000000000000000000000000006C
:082C680040D5FF7F01000000D0
:082C70005D01000800000000F6
:082C7800390100080000000012
:102C8000010000001000000000093D0000000000ED
:0400000508002A05C0
:00000001FF
