:020000040800F2
:1000000000800020294700087D1500087F150008A2
:100010008115000883150008851500080000000000
:10002000000000000000000000000000871500082C
:1000300089150008000000008B1500088D150008C8
:100040007947000879470008794700087947000890
:100050007947000879470008794700087947000880
:100060007947000879470008794700087947000870
:100070007947000879470008794700087947000860
:100080007947000879470008794700087947000850
:100090007947000879470008794700087947000840
:1000A0007947000879470008794700087947000830
:1000B0007947000879470008794700087947000820
:1000C0007947000879470008794700087947000810
:1000D0009515000879470008A5150008794700081C
:1000E00079470008794700087947000879470008F0
:1000F00079470008794700087947000879470008E0
:1001000079470008794700087947000879470008CF
:1001100079470008794700087947000879470008BF
:1001200079470008794700087947000879470008AF
:08013000794700087947000837
:1001380010B5054C237833B9044B13B10448AFF319
:1001480000800123237010BD700000200000000013
:10015800F868000808B5034B1BB103490348AFF31F
:10016800008008BD0000000074000020F868000846
:1001780081F0004102E000BF83F0004330B54FEA50
:1001880041044FEA430594EA050F08BF90EA020FBD
:100198001FBF54EA000C55EA020C7FEA645C7FEA50
:1001A800655C00F0E2804FEA5454D4EB5555B8BF73
:1001B8006D420CDD2C4480EA020281EA030382EAE4
:1001C800000083EA010180EA020281EA0303362D76
:1001D80088BF30BD11F0004F4FEA01314FF4801C49
:1001E8004CEA113102D0404261EB410113F0004F5B
:1001F8004FEA03334CEA133302D0524263EB430312
:1002080094EA050F00F0A780A4F10104D5F1200EAF
:100218000DDB02FA0EFC22FA05F2801841F100010A
:1002280003FA0EF2801843FA05F359410EE0A5F1DE
:1002380020050EF1200E012A03FA0EFC28BF4CF00F
:10024800020C43FA05F3C01851EBE37101F00045C5
:1002580007D54FF0000EDCF1000C7EEB00006EEBD2
:100268000101B1F5801F1BD3B1F5001F0CD349085C
:100278005FEA30004FEA3C0C04F101044FEA4452B3
:1002880012F5800F80F09A80BCF1004F08BF5FEA3A
:10029800500C50F1000041EB045141EA050130BD1A
:1002A8005FEA4C0C404141EB0101013C28BFB1F52C
:1002B800801FE9D291F0000F04BF01460020B1FA77
:1002C80081F308BF2033A3F10B03B3F120020CDA4A
:1002D8000C3208DD02F1140CC2F10C0201FA0CF028
:1002E80021FA02F10CE002F11402D8BFC2F1200C8D
:1002F80001FA02F120FA0CFCDCBF41EA0C01904043
:10030800E41AA2BF01EB0451294330BD6FEA04048B
:100318001F3C1CDA0C340EDC04F11404C4F1200276
:1003280020FA04F001FA02F340EA030021FA04F388
:1003380045EA030130BDC4F10C04C4F1200220FADF
:1003480002F001FA04F340EA0300294630BD21FA1D
:1003580004F0294630BD94F0000F83F4801306BFE3
:1003680081F480110134013D4EE77FEA645C18BFD7
:100378007FEA655C29D094EA050F08BF90EA020F6E
:1003880005D054EA000C04BF1946104630BD91EA66
:10039800030F1EBF0021002030BD5FEA545C05D169
:1003A8004000494128BF41F0004130BD14F58004A8
:1003B8003CBF01F5801130BD01F0004545F0FE411C
:1003C80041F470014FF0000030BD7FEA645C1ABF51
:1003D800194610467FEA655C1CBF0B46024650EA88
:1003E800013406BF52EA033591EA030F41F40021B4
:1003F80030BD00BF90F0000F04BF0021704730B53A
:100408004FF4806404F132044FF000054FF000010E
:1004180050E700BF90F0000F04BF0021704730B5CF
:100428004FF4806404F1320410F0004548BF4042A4
:100438004FF000013EE700BF42004FEAE2014FEAF9
:1004480031014FEA02701FBF12F07F4393F07F4FD4
:1004580081F06051704732F07F4208BF704793F0D7
:100468007F4F04BF41F40021704730B54FF46074EA
:1004780001F0004521F000411CE700BF50EA0102ED
:1004880008BF704730B54FF000050AE050EA010296
:1004980008BF704730B511F0004502D5404261EB06
:1004A80041014FF4806404F132045FEA915C3FF447
:1004B800D8AE4FF003025FEADC0C18BF03325FEAE4
:1004C800DC0C18BF033202EBDC02C2F1200300FA95
:1004D80003FC20FA02F001FA03FE40EA0E0021FABA
:1004E80002F11444BDE600BF70B54FF0FF0C4CF4A8
:1004F800E06C1CEA11541DBF1CEA135594EA0C0F5A
:1005080095EA0C0F00F0DEF82C4481EA030621EA94
:100518004C5123EA4C5350EA013518BF52EA0335CF
:1005280041F4801143F4801338D0A0FB02CE4FF081
:100538000005E1FB02E506F00042E0FB03E54FF0B1
:100548000006E1FB03569CF0000F18BF4EF0010EA9
:10055800A4F1FF04B6F5007F64F5407404D25FEAA5
:100568004E0E6D4146EB060642EAC62141EA555158
:100578004FEAC52040EA5E504FEACE2EB4F1FD0C9A
:1005880088BFBCF5E06F1ED8BEF1004F08BF5FEA18
:10059800500E50F1000041EB045170BD06F00046CA
:1005A80046EA010140EA020081EA0301B4EB5C0477
:1005B800C2BFD4EB0C0541EA045170BD41F480116F
:1005C8004FF0000E013C00F3AB8014F1360FDEBF94
:1005D800002001F0004170BDC4F10004203C35DA70
:1005E8000C341BDC04F11404C4F1200500FA05F3F3
:1005F80020FA04F001FA05F240EA020001F0004294
:1006080021F0004110EBD37021FA04F642EB060109
:100618005EEA430E08BF20EAD37070BDC4F10C0433
:10062800C4F1200500FA04F320FA05F001FA04F2F7
:1006380040EA020001F0004110EBD37041F10001E3
:100648005EEA430E08BF20EAD37070BDC4F12005EE
:1006580000FA05F24EEA020E20FA04F301FA05F256
:1006680043EA020321FA04F001F0004121FA04F2FE
:1006780020EA020000EBD3705EEA430E08BF20EACE
:10068800D37070BD94F0000F0FD101F00046400008
:1006980041EB010111F4801F08BF013CF7D041EA8A
:1006A800060195F0000F18BF704703F0004652008E
:1006B80043EB030313F4801F08BF013DF7D043EA5F
:1006C8000603704794EA0C0F0CEA135518BF95EA15
:1006D8000C0F0CD050EA410618BF52EA4306D1D19C
:1006E80081EA030101F000414FF0000070BD50EABB
:1006F800410606BF1046194652EA430619D094EA45
:100708000C0F02D150EA013613D195EA0C0F05D12E
:1007180052EA03361CBF104619460AD181EA030182
:1007280001F0004141F0FE4141F470014FF000003A
:1007380070BD41F0FE4141F4780170BD70B54FF0D5
:10074800FF0C4CF4E06C1CEA11541DBF1CEA135555
:1007580094EA0C0F95EA0C0F00F0A7F8A4EB050437
:1007680081EA030E52EA03354FEA013100F088802E
:100778004FEA03334FF0805545EA131343EA1263F7
:100788004FEA022245EA111545EA10654FEA0026AC
:100798000EF000419D4208BF964244F1FD0404F565
:1007A800407402D25B084FEA3202B61A65EB0305C1
:1007B8005B084FEA32024FF480104FF4002CB6EB7E
:1007C800020E75EB030E22BFB61A754640EA0C00FE
:1007D8005B084FEA3202B6EB020E75EB030E22BF3E
:1007E800B61A754640EA5C005B084FEA3202B6EB7F
:1007F800020E75EB030E22BFB61A754640EA9C003E
:100808005B084FEA3202B6EB020E75EB030E22BF0D
:10081800B61A754640EADC0055EA060E18D04FEACB
:10082800051545EA16754FEA06164FEAC30343EA6B
:1008380052734FEAC2025FEA1C1CC0D111F4801F38
:100848000BD141EA00014FF000004FF0004CB6E731
:1008580011F4801F04BF01430020B4F1FD0C88BFD0
:10086800BCF5E06F3FF6AFAEB5EB030C04BFB6EBDB
:10087800020C5FEA500C50F1000041EB045170BDCE
:100888000EF0004E4EEA113114EB5C04C2BFD4EBFB
:100898000C0541EA045170BD41F480114FF0000E7F
:1008A800013C90E645EA060E8DE60CEA135594EAFB
:1008B8000C0F08BF95EA0C0F3FF43BAF94EA0C0FFE
:1008C8000AD150EA01347FF434AF95EA0C0F7FF473
:1008D80025AF104619462CE795EA0C0F06D152EAC7
:1008E80003353FF4FDAE1046194622E750EA4106AB
:1008F80018BF52EA43067FF4C5AE50EA41047FF4BC
:100908000DAF52EA43057FF4EBAE12E74FF0FF3C20
:1009180006E000BF4FF0010C02E000BF4FF0010CF1
:100928004DF804CD4FEA410C7FEA6C5C4FEA430C6A
:1009380018BF7FEA6C5C1BD001B050EA410C0CBFB9
:1009480052EA430C91EA030F02BF90EA020F00201B
:10095800704710F1000F91EA030F58BF994208BF82
:1009680090422CBFD8176FEAE37040F0010070473F
:100978004FEA410C7FEA6C5C02D150EA013C07D196
:100988004FEA430C7FEA6C5CD6D152EA033CD3D0E1
:100998005DF8040B704700BF8446104662468C46DB
:1009A8001946634600E000BF01B5FFF7B7FF00280E
:1009B80048BF10F1000F01BD4DF808EDFFF7F4FF37
:1009C8000CBF012000205DF808FB00BF4DF808EDC2
:1009D800FFF7EAFF34BF012000205DF808FB00BFE5
:1009E8004DF808EDFFF7E0FF94BF012000205DF807
:1009F80008FB00BF4DF808EDFFF7CEFF94BF0120BC
:100A080000205DF808FB00BF4DF808EDFFF7C4FFB4
:100A180034BF012000205DF808FB00BF4FEA410CFD
:100A28007FEA6C5C02D150EA013C0AD14FEA430CE0
:100A38007FEA6C5C02D152EA033C02D14FF000001D
:100A480070474FF0010070474FEA410212F500125B
:100A580015D211D56FF47873B3EB625212D94FEAFD
:100A6800C12343F0004343EA505311F0004F23FAE7
:100A780002F018BF404270474FF00000704750EA3C
:100A8800013005D111F0004008BF6FF000407047F9
:100A98004FF00000704700BF4A0011D212F5001253
:100AA80011D20DD56FF47873B3EB62520ED44FEABE
:100AB800C12343F0004343EA505323FA02F070473E
:100AC8004FF00000704750EA013002D14FF0FF307C
:100AD80070474FF00000704753B94AB9002908BF62
:100AE80000281CBF4FF0FF314FF0FF3000F074B901
:100AF800ADF1080C6DE904CE00F006F8DDF804E06D
:100B0800DDE9022304B070472DE9F047089E0D4641
:100B180004468846002B4DD18A42944668D9B2FAD9
:100B280082F252B101FA02F3C2F1200120FA01F176
:100B38000CFA02FC41EA030894404FEA1C45210CD8
:100B4800B8FBF5FE1FFA8CF705FB1E8341EA034349
:100B58000EFB07F199420BD91CEB03030EF1FF3092
:100B680080F01E81994240F21B81AEF1020E63446F
:100B78005B1AA4B2B3FBF5F005FB103344EA034457
:100B880000FB07F7A7420AD91CEB040400F1FF3366
:100B980080F00881A74240F2058164440238E41BD2
:100BA80040EA0E4000211EB1D4400023C6E90043AC
:100BB800BDE8F0878B4208D9002E00F0EE800021B6
:100BC800C6E900050846BDE8F087B3FA83F10029B5
:100BD8004AD1AB4202D3824200F2F980841A65EB13
:100BE800030301209846002EE2D0C6E90048DFE75B
:100BF80002B9FFDEB2FA82F2002A40F09180A1EB3E
:100C08000C054FEA1C471FFA8CFE0121B5FBF7F3D0
:100C180007FB1350250C45EA00450EFB03F0A842DC
:100C280008D91CEB050503F1FF3802D2A84200F2EF
:100C3800CB8043462D1AA4B2B5FBF7F007FB10553D
:100C480044EA05440EFB00FEA64508D91CEB040443
:100C580000F1FF3502D2A64500F2BB802846A4EB7E
:100C68000E0440EA03409EE7C1F120078B4022FAB8
:100C780007FC4CEA030C20FA07F405FA01F31C43BD
:100C8800FD404FEA1C4900FA01F3B5FBF9F8200CC6
:100C98001FFA8CFE09FB185540EA054508FB0EF0C3
:100CA800A84202FA01F20BD91CEB050508F1FF3A3C
:100CB80080F08880A84240F28580A8F10208654447
:100CC8002D1AA4B2B5FBF9F009FB105544EA054505
:100CD80000FB0EFEAE4508D91CEB050500F1FF34FC
:100CE8006CD2AE456AD90238654440EA0840A0FB98
:100CF8000294A5EB0E05A542C846A64656D353D086
:100D08005EB1B3EB080265EB0E0505FA07F722FAA8
:100D180001F3CD401F43C6E900750021BDE8F08707
:100D2800C2F1200320FA03F10CFA02FC25FA03F3BE
:100D380095400D434FEA1C471FFA8CFEB3FBF7F1B1
:100D480007FB11302B0C43EA004301FB0EF09842DD
:100D580004FA02F408D91CEB030301F1FF382FD27F
:100D680098422DD9023963441B1AADB2B3FBF7F090
:100D780007FB103345EA034500FB0EF3AB4208D9E5
:100D88001CEB050500F1FF3816D2AB4214D9023826
:100D98006544ED1A40EA014138E73146304607E735
:100DA8008646E5E61846FAE64B45A9D2B9EB0208AD
:100DB80064EB0C0E0138A3E74046EAE7204694E7C7
:100DC8004146D1E7D0467BE7023B654432E7084617
:100DD80009E76444023842E7704700BF70B588B03D
:100DE8000024039404940594069407944FF0B043A8
:100DF800DA6C42F00202DA64DA6C02F00202029261
:100E0800029ADA6C42F00102DA64DB6C03F0010347
:100E18000193019B1C4D01224FF49071284601F06B
:100E2800B7FC012241F203014FF0904001F0B0FC01
:100E3800224660214FF0904001F0AAFC224604218E
:100E4800284601F0A5FC4FF49273039301260496FB
:100E58000594069403A9284601F0C8FB41F26303F0
:100E6800039304960594069403A94FF0904001F06B
:100E7800BDFB802303930494059403A94FF090408D
:100E880001F0B4FB08B070BD0004004872B6FEE77C
:100E980008B51748174B03604FF4165343600023F7
:100EA8008360C36003610C22426183614FF4004296
:100EB800C2614FF4006202624362836203F047F941
:100EC80070B900210A4803F0B3FA58B9002108485C
:100ED80003F0D3FA40B9064803F067FA30B908BD01
:100EE800FFF7D4FFFFF7D2FFFFF7D0FFFFF7CEFFE2
:100EF800180200200038014008B51248124B036060
:100F08004FF00043436000238360C3600361042201
:100F180042610376437683760122C26180F82030ED
:100F28004362836280F82C304FF48052026343633B
:100F3800836380F83C30C36403F0C6FA00B908BD87
:100F4800FFF7A4FF8C0000200024014008B51748D3
:100F5800174B03604FF41653436000238360C3604C
:100F680003610C2242618361036243620822826248
:100F78004FF400428263436603F0E9F870B9002138
:100F88000A4803F055FA58B90021084803F075FAE1
:100F980040B9064803F02DFA30B908BDFFF776FFCF
:100FA800FFF774FFFFF772FFFFF770FFF0000020F4
:100FB8000080004010B59CB00024189419941A942D
:100FC8001B941594169417940E940F9410941194DE
:100FD8001294139414943422214601A803F0EEFBD2
:100FE8002F48304B03604FF416634360846003233B
:100FF800C36004614461846101F0BCFE002843D1F0
:101008004FF48053189318A9254801F0F9FF0028D8
:101018003CD1234801F0DEFE002839D10023159386
:101028001693179315A91E4802F062F9002831D1CA
:1010380060230E9302230F9300231093042212922D
:10104800139314930C220EA9154801F02FFF18BB17
:101058000023019302930393049305934FF40052E2
:1010680006920793089309934FF000720A920B9324
:101078000C930D9301A90A4802F06EF970B908485B
:1010880000F098FB1CB010BDFFF700FFFFF7FEFE55
:10109800FFF7FCFEFFF7FAFEFFF7F8FEFFF7F6FE94
:1010A80080010020002C014000B589B00023049382
:1010B80005930693079301930293039315484FF002
:1010C800804202604BF67F324260836002F59702ED
:1010D80002F6C172C2600361836101F04BFE90B9F0
:1010E8004FF48053049304A90A4801F089FF60B9BA
:1010F80000230193039301A9064802F0F9F830B9D7
:1011080009B05DF804FBFFF7C1FEFFF7BFFEFFF76C
:10111800BDFE00BFCC01002000B59BB048220021D5
:1011280008A803F04BFB0023019302930393049355
:1011380005930693079318490A6822F4C06242F49B
:1011480000720A600A6802F4C0620092009A2222C1
:1011580008924FF480720C920122109240220D9254
:101168001193B0221292139308A800F065FC78B985
:101178004F2301930023029303930493059307934A
:10118800022101A800F094FF20B91BB05DF804FB10
:10119800FFF77CFEFFF77AFE0004005870B59CB09C
:1011A8000026864B1E7001F00FFCFFF7B5FFFFF716
:1011B80015FEFFF76DFEFFF79FFEFFF7C7FEFFF76F
:1011C800F9FEFFF771FF7E4C01224FF48071204633
:1011D80001F0DEFA32464FF48071204601F0D8FA69
:1011E800012202214FF0904001F0D2FA324602214A
:1011F8004FF0904001F0CCFA012211464FF0904098
:1012080001F0C6FA324601214FF0904001F0C0FAD1
:1012180001222021204601F0BBFA32462021204637
:1012280001F0B6FA674801F03DFD674C13ADA446DE
:10123800BCE80F000FC5BCE80F000FC5DCF8003094
:101248002B700AAD24340FCC0FC50FCC0FC5236803
:101258002B7028223146684603F0B0FA93E0584DC7
:1012680001224FF48071284601F092FA00220221EF
:101278004FF0904001F08CFA002201214FF090408D
:1012880001F086FA00222021284601F081FA28225E
:101298004E494F4803F032F8052C74D9474B0322C6
:1012A8001A7070E0464D00224FF48071284601F014
:1012B8006FFA012202214FF0904001F069FA0022F2
:1012C80001214FF0904001F063FA002220212846C6
:1012D80001F05EFA3B4B1B685B6A3E4A12689B1A38
:1012E80041F28832934202D9344B00221A70052CFD
:1012F80049D9324B02221A7045E0314D00224FF491
:101308008071284601F044FA002202214FF09040F3
:1013180001F03EFA012211464FF0904001F038FAF0
:1013280000222021284601F033FA042C2BD8234B25
:1013380000221A7027E0224C00224FF480712046C8
:1013480001F026FA002202214FF0904001F020FA25
:10135800002201214FF0904001F01AFA01222021C9
:10136800204601F015FA1C4C0C21204601F0D8FE4D
:1013780041F2883001F050FB0C21204601F062FF59
:101388000E4B00221A700FAB0DF1320218A90DF1A5
:10139800560000F08DF8FFF77FFB0446074B1B78DB
:1013A800032BF0D801A252F823F000BF67120008FF
:1013B800AD120008031300083F130008A80200201C
:1013C80000040048CC01002010690008BC0200207D
:1013D800F0000020F00200208001002000231A46BF
:1013E800312B22DC00B507E011F803E0BEF13F0F16
:1013F80013D00133312B15DC002AF5D0012AF8D19E
:1014080011F803E000F80CE00CF1010C11F803E00E
:10141800BEF1F20FEDD10222EBE780F800E00122E5
:101428009446E6E700205DF804FB002070470000C2
:101438002DE9F84F83468A461546002400260027E2
:1014480000E00134544521DA1BF804002E28F8D0B6
:10145800013D3038FEF7DEFF804689462846FEF714
:10146800D9FF02460B4600200F4903F0FFF9024658
:101478000B4640464946FFF737F802460B463046CA
:101488003946FEF77BFE06460F46DAE704A3D3E9A2
:10149800002330463946FFF727F8BDE8F88F00BF2C
:1014A80070E20DA545DF913F0000244000000000D8
:1014B8002DE9F04F83B0884615461C4602220921C3
:1014C800FFF7B6FF06460F4603220A214046FFF7FC
:1014D800AFFFCDE90001022209212846FFF7A8FF46
:1014E8008046894603220A212046FFF7A1FF82464B
:1014F8008B4642464B4630463946FEF73DFE04468B
:101508000D4652465B46DDE90001FEF735FE824690
:101518008B4642464B4630463946FEF72FFE0022A0
:10152800134BFEF7E1FF03F051F952465B46FEF715
:10153800DBFF00224FF0804303F098F906460F4680
:1015480022462B4620462946FEF7CEFF32463B462A
:10155800FEF714FE03F0F8F903A3D3E90023FEF71E
:10156800C3FF03B0BDE8F08F00000040B04D584104
:101578000000E03FFEE7FEE7FEE7FEE7FEE7704714
:101588007047704708B501F035FA08BD08B502483C
:1015980001F07EFF08BD00BF1802002010B51148F9
:1015A80001F076FF104B1B685A6A104B1A60104CFA
:1015B80010492046FFF712FF227A637ACC2A08BF27
:1015C800B92B00D010BD0C4B01221A703222002119
:1015D800084803F0F3F8002222606260A260C4F8B1
:1015E8000B20EFE7F0000020CC010020F0020020E3
:1015F800AC020020BC020020A802002070470000B6
:101608000268094B9A4200D0704782B04FF0B0434D
:101618001A6E42F400721A661B6E03F4007301938B
:10162800019B02B0704700BF0024014070B598B01C
:10163800044600211391149115911691179138229F
:1016480005A803F0BBF82368444A934204D0444AEF
:10165800934238D018B070BD202305934FF400632F
:10166800099305A800F078FE50BB4FF0B043DA6D3F
:1016780042F00102DA65DA6D02F001020192019A84
:10168800DA6C42F00102DA64DB6C03F001030093C8
:10169800009B0C231393022314930024159416948F
:1016A8000823179313A94FF0904000F09FFF22469C
:1016B8002146262001F006F9262001F03BF9C9E76A
:1016C800FFF7E4FBD1E701230593264B069305A812
:1016D80000F042FE00283ED14FF0B0431A6E42F4AB
:1016E80080421A661A6E02F480420492049ADA6CF6
:1016F80042F00202DA64DA6C02F002020392039A00
:10170800DA6C42F00102DA64DB6C03F00103029345
:10171800029B4023139302261496002415941694D2
:101728000725179513A9104800F060FF4FF4806350
:101738001393149615941694179513A94FF0904087
:1017480000F054FF22462146242001F0BBF8242053
:1017580001F0F0F87EE7FFF799FBBDE70080004055
:1017680000380140020003000004004882B003680A
:101778000F4A934204D0B3F1804F0DD002B07047A6
:101788004FF0B0431A6E42F400621A661B6E03F4FF
:1017980000630093009BF1E74FF0B0439A6D42F06D
:1017A80001029A659B6D03F001030193019BE5E734
:1017B800002C014000B587B00023019302930393E6
:1017C8000493059302680F4B9A4202D007B05DF864
:1017D80004FB4FF0B043DA6C42F00102DA64DB6CD0
:1017E80003F001030093009B4FF40063019302236D
:1017F800029304930123059301A94FF0904000F050
:10180800F5FEE3E7002C014030B589B004468C466C
:101818002A4B93E803000690ADF81C1003F1080268
:1018280092E803000490ADF8141001AD103393E86A
:10183800070085E80700BCF5007F07D0002314E007
:1018480008AA02EB830353F81C5C1EE00023022B5A
:1018580008D808AA02EB430232F8082CA242EFD2B9
:101868000133F4E7002510E00133022B0CD808AA55
:1018780002EB430232F8102CA242F5D308AA02EB7D
:10188800830353F81C5C00E000250D4A136823F01D
:1018980007032B43136001F0B9F80446084B1B6893
:1018A80003F00703AB4206D001F0B0F8001B022892
:1018B800F4D9032000E0002009B030BD58690008C1
:1018C8000040005810B5C0F303100C4B53F82040EB
:1018D8004FF0B043D3F8083103F00F03084A52F829
:1018E8002300B4FBF0F400F0D3FF01460548A0FB49
:1018F8000430800CFFF788FF10BD00BFFC690008AA
:101908009C69000883DE1B434FF0B0439968DB688D
:1019180003F0030311F00C010AD00C2906D00429A6
:1019280047D008293BD00022104626E0012BF6D1EB
:101938004FF0B0431B6813F008030DD04FF0B043CD
:101948001B6813F0080324D14FF0B042D2F894205A
:101958002E4A52F823200EE04FF0B042126812F0DF
:10196800080F12D14FF0B043D3F89430C3F30323D8
:10197800264A52F82320D1B100204FF0B0439B688B
:1019880003F00C030C2B1AD070474FF0B0421268CA
:10199800EEE74FF0B0431B68C3F30313D8E74FF0EB
:1019A800B0431A6812F4801206D11948E5E71046C8
:1019B800E3E700221748E0E700221648DDE74FF08A
:1019C800B043DB6803F00303022B09D0032B08D1D3
:1019D8004FF0B0431B6813F4801F15D10C4A00E088
:1019E8000C4A4FF0B043D868C0F3062000FB02F25F
:1019F800D868C0F302100130B2FBF0F2D868400F8B
:101A08000130B2FBF0F0BFE7024AEAE7FC690008E0
:101A18000048E8010024F40008B5FFF775FF4FF00F
:101A2800B0439B68C3F30313024A52F82330B0FB58
:101A3800F3F008BD9C690008002800F01983F8B588
:101A480004464FF0B0439D6805F00C05DE6806F0CB
:101A58000306036813F0200F00F08F80EDB10C2D02
:101A680019D0236A002B00F0BC804FF0B0421368F5
:101A780043F00103136000F0C9FF07464FF0B0437D
:101A88001B6813F0020F65D100F0C0FFC01B0228CD
:101A9800F4D90320F9E2012EE3D14FF0B0431B68DB
:101AA80013F0020F03D0236A002B00F0E382A06A30
:101AB8004FF0B0431B6813F0080F29D04FF0B04324
:101AC8001B6803F0F00398422AD9FFF7FBFE0028B1
:101AD80040F0D2824FF0B0431A6842F008021A6010
:101AE8001A6822F0F002A16A0A431A60616A5A6809
:101AF80022F47F4242EA01225A60FFF78DFFB04B81
:101B08001860B04B186800F037FF002835D0BCE2E9
:101B18004FF0B043D3F894301B0903F0F003D2E739
:101B28004FF0B0431A6842F008021A601A6822F0AF
:101B3800F002A16A0A431A60616A5A6822F47F4275
:101B480042EA01225A60A06AFFF7BCFE0028D4D0FE
:101B580001209AE24FF0B0431A6842F008021A6076
:101B68001A6822F0F002A16A0A431A60616A5A6888
:101B780022F47F4242EA01225A60236813F0010FDF
:101B880051D0082D45D00C2D41D04FF0B0421368EC
:101B980023F48013A1680B4313606368B3F5803F97
:101BA80063D0B3F5041F65D04FF0B0431A6822F430
:101BB80080321A601A6822F400121A606368002BD7
:101BC80063D000F023FF07464FF0B0431B6813F4BF
:101BD800003F28D100F01AFFC01B6428F4D9032065
:101BE80053E24FF0B042136823F00103136000F092
:101BF8000DFF07464FF0B0431B6813F0020FBCD02F
:101C080000F004FFC01B0228F4D903203DE2032E94
:101C1800BBD14FF0B0431B6813F4003F03D0636897
:101C2800002B00F02B82236813F0020F52D0042DF2
:101C38003DD00C2D39D02369002B00F091804FF056
:101C4800B042136843F48073136000F0DFFE064669
:101C58004FF0B0431B6813F4806F77D100F0D6FEC5
:101C6800801B0228F4D903200FE2136843F4803361
:101C78001360A3E74FF0B0431A6842F400121A60E9
:101C88001A6842F480321A6098E700F0BFFE0746EF
:101C98004FF0B0431B6813F4003FC4D000F0B6FE09
:101CA800C01B6428F4D90320EFE1022EC3D14FF002
:101CB800B0431B6813F4806F03D02369002B00F036
:101CC800DF8161694FF0B042536823F0FE4343EA75
:101CD80001635360236813F0080F00F08E80A36936
:101CE800002B71D04FF0B043D3F89430E16903F082
:101CF8001002914211D003F00302022A00F0C281BF
:101D080013F0010F42D14FF0B042D2F8943023F0D3
:101D18001003E1690B43C2F894304FF0B042D2F897
:101D2800943043F00103C2F8943000F06FFE064689
:101D38004FF0B043D3F8943013F0020F5DD100F0A8
:101D480065FE801B1128F3D903209EE161694FF0DD
:101D5800B042536823F0FE4343EA01635360B9E796
:101D68004FF0B042136823F48073136000F04EFE06
:101D780006464FF0B0431B6813F4806FAAD000F0FA
:101D880045FE801B0228F4D903207EE14FF0B042C3
:101D9800D2F8943023F00103C2F8943000F036FEF4
:101DA80006464FF0B043D3F8943013F0020FAAD090
:101DB80000F02CFE801B1128F3D9032065E100BF39
:101DC80008000020040000204FF0B042D2F8943000
:101DD80023F00103C2F8943000F018FE06464FF0D5
:101DE800B043D3F8943013F0020F06D000F00EFE83
:101DF800801B1128F3D9032047E1236813F0040F4F
:101E080000F0B180A84B1B6813F4807F10D100F05C
:101E180037FD00F0FBFD0646A34B1B6813F4807FDB
:101E280006D100F0F3FD801B0228F5D903202CE130
:101E3800E368002B61D0852B01D0052B07D14FF02B
:101E4800B042D2F8903043F00403C2F8903000F06A
:101E5800DDFD06464FF0B042D2F8903043F0010362
:101E6800C2F890304FF0B043D3F8903013F0020F1F
:101E780008D100F0CBFD801B41F288339842F1D99C
:101E8800032002E1E368812B01D0852B1AD100F0F1
:101E9800BDFD06464FF0B042D2F8903043F08003C3
:101EA800C2F890304FF0B043D3F8903013F4006F7D
:101EB80059D100F0ABFD801B41F288339842F1D92B
:101EC8000320E2E000F0A2FD06464FF0B042D2F84F
:101ED800903023F08003C2F890304FF0B043D3F82D
:101EE800903013F4006F3ED000F090FD801B41F25B
:101EF80088339842F1D90320C7E000F087FD0646F1
:101F08004FF0B042D2F8903023F08003C2F89030FE
:101F18004FF0B043D3F8903013F4006F08D000F0BE
:101F280075FD801B41F288339842F1D90320ACE05B
:101F380000F06CFD06464FF0B042D2F8903023F026
:101F48000103C2F890304FF0B043D3F8903013F04B
:101F5800020F08D000F05AFD801B41F288339842E6
:101F6800F1D9032091E0E36A002B00F08D800C2D5D
:101F780062D0022B1FD04FF0B0431A6822F0807253
:101F88001A60DA6822F00302DA60DA6822F088520E
:101F980022F48032DA6000F039FD04464FF0B04395
:101FA8001B6813F0007F73D000F030FD001B0A2877
:101FB800F4D9032069E04FF0B042136823F080732E
:101FC800136000F023FD05464FF0B0431B6813F083
:101FD800007F2AD14FF0B042D36834491940236BAF
:101FE800606B0343A06B43EA0023E06B0343206C60
:101FF8000343606C03430B43D360136843F080735F
:102008001360D36843F08053D36000F0FFFC0446AC
:102018004FF0B0431B6813F0007F37D100F0F6FC97
:10202800001B0A28F4D903202FE000F0EFFC401B26
:102038000A28C9D9032028E0012B2BD04FF0B04340
:10204800DB6803F00301226B914225D103F0700293
:10205800616B8A4222D103F4FE42A16BB2EB012FDD
:102068001ED103F06043626C93421BD100200CE048
:1020780001207047012008E0012006E0012004E06B
:10208800012002E0012000E00020F8BD0020FCE76C
:102098000020FAE70120F8E70120F6E70120F4E73D
:1020A8000120F2E70120F0E7000400588C80C111FC
:1020B800002800F0278170B50C460546934B1B6835
:1020C80003F007038B422DD32B6813F0020F3FD187
:1020D8002B6813F0200F53D12B6813F0400F6AD1EF
:1020E8002B6813F0040F40F083802B6813F0080F5F
:1020F80040F097802B6813F0010F00F0DE806B68CA
:10210800022B00F0A880032B00F0AD80002B40F0DC
:10211800B2804FF0B042126812F0020F40F0B18066
:102128000120EEE0794A136823F007030B4313609C
:1021380000F06CFC0646754B1B6803F00703A342CE
:10214800C2D000F063FC801B0228F4D90320D8E039
:10215800AB684FF0B0418A6822F0F00213438B60FD
:1021680000F054FC06464FF0B0439B6813F4803FE0
:10217800AED100F04BFC801B0228F4D90320C0E04C
:102188006B694FF0B041D1F8082122F0F0021343F7
:10219800C1F8083100F03AFC06464FF0B043D3F8D6
:1021A800083113F4003F97D100F030FC801B02285F
:1021B800F3D90320A5E0A9694FF0B042D2F808315D
:1021C80023F00F0343EA1113C2F8083100F01EFC94
:1021D80006464FF0B043D3F8083113F4803F7FF43C
:1021E8007FAF00F013FC801B0228F2D9032088E09F
:1021F800EB684FF0B0418A6822F4E06213438B60C9
:1022080000F004FC06464FF0B0439B6813F4003F0F
:102218007FF46BAF00F0FAFB801B0228F3D9032090
:102228006FE029694FF0B042936823F4605343EAA2
:10223800C103936000F0EAFB06464FF0B0439B6889
:1022480013F4802F7FF456AF00F0E0FB801B0228C8
:10225800F3D9032055E04FF0B042126812F4003F62
:102268000FD101204DE04FF0B042126812F0007F0C
:1022780007D1012045E04FF0B042126812F4806F98
:1022880042D04FF0B0418A6822F0030213438B60BA
:1022980000F0BCFB06464FF0B0439B6803F00C030C
:1022A8006A68B3EB820F08D000F0B0FB801B41F2E4
:1022B80088339842EFD9032023E0144B1B6803F0BE
:1022C8000703A34215D9114A136823F007032343D0
:1022D800136000F09BFB05460C4B1B6803F00703DB
:1022E800A34206D000F092FB401B0228F4D9032039
:1022F80007E0FFF791FB064B1860064B186800F0E3
:102308003BFB70BD012070470120FAE700400058F0
:10231800080000200400002008B5FFF77DFB4FF0FF
:10232800B0439B68C3F30223024A52F82330D840D3
:1023380008BD00BFDC69000808B5FFF76DFB4FF06A
:10234800B0439B68C3F3C223024A52F82330D840F3
:1023580008BD00BFDC69000870B50446036813F4C3
:10236800803F40F0AB800025236813F0010F0AD0AE
:1023780062684FF0B041D1F8883023EA124392B234
:102388001343C1F88830236813F0020F0AD0A268FB
:102398004FF0B041D1F8883023EA124392B2134388
:1023A800C1F88830236813F0200F09D023694FF053
:1023B800B041D1F8882022F440621343C1F8883034
:1023C800236813F4007F0CD0206A4FF0B041D1F895
:1023D8008830020C120423EA020343EA0043C1F8DE
:1023E8008830236813F4806F0CD0606A4FF0B041D6
:1023F800D1F88830020C120423EA020343EA0043AE
:10240800C1F88830236813F4006F0CD0A06A4FF02D
:10241800B041D1F88830020C120423EA020343EADF
:102428000043C1F88830236813F0400F40F09E80C5
:10243800236813F0800F40F0AA80236813F4807F8C
:1024480040F0B680236813F0100F0ED0E3684FF009
:10245800B041D1F8882022F440721343C1F8883083
:10246800E368B3F5807F00F0B480236813F4004F6D
:102478000FD0236B4FF0B041D1F8882022F04042B2
:102488001343C1F88830236B1BB9CB6843F08073C2
:10249800CB60236813F4804F0ED0E36A4FF0B0414D
:1024A800D1F8882022F040521343C1F88830E36AFB
:1024B800B3F1005F00F09280284670BD00F0E0F9AB
:1024C80000F0A4FA0546484B1B6813F4807F06D138
:1024D80000F09CFA401B0228F5D9032500E00025EE
:1024E800002D7FF441AF4FF0B043D3F8903003F4A0
:1024F8004073626B9A4224D04FF0B043D3F89020D7
:1025080022F44072D3F8901041F48031C3F890104F
:10251800D3F8901021F48031C3F89010C3F89020BC
:1025280012F0020F0FD1002D7FF41EAF636B4FF036
:10253800B041D1F8902022F440721343C1F8903092
:1025480012E70022ECE700F061FA06464FF0B043CC
:10255800D3F8903013F0020FE5D100F057FA801B42
:1025680041F288339842F1D90325DCE763694FF0DB
:10257800B040D0F88820190901F47F2122EA01022D
:102588001B0103F47F231343C0F8883050E7A36985
:102598004FF0B040D0F88820190901F47F2122EAD1
:1025A80001021B0103F47F231343C0F8883044E77A
:1025B800E3694FF0B040D0F88820190901F47F2171
:1025C80022EA01021B0103F47F231343C0F8883079
:1025D80038E7CB6843F08073CB6046E7CB6843F4B9
:1025E8008033CB6068E700BF0004005870B5002353
:1025F80069E085685E000324B44025EA0405CC68D8
:10260800B4402C438460446824EA0C0C4C68C4F33E
:1026180000149C4044EA0C04446065E0DD08083579
:1026280050F8256003F007044FEA840C0F2404FADD
:102638000CF426EA040E0C6904FA0CF444EA0E04BD
:1026480040F8254067E0022400E0002404FA0EF474
:102658002C430CF1020C4B4D45F82C404A4C256894
:10266800D44325EA0206D1F804C01CF4801F01D027
:1026780042EA0506444D2E606D6804EA0506D1F865
:1026880004C01CF4001F01D042EA05063E4D6E60EE
:10269800D5F8805004EA0506D1F804C01CF4803F40
:1026A80001D042EA0506384DC5F88060D5F8845057
:1026B8002C404E6816F4003F01D042EA0504324A25
:1026C800C2F8844001330A6832FA03F458D04FF054
:1026D800010C0CFA03FC1CEA0202F3D04C6804F06B
:1026E8000304013C012C84D94C6804F00304032C36
:1026F8000CD0C4685D004FF0030C0CFA05FC24EA0A
:102708000C0C8C68AC4044EA0C04C4604C6804F0BF
:102718000304022C82D004684FEA430E4FF0030CE6
:102728000CFA0EFC24EA0C0C4C6804F0030404FABE
:102738000EF444EA0C0404604C6814F4403FC1D021
:102748004FEA930C0CF102050E4C54F8255003F097
:1027580003044FEA840E072404FA0EF425EA04055C
:10276800B0F1904F3FF471AF084CA04206D004F589
:102778008064A0423FF467AF072467E7012465E758
:1027880070BD00BF00000140000800580004004868
:102798000AB181617047816270470346002834D0CE
:1027A80090F82520D2B2022A06D00422C263002261
:1027B80080F824200120704701680A6822F00E0280
:1027C8000A60816C0A6822F480720A6001680A68EB
:1027D80022F001020A60426C02F01C01006C012226
:1027E8008A404260DA6C196D51605A6D32B11168D5
:1027F80021F4807111609A6DD96D5160012283F8BE
:102808002520002083F8240070470120704708B570
:1028180090F82530DBB2022B03D00423C3630120D8
:1028280008BD0268136823F00E031360026813687A
:1028380023F001031360826C136823F48073136020
:10284800436C03F01C02016C012393404B60C36C82
:10285800026D5A60436D33B11A6822F480721A60AF
:10286800836DC26D5A60012380F82530002380F8FB
:102878002430836B13B198470020D1E70020CFE7BD
:10288800024A136843F480731360704700040058C9
:10289800024B186800F4C060704700BF000400587D
:1028A800074AD36823F4E0631B041B0C000200F4FE
:1028B800E060034343F0BF6343F40033D3607047E1
:1028C80000ED00E000B5194BDB68C3F30223C3F148
:1028D800070CBCF1040F28BF4FF0040C03F1040EE1
:1028E800BEF1060F18D9033B4FF0FF3E0EFA0CFC61
:1028F80021EA0C0199400EFA03F322EA0303194373
:1029080000280BDB0901C9B200F1604000F5614005
:1029180080F800135DF804FB0023E5E700F00F00E2
:102928000901C9B2024B1954F4E700BF00ED00E0F9
:1029380014ED00E0002807DB00F01F024009012326
:102948009340024A42F82030704700BF00E100E09F
:102958000138B0F1807F0BD24FF0E0235861054A6F
:10296800F02182F823100020986107221A6170472D
:102978000120704700ED00E0114B1B780BB90120D6
:10298800704710B50446FFF747F80D4B1A784FF417
:102998007A73B3FBF2F3B0FBF3F0FFF7D9FF68B932
:1029A8000F2C01D901200AE0002221464FF0FF3008
:1029B800FFF788FF034B1C60002000E0012010BDDA
:1029C800000000200400002010B50320FFF768FF76
:1029D800FFF722F8064B18600F20FFF7CDFF10B164
:1029E8000124204610BD0446FEF708FEF9E700BFA3
:1029F80008000020034B1B78034A11680B4413603E
:102A0800704700BF00000020F4020020014B186846
:102A1800704700BFF402002038B50446FFF7F6FF00
:102A28000546B4F1FF3F02D0044B1B781C44FFF766
:102A3800EDFF401BA042FAD338BD00BF00000020C4
:102A480030B4036A23F001030362036A45688269AC
:102A580022F4803222F073020C68224323F002032E
:102A68008C682343154CA04207D004F5E054A042DB
:102A780003D0A4F58064A04205D123F00803CC68F4
:102A8800234323F004030D4CA04207D004F5C0549F
:102A9800A04203D004F58064A04207D125F4407C0D
:102AA8004C6944EA0C0C8D6945EA0C054560826165
:102AB8004A684263036230BC704700BF002C014083
:102AC80030B4036A23F480730362036A4468C269FA
:102AD80022F4803222F073020D682A4323F4007333
:102AE8008D6843EA0523124DA84219D0104DA8421B
:102AF80007D005F5C055A84203D005F58065A84262
:102B080007D124F440544D6944EA05148D6944EA18
:102B180005144460C2614A68C263036230BC7047EE
:102B280023F40063CD6843EA052323F48063DDE7DB
:102B3800002C014030B4036A23F480530362026A14
:102B48004468C36923F0807323F4E6430D6843EABD
:102B5800052322F400528D6842EA05320B4DA84243
:102B680007D005F5C055A84203D005F58065A842F1
:102B780004D124F480444D6944EA85144460C36157
:102B88004B680364026230BC704700BF002C0140F0
:102B980030B4036A23F480330362036A4468426DE5
:102BA80022F4803222F070020D682A4323F40033A5
:102BB8008D6843EA05430B4DA84207D005F5C0557B
:102BC800A84203D005F58065A84204D124F48034D6
:102BD8004D6944EA0524446042654A688265036297
:102BE80030BC7047002C014030B4036A23F48013D2
:102BF8000362026A4468436D23F0807323F4E04360
:102C08000D6843EA052322F400128D6842EA055252
:102C18000B4DA84207D005F5C055A84203D005F5CD
:102C28008065A84204D124F480244D6944EA8524AF
:102C3800446043654B68C365026230BC704700BF9F
:102C4800002C014010B4036A046A24F001040462F1
:102C5800846924F0F00C4CEA021223F00A030B43B7
:102C68008261036210BC704710B4046A24F0100437
:102C780004628469036A24F4704C4CEA023223F03B
:102C8800A00343EA01138261036210BC70478368A2
:102C980023F4401323F070030B4343F007038360CE
:102CA8007047000090F83D30DBB2012B1DD10223A4
:102CB80080F83D300368104A934208D0B3F1804F42
:102CC80005D01A6842F001021A600020704799681E
:102CD8000A4A0A40062A0AD0B2F5803F09D01A6883
:102CE80042F001021A60002070470120704700205E
:102CF80070470020704700BF002C0140070001000A
:102D08007047000003681A4A904202D0B0F1804F21
:102D180003D123F070034A681343154A90420AD03E
:102D2800B0F1804F07D002F5C052904203D002F5AF
:102D38008062904203D123F44073CA68134323F09E
:102D480080034A69134303608B68C3620B6883621C
:102D5800074B984207D003F5C053984203D003F5B8
:102D68008063984201D10B69036301234361704773
:102D7800002C014060B310B5044690F83D3013B301
:102D8800022384F83D30214651F8040BFFF7BAFFBF
:102D9800012384F8483084F83E3084F83F3084F8C2
:102DA800403084F8413084F8423084F8433084F865
:102DB800443084F8453084F8463084F8473084F845
:102DC8003D30002010BD80F83C30FEF7CFFCD7E73F
:102DD8000120704760B310B5044690F83D3013B336
:102DE800022384F83D30214651F8040BFFF78AFF8F
:102DF800012384F8483084F83E3084F83F3084F862
:102E0800403084F8413084F8423084F8433084F804
:102E1800443084F8453084F8463084F8473084F8E4
:102E28003D30002010BD80F83C30FFF769FFD7E740
:102E38000120704730B4036A23F010030362036A69
:102E48004468826922F0807222F4E6420D6842EA00
:102E5800052223F020038D6843EA0513124DA8428A
:102E680019D0114DA84207D005F5C055A84203D086
:102E780005F58065A84207D124F440644D6944EA09
:102E880085048D6944EA8504446082614A688263E6
:102E9800036230BC704723F08003CD6843EA051312
:102EA80023F04003DDE700BF002C014038B590F85F
:102EB8003C30012B00F0958004460D46012380F834
:102EC8003C30142A00F28880DFE802F00B86868600
:102ED8001F86868634868686488686865D868686AA
:102EE80071000068FFF7ACFD2268936943F008039E
:102EF80093612268936923F00403936122689369BC
:102F080029690B439361002067E00068FFF792FF8F
:102F18002268936943F4006393612268936923F4F8
:102F28008063936122689369296943EA0123936165
:102F3800002052E00068FFF7C3FD2268D36943F020
:102F48000803D3612268D36923F00403D36122689C
:102F5800D36929690B43D36100203EE00068FFF77D
:102F6800E9FD2268D36943F40063D3612268D36919
:102F780023F48063D3612268D369296943EA012372
:102F8800D361002029E00068FFF702FE2268536D34
:102F980043F0080353652268536D23F00403536517
:102FA8002268536D29690B435365002015E00068BA
:102FB800FFF71AFE2268536D43F4006353652268D5
:102FC800536D23F4806353652268536D296943EA7E
:102FD80001235365002000E00120002384F83C30E1
:102FE80038BD0220FCE710B4846824F47F4C42EA20
:102FF80003220A4342EA0C02826010BC70470000B8
:1030080090F83C30012B76D010B50446012380F8A7
:103018003C30022380F83D3002689068374B03400B
:1030280093600B68602B4CD029D8402B54D00CD916
:10303800502B22D1CA6849682068FFF703FE502147
:103048002068FFF724FE002005E0202B0DD009D9C9
:10305800302B0AD00120012384F83D30002384F866
:103068003C3010BD0BB1102B05D119462068FFF775
:103078000EFE0020EFE70120EDE70120EBE7B3F5B6
:10308800805F34D0B3F5005F0CD1CB684A6889689B
:103098002068FFF7A8FF2268936843F48043936091
:1030A8000020D8E7702B24D1CB684A68896820684B
:1030B800FFF799FF2268936843F077039360002035
:1030C800C9E7CA6849682068FFF7CEFD6021206813
:1030D800FFF7DDFD0020BEE7CA6849682068FFF7F2
:1030E800B1FD40212068FFF7D2FD0020B3E70020A2
:1030F800B1E70120AFE70220704700BF8800CEFF8C
:1031080001F01F01012303FA01FC036A23EA0C03FF
:103118000362036A02FA01F10B430362704700007D
:1031280010B50446084671BB94F83E30DBB2013B4B
:1031380018BF0123002B7BD100284FD1022384F82C
:103148003E30012201462068FFF7DAFF23683B4A38
:10315800934207D002F5C052934203D002F5806231
:10316800934203D15A6C42F400425A642368334AAA
:1031780093424FD0B3F1804F4CD01A6842F001020D
:103188001A60002055E004290CD0082911D00C2918
:1031980016D010291BD094F84330DBB2013B18BF7E
:1031A8000123C7E794F83F30DBB2013B18BF012386
:1031B800C0E794F84030DBB2013B18BF0123B9E700
:1031C80094F84130DBB2013B18BF0123B2E794F811
:1031D8004230DBB2013B18BF0123ABE7042809D01A
:1031E80008280BD00C280DD010280FD0022384F803
:1031F8004330A6E7022384F83F30A2E7022384F88D
:1032080040309EE7022384F841309AE7022384F88D
:10321800423096E799680A4A0A40062A0AD0B2F567
:10322800803F09D01A6842F001021A60002000E0CD
:10323800012010BD0020FCE70020FAE7002C014027
:103248000700010038B504460D4600220068FFF764
:1032580057FF2368254A93421CD002F5C052934277
:1032680018D002F58062934214D02368196A41F29B
:103278001112114208D1196A40F24442114203D195
:103288001A6822F001021A609DB9012384F83E30C1
:10329800002038BD196A41F211121142E5D1196AAC
:1032A80040F244421142E0D15A6C22F400425A647E
:1032B800DBE7042D09D0082D0BD00C2D0DD0102DD7
:1032C8000FD0012384F84330E2E7012384F83F302C
:1032D800DEE7012384F84030DAE7012384F841303F
:1032E800D6E7012384F84230D2E700BF002C014022
:1032F80090F83C30012B2BD030B4012380F83C30BF
:10330800022380F83D30026853689468114DAA4240
:1033180019D023F070030D682B43536003680D4ADE
:10332800934202D0B3F1804F04D124F080048A681C
:1033380014439C60012380F83D30002380F83C3022
:10334800184630BC704723F470034D682B43E0E700
:1033580002207047002C014090F83C30012B46D0E9
:1033680010B4012380F83C30CB6823F440738A689A
:10337800134323F480634A68134323F400630A6801
:10338800134323F480530A69134323F400534A690F
:10339800134323F480430A6B134323F470238A698D
:1033A80043EA02430268134CA24209D0114CA242DC
:1033B8000BD05364002380F83C30184610BC70478B
:1033C80023F08053CC692343F0E723F470038C6A1D
:1033D80043EA045323F080730C6A234323F00073F9
:1033E8004C6A234323F00053C96A0B43E1E70220E8
:1033F800704700BF002C0140026852E8003F23F4E8
:10340800907342E800310029F6D1026802F10803FE
:1034180053E8003F23F0805323F00103083242E8C9
:1034280000310029F1D1C36E012B06D02023C0F84A
:1034380088300023C36603677047026852E8003F7C
:1034480023F0100342E800310029F6D1EEE7704777
:1034580008B5026852E8003F23F0400342E8003113
:103468000029F6D12023C0F8843000234367FFF7F2
:10347800EEFF08BD7047704708B5806A0023A0F8C2
:103488005E30A0F85630FFF7F6FF08BD7047000021
:1034980070B504460168CB6908688D6840F60F026C
:1034A8001A4008D113F0200F05D010F0200F34D1A6
:1034B80015F0805F31D12AB1954A2A4033D1954E13
:1034C800304230D1E26E012A00F0C38013F4801F2D
:1034D80003D015F4800F40F05B8113F0800F07D004
:1034E80010F0800F40F05B8115F4000F40F0578119
:1034F80013F0400F03D010F0400F40F0578113F441
:10350800000F03D010F0804F40F0548113F0807FFB
:1035180002D00028C0F2528170BD236F002BFBD06F
:1035280020469847F8E713F0010F09D010F4807F80
:1035380006D001260E62D4F88C103143C4F88C10E2
:1035480013F0020F0BD015F0010F08D021680226E6
:103558000E62D4F88C1041F00401C4F88C1013F0FA
:10356800040F0BD015F0010F08D0216804260E6255
:10357800D4F88C1041F00201C4F88C1013F0080F35
:103588000BD010F0200F00D13AB122680821116247
:10359800D4F88C200A43C4F88C2013F4006F0CD0A4
:1035A80010F0806F09D022684FF400611162D4F8DE
:1035B8008C2042F02002C4F88C20D4F88C20002AF9
:1035C800AAD013F0200F09D010F0200F02D115F067
:1035D800805F03D0236F0BB120469847D4F88C2026
:1035E80023689B6813F0400F02D112F0280F29D0EE
:1035F8002046FFF701FF23689B6813F0400F1DD09A
:10360800226802F1080353E8003F23F04003083220
:1036180042E800310029F3D1E36F5BB13E4A9A6377
:10362800E06FFFF7F4F800283FF476AFE06F836BA4
:10363800984771E72046FFF71EFF6DE72046FFF722
:103648001AFF69E72046FFF716FF0023C4F88C30FD
:1036580062E713F0100F3FF439AF10F0100F3FF48A
:1036680035AF10230B6223689B6813F0400F55D0C9
:10367800E26F13685B689BB2002B3FF44DAFB4F860
:103688005C1099427FF648AFA4F85E3013681B6857
:1036980013F0200F31D1226852E8003F23F48073E1
:1036A80042E800310029F6D1226802F1080353E804
:1036B800003F23F00103083242E800310029F3D12A
:1036C800226802F1080353E8003F23F04003083260
:1036D80042E800310029F3D12023C4F888300023C0
:1036E800E366226852E8003F23F0100342E8003105
:1036F8000029F6D1E06FFFF750F8B4F85C10B4F881
:103708005E309BB2C91A89B22046FFF7BFFE03E7B5
:10371800010000102001000481340008B4F85C1096
:10372800B4F85E309BB2C91A89B2B4F85E309BB265
:10373800002B3FF4F1AE00293FF4EEAE226852E8C8
:10374800003F23F4907342E800300028F6D1226845
:1037580002F1080353E8003F23F0805323F00103EC
:10376800083242E800300028F1D12023C4F888301C
:103778000023E3662367226852E8003F23F0100322
:1037880042E800300028F6D12046FFF77FFEC3E666
:103798004FF480130B62204600F004FEBCE6636F12
:1037A800002B3FF4B9AE20469847B5E62046FFF710
:1037B8004FFEB1E6204600F0F7FDADE6204600F0EA
:1037C800F2FDA9E608B5B0F86030D0F88820222AC2
:1037D80005D00268936943F00803936108BD026845
:1037E800516ADBB2826D0B401370836D01338365C0
:1037F800B0F85E309BB2013B9BB2A0F85E30B0F8E7
:103808005E309BB2002BE9D1026852E8003F23F4F6
:10381800907342E800310029F6D1026802F10803EA
:1038280053E8003F23F00103083242E80031002941
:10383800F3D12023C0F8883000230367C36E012B1F
:1038480016D10023C366026852E8003F23F0100334
:1038580042E800310029F6D10368DA6912F0100F46
:1038680001D010221A62B0F85C10FFF70FFEB5E71E
:10387800FFF700FEB2E708B5B0F86020D0F888304E
:10388800222B05D00268936943F00803936108BDB1
:1038980003685B6A816D13400B80836D0233836517
:1038A800B0F85E309BB2013B9BB2A0F85E30B0F836
:1038B8005E309BB2002BEAD1026852E8003F23F445
:1038C800907342E800310029F6D1026802F108033A
:1038D80053E8003F23F00103083242E80031002991
:1038E800F3D12023C0F8883000230367C36E012B6F
:1038F80016D10023C366026852E8003F23F0100384
:1039080042E800310029F6D10368DA6912F0100F95
:1039180001D010221A62B0F85C10FFF7B7FDB6E7C5
:10392800FFF7A8FDB3E700002DE9F843B0F86060A1
:103938000368DD69D3F80090D3F80880D0F88820B0
:10394800222A05D09A6942F008029A61BDE8F883F4
:103958000446B0F8687008E0D4F88C30002B4CD1DD
:10396800B4F85E309BB2002B4ED0002F00F0878059
:1039780015F0200F00F083802368596AF3B2A26D16
:103988000B401370A36D0133A365B4F85E309BB28E
:10399800013B9BB2A4F85E302368DD6915F0070F80
:1039A800DED015F0010F09D019F4807F06D001226E
:1039B8001A62D4F88C301343C4F88C3015F0020F17
:1039C8000BD018F0010F08D0236802221A62D4F82D
:1039D8008C3043F00403C4F88C3015F0040FBBD0CE
:1039E80018F0010FB8D0236804221A62D4F88C307A
:1039F80043F00203C4F88C30AEE72046FFF73BFDE6
:103A08000023C4F88C30ABE7226852E8003F23F467
:103A1800807342E800310029F6D1226802F10803D8
:103A280053E8003F23F0805323F00103083242E8B3
:103A380000310029F1D12023C4F8883000232367FE
:103A4800E36E012B03D02046FFF714FD8DE700231A
:103A5800E366226852E8003F23F0100342E8003191
:103A68000029F6D12368DA6912F0100F01D010226C
:103A78001A62B4F85C102046FFF708FD75E7B4F841
:103A88005E309BB2002B3FF461AFB4F868209A42D5
:103A98007FF65CAF226802F1080353E8003F23F089
:103AA8008053083242E800310029F3D1054B2367DF
:103AB800226852E8003F43F0200342E80031002921
:103AC800F6D143E7CD3700082DE9F843B0F8606038
:103AD8000368DD69D3F80090D3F80880D0F888200F
:103AE800222A05D09A6942F008029A61BDE8F88353
:103AF8000446B0F8687008E0D4F88C30002B4BD13D
:103B0800B4F85E309BB2002B4DD0002F00F08680B9
:103B180015F0200F00F0828023685B6AA26D3340A5
:103B28001380A36D0233A365B4F85E309BB2013BEA
:103B38009BB2A4F85E302368DD6915F0070FDFD06B
:103B480015F0010F09D019F4807F06D001221A62FE
:103B5800D4F88C301343C4F88C3015F0020F0BD016
:103B680018F0010F08D0236802221A62D4F88C30AA
:103B780043F00403C4F88C3015F0040FBCD018F0DF
:103B8800010FB9D0236804221A62D4F88C3043F0AC
:103B98000203C4F88C30AFE72046FFF76CFC002323
:103BA800C4F88C30ACE7226852E8003F23F48073F5
:103BB80042E800310029F6D1226802F1080353E8EF
:103BC800003F23F0805323F00103083242E800311C
:103BD8000029F1D12023C4F8883000232367E36E3D
:103BE800012B03D02046FFF745FC8EE70023E36650
:103BF800226852E8003F23F0100342E80031002910
:103C0800F6D12368DA6912F0100F01D010221A6277
:103C1800B4F85C102046FFF739FC76E7B4F85E305C
:103C28009BB2002B3FF462AFB4F868209A427FF64B
:103C38005DAF226802F1080353E8003F23F0805388
:103C4800083242E800310029F3D1064B2367226885
:103C580052E8003F43F0200342E800310029F6D142
:103C680044E700BF7F38000870B5044601688368E0
:103C78000269134342691343C269134308689D4AA2
:103C8800024013430B602268536823F44053E168F1
:103C98000B435360A1692268974B9A4201D0236A6B
:103CA8001943936823F06E4323F430630B43936006
:103CB8002268D36A23F00F03616A0B43D362236837
:103CC8008E4A93421CD08E4A934231D08A4A9342FC
:103CD8004BD0102288498B4268D0E069B0F5004F7C
:103CE80000F0A580082A00F21F81DFE812F0D30057
:103CF800F500D1001D01F8001D011D011D01FB008B
:103D08004FF0B042D2F8882002F0030242F4403269
:103D1800A2F54032032A09D8DFE802F002043C0683
:103D28000122D7E70422D5E70822D3E71022D1E7FA
:103D38004FF0B042D2F8882002F00C0242F4402240
:103D4800A2F540220C2A0ED8DFE802F0070D0D0D6F
:103D5800090D0D0D260D0D0D0B000022BAE70422EA
:103D6800B8E70822B6E71022B4E74FF0B042D2F81D
:103D7800882002F44062B2F5006F0FD005D87AB1FE
:103D8800B2F5806F0ED10422A4E7B2F5406F0BD1D3
:103D980008229FE702229DE702229BE7022299E779
:103DA800002297E7102295E7102293E7082A00F2ED
:103DB8009C80DFE802F0089A3A9A379A9A9A0500A6
:103DC8004FF4004004E0FEF7A7FA002800F08F80C7
:103DD800626A4C4B33F81220B0FBF2F3656805EBCE
:103DE8004501994200F29480B3EB053F00F29280BE
:103DF800002633463146FCF76FFE090241EA10619E
:103E080000026B08C0182A46334641F10001FCF74E
:103E180063FEA0F540723C4B9A427DD82368D86077
:103E2800304650E0FDF770FDCFE73848D0E7082A64
:103E380074D8DFE802F0072705732A7373730B0041
:103E4800324803E0FEF768FA002869D0626A2D4B11
:103E580033F81230B0FBF3F06268530803EB40000C
:103E6800B0FBF2F080B2A0F110024FF6EF739A4265
:103E780058D820F00F03C0F3420018432368D860D5
:103E8800002020E0FEF758FADEE7FDF73DFDDBE70E
:103E98001E4803E0FEF740FA002847D0626A194B33
:103EA80033F81230B0FBF3F0636800EB5300B0FB5B
:103EB800F3F080B2A0F110024FF6EF739A4237D8B0
:103EC8002368D86000200123A4F86A30A4F8683079
:103ED80000232367636770BDFEF72EFADCE7FDF762
:103EE80013FDD9E74FF40040D8E70120EBE70020A5
:103EF800E9E700BFF369FFCF0080004000380140C8
:103F08000044004074690008FFFC0F000024F4001E
:103F18000120D8E70120D6E70120D4E70120D2E725
:103F28000020D0E70120CEE70120CCE70020CAE737
:103F38000120C8E7836A13F0010F06D002685368AE
:103F480023F40033C16A0B435360836A13F0020FF2
:103F580006D00268536823F48033016B0B43536027
:103F6800836A13F0040F06D00268536823F4802391
:103F7800416B0B435360836A13F0080F06D0026845
:103F8800536823F40043816B0B435360836A13F037
:103F9800100F06D00268936823F48053C16B0B435B
:103FA8009360836A13F0200F06D00268936823F4A5
:103FB8000053016C0B439360836A13F0400F0AD0DF
:103FC8000268536823F48013416C0B435360436CBD
:103FD800B3F5801F0BD0836A13F0800F06D00268F8
:103FE800536823F40023C16C0B4353607047026885
:103FF800536823F4C003816C0B435360EBE72DE94E
:10400800F84305460F4616469946DDF820802C6889
:10401800E46937EA04030CBF4FF0010C4FF0000CC1
:10402800B44557D1B8F1FF3FF1D0FEF7EFFCA0EB54
:10403800090040452FD8B8F1000F2CD02B681A681A
:1040480012F0040FE3D0DA6912F4006FDFD04FF4F6
:1040580000621A622A6852E8003F23F4D07342E8EB
:1040680000310029F6D12A6802F1080353E8003F1D
:1040780023F00103083242E800310029F3D120235C
:10408800C5F88430C5F88830C5F88C30002385F829
:10409800803003201FE02A6852E8003F23F4D073E1
:1040A80042E800310029F6D12A6802F1080353E8F2
:1040B800003F23F00103083242E800310029F3D120
:1040C8002023C5F88430C5F88830002385F880306F
:1040D800032000E00020BDE8F88330B583B0044633
:1040E8000023C0F88C30FEF791FC05462268126860
:1040F80012F0080F0FD123681B6813F0040F18D1B2
:104108002023C4F88430C4F888300020E06684F89E
:10411800800003B030BD6FF07E4300930346002259
:104128004FF400112046FFF76AFF0028E3D0032070
:10413800EFE76FF07E4300932B4600224FF4800197
:104148002046FFF75CFF0028DAD00320E1E778B3C8
:1041580010B50446D0F884300BB32423C4F8843057
:104168002268136823F0010313602046FFF77CFDE3
:10417800012813D0A36ABBB92268536823F490437B
:1041880053602268936823F02A03936022681368B7
:1041980043F0010313602046FFF79FFF10BD80F82E
:1041A8008030FDF743FAD8E72046FFF7C3FEE3E780
:1041B8000120704710B48165A0F85C20A0F85E204B
:1041C800002303678368B3F5805F06D0A3B903694A
:1041D80073B9FF23A0F8603014E0036923B940F2F3
:1041E800FF13A0F860300DE0FF23A0F8603009E06D
:1041F8007F23A0F8603005E0B3F1805F30D0002362
:10420800A0F860300023C0F88C302223C0F8883032
:10421800016801F1080353E8003F43F00103083146
:1042280041E80034002CF3D1436EB3F1005F21D094
:104238008368B3F5805F48D02C4B0367002380F870
:1042480080300369002B46D0026852E8003F43F4EF
:10425800907342E800310029F6D1002010BC704765
:1042680003691BB97F23A0F86030CBE73F23A0F890
:104278006030C7E7B0F868309342D9D88368B3F59F
:10428800805F1CD01A4B0367002380F880300369D5
:1042980043B1026852E8003F43F4807342E80031BA
:1042A8000029F6D1026802F1080353E8003F43F001
:1042B8008053083242E800310029F3D1CDE7036981
:1042C800002BDFD10B4B0367DEE70369002BB3D16B
:1042D800094B0367B2E7026852E8003F43F0200346
:1042E80042E800310029F6D1B7E700BFCD37000812
:1042F80031390008D13A00087F38000838B5D0F8BD
:104308008830202B1ED1F9B102B390F88030012BF0
:104318001ED0012380F880300023C36603680D4C4B
:10432800A3420CD05B6813F4000F08D0046854E86B
:10433800003F43F0806344E80035002DF6D1FFF7D5
:1043480039FF00E0022038BD0120FCE70120FAE730
:104358000220F8E700800040436E2BB90123A0F843
:104368006A30A0F86830704730B403689A68C2F3BE
:1043780042629968490F094D6B5CDB00084C615C2F
:1043880093FBF1F3A0F86A30AB5CDB00A25C93FB13
:10439800F2F3A0F8683030BC704700BF9469000899
:1043A8008C69000870477047704790F88030012B7F
:1043B8001DD010B50446012380F880302423C0F8AE
:1043C800843002681368116821F00101116043F01C
:1043D80000534FF00052426602681360FFF7BCFFBB
:1043E8002023C4F88430002084F8800010BD022007
:1043F800704790F88030012B18D0012380F8803066
:104408002423C0F8843003681A68196821F0010170
:10441800196022F000520023436601680A602022D6
:10442800C0F8842080F88030184670470220704712
:1044380038B590F88030012B1DD00446012380F850
:1044480080302423C0F8843003681D681A6822F07D
:1044580001021A600268936823F06043194391606F
:10446800FFF77AFF23681D602023C4F884300020FA
:1044780084F8800038BD0220FCE738B590F8803019
:10448800012B1DD00446012380F880302423C0F876
:10449800843003681D681A6822F001021A600268F5
:1044A800936823F0606319439160FFF755FF236811
:1044B8001D602023C4F88430002084F8800038BDB3
:1044C8000220FCE77047000070B582B0002301931A
:1044D800002800F01B810446836DBBB122689368F5
:1044E80013F0805F1FD1936823F0104323F0170364
:1044F80043F080539360864B1B689B09854AA2FB57
:1045080003239B0901335B00019309E0FDF778F869
:104518000023E36584F85430E0E7019B013B0193F5
:10452800019B002BF9D12268936813F0805F40F05B
:104538009C80A36D43F01003A365E36D43F0010372
:10454800E3650120936813F0040300D00123A16DF3
:1045580011F0100F40F0D380002B40F0D080A16DF7
:1045680021F4817141F00201A165916811F0010FF8
:1045780051D1A168257E41EA8531657E41EAC53180
:10458800A67E41EA4631256B0DB14FF4805529438B
:10459800E56829432569002D69DB4FF40015294397
:1045A80094F82C5041EA450194F82050012D61D02F
:1045B800656A25B105F4E075A66A35432943D568CF
:1045C80025F4FE3C2CF4FF7C4CEA0101D1606268C2
:1045D80002F04042E16C42EA010594F83C100129DE
:1045E80055D0226816694C493140294311616268E7
:1045F800B2F1404F0FD0B2F1804F0CD0B2F1004F62
:1046080009D0464DD5F8081721F4701102F470123C
:104618000A43C5F808272568626B696921F0070114
:104628000A436A612168A56B4A6922F0700242EA6E
:1046380005124A612269002A33D12268936A63F01D
:104648000F03936223685B6903F00703626B9A4266
:104658004CD0A36D23F0120343F01003A365E36D60
:1046680043F00103E36501204EE000206AE725F0EE
:10467800004594E716B941F4803199E7A56D45F0F6
:104688002005A565E56D45F00105E56590E7216C18
:104698000A43616C0A43A16C0A432A4342F00105AC
:1046A8009FE7B2F5001FCDD1072B08D8226E9900DD
:1046B800CA4002F00F020F2A01D00133F4E7012BA0
:1046C8000ED021688B6AE369013B9B0003F01C0351
:1046D8006FF00F0202FA03F3226E13438B62B1E705
:1046E8002268936A63F00F039362ABE70023E365E4
:1046F800A36D23F0030343F00103A36504E0A36D56
:1047080043F01003A365012002B070BD0120FBE750
:1047180008000020632D3E0502FCFF1F0020014019
:104728000D488546FFF7CEFE0C480D490D4A00237B
:1047380002E0D458C4500433C4188C42F9D30A4A4E
:104748000A4C002301E013600432A242FBD300F0BC
:1047580011F8FCF723FDFEE7008000200000002090
:1047680070000020306C000870000020F802002063
:10477800FEE7000070B50D4D0D4C641BA41000261B
:10478800A64209D10B4D0C4C02F0B2F8641BA410E0
:104798000026A64205D170BD55F8043B984701365E
:1047A800EEE755F8043B98470136F2E7206C00081D
:1047B800206C0008206C0008246C000802440346A2
:1047C800934200D1704703F8011BF9E7254A21F00D
:1047D8000043934223DD10B5234A934286B009DD96
:1047E80002460B46FBF7C8FC02460B461046194624
:1047F80006B010BD02AA00F03BFE00F00304012C35
:1048080011D0022C23D0CCB10124DDE90423DDE949
:104818000201009401F074FE02460B46E6E700220E
:10482800002301F015B9DDE90423DDE90201009454
:1048380001F066FE024601F10043D7E7DDE90423F3
:10484800DDE9020101F004F902460B46CEE7DDE995
:104858000423DDE9020101F0FBF8024601F10043FF
:10486800C4E700BFFB21E93FFFFFEF7F2DE9F843D5
:1048780014461D468046894600F08EF822460646B4
:104888000F462B4620462946FCF7C8F878B900227F
:10489800002340464946FCF78FF8D8B10022002390
:1048A80020462946FCF788F828B1264F00263046CE
:1048B8003946BDE8F8832046294601F017FF00284D
:1048C800F5D02046294600220023FCF77FF800286F
:1048D800EDD02CE03046394601F008FFA0B10022A7
:1048E800002330463946FCF767F80028DFD04046F9
:1048F800494601F0FBFE0028D9D02046294601F0A0
:10490800F5FE0028D3D012E04046494601F0EEFEFD
:104918000028E4D02046294601F0E8FE0028DED031
:1049280032463B4630463946FCF778F820B901F064
:10493800D9FF22230360BAE701F0D4FF21230360E3
:10494800B5E700BF0000F03FF8B504460D4600F09B
:10495800B9FF224606460F462B4620462946FCF755
:104968005DF830B92046294600220023FCF72EF8CE
:1049780010B930463946F8BD01F0B4FF00220023D3
:104988002121016010461946FBF7D8FE06460F465E
:1049980030463946F8BD00BF2DE9F04F23F0004BF3
:1049A80088465BEA020193B014461D46074611D1BA
:1049B800031888F4002275485241994270EB0203AB
:1049C80020D23846414622462B46FBF7D7FB13B088
:1049D800BDE8F08F10466E4A28F0004991459A4686
:1049E80046463B4615DD06F1404606F580161E4351
:1049F800E7D12319654985F4002252419E4271EBA3
:104A08000203DED3634C00231846214613B0BDE8E9
:104A1800F08F3ED05E4A9345E5DC00F08880002E9A
:104A280069DB0022009278B9594A934500F08380E7
:104A3800584A934500F09780BAF1804F00F095846A
:104A4800554A924500F0B58338464146029301F035
:104A580049FE029B4BB3009AF30F013B0A931343A1
:104A680000F088804D4B9B4540F39E8003F1047312
:104A78009B454B4B40F30C84994540F38684BAF12F
:104A8800000F40F38684002013B0BDE8F04F01F01A
:104A980023BE002F95D1BDE738464146009301F06B
:104AA80021FE009B002B65D10093B9F1000F04D0C3
:104AB800384B26F040429A42CDD1BAF1000F05DAC0
:104AC80002460B4600203349FBF738FE002EBFF69E
:104AD8007EAF009B09F1404909F5801959EA0303A3
:104AE80040F0678402460B46FBF746FB02460B463E
:104AF800FBF724FE6BE72B4A93452EDCA2F1547298
:104B080093450FDD4FEA2B52A2F2FF32142A40F3ED
:104B18004284C2F1340220FA02F101FA02F282421E
:104B280000F0708400220092002881D08CE70028D1
:104B38003FF475AF57E709F1404202F5801213437D
:104B48003FF460AF164B994540F36783BAF1000F05
:104B5800C0F25D832046294639E7022200920028E8
:104B68003FF462AF70E7BAF1000FC0F2F68338463F
:104B780041462CE73A46434638464146FBF7FCFA9D
:104B880002460B46FBF7DAFD21E700BF0000F0FF05
:104B98000000F07F0000F03F0000E03F0000E0412F
:104BA800FFFFEF3FFFFF3F43D54B334000222BB9B8
:104BB800D44BFBF799FC6FF0340289464FEA29532E
:104BC800A3F2FF339A18D04B0B92C9F3130949F09B
:104BD8007F56994546F4401607DDCC4B994540F37E
:104BE800F18301320B92A6F5801600220023CDE94D
:104BF8000823CDE91023C64B0022CDE90623002760
:104C0800DDE9062331468246FBF7B6FAB346DDE90D
:104C180006238046894650463146CDE90CABFBF762
:104C2800ADFA02460B460020B949FBF787FD0A4654
:104C38000146CDE90E121346494602464046FBF7A7
:104C480053FC0A4683469446CDE902BC4FF0000C5B
:104C5800CDF808C07610DDE902AB46F000560146F3
:104C680006F50023CDE904120020D91906460F469F
:104C780002460B4650465946FBF736FC02460B46A1
:104C880040464946FBF778FADDE90623804689461F
:104C980030463946FBF770FA02460B46DDE90C014F
:104CA800FBF76AFA52465B46FBF71EFC02460B46C8
:104CB80040464946FBF760FADDE90E23FBF714FC92
:104CC800DDE90467CDE9060132463B463046394600
:104CD800FBF70AFC78A3D3E9002306460F46FBF747
:104CE80003FC77A3D3E90023FBF748FA32463B4697
:104CF800FBF7FAFB74A3D3E90023FBF73FFA32462C
:104D08003B46FBF7F1FB72A3D3E90023FBF736FA26
:104D180032463B46FBF7E8FB6FA3D3E90023FBF7DA
:104D28002DFA32463B46FBF7DFFB6DA3D3E90023A0
:104D3800FBF724FA3246804689463B4630463946D8
:104D4800FBF7D2FB02460B4640464946FBF7CCFB35
:104D5800524606460F465B46DDE90401FBF70EFAAC
:104D6800DDE90623FBF7C0FB32463B46FBF706FAB4
:104D78005246804689465B4650465946FBF7B4FB87
:104D880002460B46CDE90C23624B0022FBF7F6F9ED
:104D980042464B46FBF7F2F900260F4632463B46A1
:104DA80050465946FBF7A0FB5A4B82468B460022D9
:104DB80030463946FBF7E0F9DDE90C23FBF7DCF96F
:104DC80002460B4640464946FBF7D6F9DDE904237F
:104DD800FBF78AFB3246804689463B46DDE90601F9
:104DE800FBF782FB02460B4640464946FBF7C6F9ED
:104DF8008046894602460B4650465946FBF7BEF99F
:104E0800002639A3D3E9002330460F46FBF76CFB95
:104E180052465B4682468B4630463946FBF7ACF92C
:104E280002460B4640464946FBF7A6F930A3D3E9AC
:104E38000023FBF759FB30A3D3E9002380468946BA
:104E480030463946FBF750FB02460B46404649467A
:104E5800FBF794F9DDE91023FBF790F980460B98EE
:104E68008946FBF7D7FA424606460F464B46504658
:104E78005946CDE904ABFBF781F9DDE90823FBF7D7
:104E88007DF932463B46FBF779F94FF0000A324686
:104E98003B4650468B46FBF76FF9DDE90823FBF7E5
:104EA8006BF9DDE90423FBF767F902460B46404638
:104EB8004946FBF761F92FE0EF4E454A287ECA3F85
:104EC80065DBC9934A86CD3F01411DA96074D13F76
:104ED8004D268F515555D53FFFAB6FDBB66DDB3F88
:104EE800033333333333E33F000000E009C7EE3FB9
:104EF800FD033ADC09C7EE3FF5015B14E02F3EBE27
:104F08000000F07F000040438E98030079B60B0044
:104F18000000F03F00000840CDE90201009B0A9A1A
:104F2800013B13430CBFD44BD44B0022CDE90423DF
:104F38000023CDE900450093DDE90089204642467B
:104F48004B462946FBF718F952465B46FBF7CCFA65
:104F5800224606460F462B46DDE90201FBF7C4FA56
:104F680002460B4630463946FBF708F942464B469F
:104F780006460F4650465946FBF7B6FA0B46024618
:104F880004460D4630463946FBF7F8F8BC4B9942C3
:104F9800804689468A4640F3168101F13F4303F56E
:104FA800E003034340F02382A1A3D3E90023304662
:104FB8003946FBF7E3F82246CDE900012B46404687
:104FC8004946FBF7D9F802460B46DDE90001FBF735
:104FD8001BFD002840F00B82CAF30A534FF48012DD
:104FE800A3F2FE3342FA03F35344A649C3F30A5229
:104FF800A2F2FF3241FA02FCC3F31301C2F1140218
:1050080041F4801141FA02FE002023EA0C01BAF1B2
:10501800000FCDF808E002460B4602DA7146494215
:10502800029120462946FBF7A7F8029B1B0500932F
:1050380002460B4604460D4630463946FBF79EF8B5
:1050480089464FF000087CA3D3E90023404649462F
:10505800FBF74AFA224682468B462B46404649468B
:10506800FBF78AF802460B4630463946FBF784F8C8
:1050780073A3D3E90023FBF737FA73A3D3E900231B
:1050880004460D4640464946FBF72EFA02460B46B3
:1050980020462946FBF772F806460F4602460B469D
:1050A80050465946FBF76AF852465B4604460D4699
:1050B800FBF762F802460B4630463946FBF75CF8C8
:1050C800224682468B462B4620462946FBF70CFA99
:1050D8005FA3D3E9002306460F46FBF705FA5EA354
:1050E800D3E90023FBF748F832463B46FBF7FCF9C7
:1050F8005BA3D3E90023FBF741F832463B46FBF7B5
:10510800F3F959A3D3E90023FBF736F832463B46B7
:10511800FBF7EAF956A3D3E90023FBF72FF8324649
:105128003B46FBF7E1F902460B4620462946FBF7CA
:1051380023F806460F4602460B4620462946FBF74B
:10514800D3F9002280468946304639464FF08043DD
:10515800FBF712F802460B4640464946FBF7EEFAC3
:10516800524606460F465B4620462946FBF7BCF9E1
:1051780052465B46FBF702F802460B463046394674
:10518800FAF7FAFF22462B46FAF7F6FF02460B46D5
:1051980000203A49FAF7F0FF009D0C462C44B4F57C
:1051A800801FC0F220812146DDE90423FBF79CF92A
:1051B8000DE4002EFFF648AC3846414613B0BDE872
:1051C800F04F00F07FBBDFF8C0C021F0004363451B
:1051D80040F3D3802D4B0B4403430AD122462B4680
:1051E800FAF7CAFF32463B46FBF704FC00283FF4B7
:1051F800F3AEDDE9040100220023FBF7E7FB0038EA
:1052080018BF012013B0BDE8F04F01F05FBA0023CA
:10521800002418462146FFF7DABBBAF1000FF6DA88
:1052280005F1004320461946FFF7D1BBAFF30080D4
:10523800FE822B654715973C00000000432EE63F91
:10524800EF39FAFE422EE63F396CA80C615C20BEAD
:10525800D0A4BE726937663EF16BD2C541BDBB3E74
:105268002CDE25AF6A56113F93BDBE166CC1663F52
:105278003E5555555555C53F0000F0BF0000F03F5D
:10528800FFFF8F40FFFF0F00FFCB904000346F3FC0
:1052980099457ADB724B99453FF7F1AB704B002289
:1052A800FAF76AFF62A3D3E9002306460F46FBF725
:1052B8001BF961A3D3E90023804689463046394665
:1052C800FBF712F9674B82468B4600223046394677
:1052D800FBF70AF902460B4659A1D1E90001FAF792
:1052E8004BFF32463B46FBF7FFF802460B460020D1
:1052F8005D49FAF741FF3246CDE902013B463046A7
:105308003946FBF7F1F802460B46DDE90201FBF7E7
:10531800EBF84DA3D3E90023FBF7E6F802460B466A
:1053280050465946FAF728FF02460B4606460F46EE
:1053380040464946FAF722FF4FF0000A42464B46DC
:1053480050468B46FAF718FF02460B463046394658
:10535800FAF712FFCDE90201E0E53A464346404933
:105368000020FBF7EBF9FFF732BB3A4638464346D5
:105378004146FBF7B9F8FFF72ABB3B4A934252DC98
:10538800DDE90023009202925BE6BAF1000FFFF616
:105398007AAB002036E700287FF47EABC2F1140216
:1053A8004BFA02F101FA02F25A4535D00090FFF7A4
:1053B8003FBB009B012B7FF40AAB01F10043194668
:1053C800FFF705BB22A3D3E90023CDE9082322A3D5
:1053D800D3E90023CDE91023244B0022CDE906238D
:1053E8004FF480270CE4029A01F002FADCE6DDE9CA
:1053F800040100220023FBF7E9FA003818BF012056
:10540800FFF742BB01F00101C1F10202009200283E
:105418003FF40EABFFF718BB01F00101C1F1020226
:105428000092FFF705BB1B15D8E500BFAFF300805E
:10543800000000604715F73F44DF5DF80BAE543EAF
:10544800555555555555D53FFE822B654715F73FA0
:105458000000004003B8E23F06D0CF43EBFD4C3ECE
:105468000000F03F0000D03F0000E03F0000F83FA0
:105478002DE9F04F1446B64A21F00045954291B007
:1054880040F38580B34A95420F4626DC0029A6A33F
:10549800D3E9002340F3C481FAF76EFEAE4B9D4278
:1054A8008046894600F08880A1A3D3E90023FAF753
:1054B80063FE02460B46C4E9002340464946FAF714
:1054C8005BFE9BA3D3E90023FAF756FEC4E9020169
:1054D8000126304611B0BDE8F08FA04A954240F34E
:1054E8008B809F4A95425DDC2E15A6F21646A5EBE9
:1054F800065189468046FBF7A7FAFAF78BFF024662
:105508000B4640464946CDE90A23FAF735FE954B46
:105518000022FAF7E9FF89468046FBF795FA054627
:10552800FAF778FF02460B4640464946CDE90C2378
:10553800FAF722FE8B4B0022FAF7D6FF02460B46FB
:10554800CDE90E2300220023FBF736FA002800F0ED
:105558006581002D0CBF01230223834A0192022298
:105568000092214632460AA800F0A2FB002F064608
:10557800AFDAD4E9000505F10041C4E90001E168AA
:10558800A26801F10043C4E902237642A1E700269C
:10559800C4E90001002200233046C4E9022311B007
:1055A800BDE8F08F02460B46FAF7E6FD0026C4E98F
:1055B8000201C4E900018CE75FA3D3E90023FAF7ED
:1055C800DBFD5FA3D3E9002380468946FAF7D4FDC3
:1055D80002460B46C4E9002340464946FAF7CCFD8B
:1055E80057A3D3E90023FAF7C7FD0126C4E902014E
:1055F800304611B0BDE8F08F01F074F852A3D3E93A
:10560800002380468946FAF76FFF584B0022FAF7C5
:10561800B5FDFBF719FA0646FAF7FCFE42A3D3E9F3
:10562800002382468B46CDE904ABFAF75DFF0246BC
:105638000B4640464946FAF79FFD3DA3D3E90023B0
:10564800CDE9020150465946FAF74EFF1F2E804613
:10565800894612DC464B721E53F82230AB420CD0FE
:1056680002460B46DDE90201FAF786FD02460B46C3
:10567800C4E9002382468B46B4E02B150793DDE985
:1056880002014B464246FAF777FDC1F30A53C3EBD2
:105698001555102D8B46824640F3A08026A3D3E9EA
:1056A8000023DDE90401FAF71FFF80468946024618
:1056B8000B46DDE90201FAF75FFD82468B4652464A
:1056C8005B46DDE90201FAF757FD42464B46FAF719
:1056D80053FD1BA3D3E9002380468946DDE9040175
:1056E800FAF702FF42464B46FAF746FD02460B46DA
:1056F8008046894650465946CDE908ABFAF73CFD45
:10570800079AC1F30A53D31A312B8B46824631DCF0
:1057180002460B46C4E90023DDE90823CDE902234C
:1057280060E000BFAFF3008000004054FB21F93F68
:105738003163621A61B4D03D0000601A61B4D03D93
:105748007370032E8A19A33B83C8C96D305FE43F89
:10575800FB21E93F7BD90240FB21F93FFB2139417D
:10576800FFFFEF7F00007041BC6A00080000E03FC7
:105778003C6A000848A3D3E90023DDE90401FAF7ED
:10578800B3FE8046894602460B46DDE90801FAF772
:10579800F3FC82468B4652465B46DDE90801CDE9BB
:1057A80002ABFAF7E9FC42464B46FAF7E5FC3CA3A4
:1057B800D3E9002380468946DDE90401FAF794FE1F
:1057C80042464B46FAF7D8FC02460B4680468946C5
:1057D80050465946FAF7D0FC8B46824652465B46FD
:1057E800C4E9002352465B46DDE90201FAF7C4FC2E
:1057F80042464B46FAF7C0FC002F02460B46C4E966
:105808000223BFF666AE0BF1004301F10041A06030
:10581800C4F800A06360E16076425AE603239CE680
:10582800FAF7ACFC264B9D428046894616D01EA34B
:10583800D3E90023FAF7A2FC02460B46C4E9002389
:1058480040464946FAF798FC17A3D3E90023FAF72C
:1058580095FC4FF0FF36C4E902013AE614A3D3E9F8
:105868000023FAF78BFC14A3D3E90023804689466A
:10587800FAF784FC02460B46C4E900234046494631
:10588800FAF77AFC0CA3D3E90023FAF777FC4FF078
:10589800FF36C4E902011CE60000002E8A19A33B6A
:1058A800C14920259A837B393163621A61B4D03D9E
:1058B8000000601A61B4D03D7370032E8A19A33BAF
:1058C800FB21F93F614A8A432DE9F84305460C4616
:1058D80000F09E8000290B46844654DD091562D0ED
:1058E800C3F31303C807A1F2FF3743F4801304D4AA
:1058F8005B0003EBDC734FEA4C0C4FEADC720026CA
:1059080002EB43037F104FEA4C0C4FF0160E34465F
:105918004FF40012A118994202DC5B1A8C18164445
:105928005B00BEF1010E03EBDC734FEA52024FEA53
:105938004C0CEFD1754620204FF000420AE043D0CE
:105948004FEADC71013801EB43034FEA4C0C4FEA94
:10595800520242D0A34202EB0E01F0DD002901EB16
:10596800020E0ADBA0461B1B614588BF03F1FF330B
:10597800ACEB010C15444446E2E7BEF1000FF1DB45
:1059880004F10108EFE721F00042024336D0002974
:105998004CD14FEADC22153913464FEA4C5C002AF9
:1059A800F7D0D6024CD400205B00DD02044600F19B
:1059B8000100F9D51A4663460CFA00FCC0F1200034
:1059C800C340091B13438BE76145B9D8002901EB94
:1059D800020ED2DB98460023CAE753EA0C0311D122
:1059E8006808731003F17F5303F50013F20748BFEB
:1059F80040F0004003EB075905464C46284621462F
:105A0800BDE8F883691C16BF681C01364008E8E742
:105A180002460B46FAF768FD2A462346FAF7AEFB1C
:105A280005460C4628462146BDE8F8830246FAF7A3
:105A3800A3FB02460B46FAF781FE05460C46DDE756
:105A4800634620204FF0FF34BAE700BF0000F07F24
:105A58002DE9F04F21F0004887B0B8F1795F924600
:105A68009B460646019170DAFAF7EEFF002800F02F
:105A7800F480019B324619463046FAF735FD7AA381
:105A8800D3E9002304460D46FAF72EFD78A3D3E99F
:105A98000023FAF773FB22462B46FAF725FD76A377
:105AA800D3E90023FAF768FB22462B46FAF71CFDD8
:105AB80073A3D3E90023FAF761FB22462B46FAF7D2
:105AC80013FD71A3D3E90023FAF756FB22462B46B0
