:020000040800F2
:100000000080002079540008E9080008EB08000887
:10001000ED080008EF080008F108000800000000E3
:10002000000000000000000000000000F3080008CD
:10003000F508000800000000F7080008F9080008AB
:10004000C9540008C9540008C9540008C95400081C
:10005000C9540008C9540008C9540008C95400080C
:10006000C9540008C9540008C9540008C9540008FC
:10007000C9540008C9540008C9540008C9540008EC
:10008000C9540008C9540008C9540008C9540008DC
:10009000C9540008C9540008C9540008C9540008CC
:1000A000C9540008C9540008C9540008C9540008BC
:1000B000C9540008C9540008C9540008C9540008AC
:1000C000C9540008C9540008C9540008C95400089C
:1000D00001090008C9540008C9540008C95400089F
:1000E000C9540008C9540008C9540008C95400087C
:1000F000C9540008C9540008C9540008C95400086C
:10010000C9540008C954000811090008C95400085E
:10011000C9540008C9540008C9540008C95400084B
:10012000C9540008C9540008C9540008C95400083B
:08013000C9540008C95400087D
:1001380010B5054C237833B9044B13B10448AFF319
:1001480000800123237010BD100000200000000073
:100158004055000808B5034B1BB103490348AFF3EA
:10016800008008BD00000000140000204055000871
:1001780053B94AB9002908BF00281CBF4FF0FF3106
:100188004FF0FF3000F074B9ADF1080C6DE904CE02
:1001980000F006F8DDF804E0DDE9022304B070475A
:1001A8002DE9F047089E0D4604468846002B4DD1A0
:1001B8008A42944668D9B2FA82F252B101FA02F33D
:1001C800C2F1200120FA01F10CFA02FC41EA03080D
:1001D80094404FEA1C45210CB8FBF5FE1FFA8CF73A
:1001E80005FB1E8341EA03430EFB07F199420BD935
:1001F8001CEB03030EF1FF3080F01E81994240F2A0
:100208001B81AEF1020E63445B1AA4B2B3FBF5F096
:1002180005FB103344EA034400FB07F7A7420AD959
:100228001CEB040400F1FF3380F00881A74240F280
:10023800058164440238E41B40EA0E4000211EB1E7
:10024800D4400023C6E90043BDE8F0878B4208D9B3
:10025800002E00F0EE800021C6E900050846BDE842
:10026800F087B3FA83F100294AD1AB4202D3824224
:1002780000F2F980841A65EB030301209846002EEA
:10028800E2D0C6E90048DFE702B9FFDEB2FA82F23F
:10029800002A40F09180A1EB0C054FEA1C471FFA99
:1002A8008CFE0121B5FBF7F307FB1350250C45EA3B
:1002B80000450EFB03F0A84208D91CEB050503F125
:1002C800FF3802D2A84200F2CB8043462D1AA4B2CE
:1002D800B5FBF7F007FB105544EA05440EFB00FE9A
:1002E800A64508D91CEB040400F1FF3502D2A64547
:1002F80000F2BB802846A4EB0E0440EA03409EE7C8
:10030800C1F120078B4022FA07FC4CEA030C20FAC3
:1003180007F405FA01F31C43FD404FEA1C4900FAB3
:1003280001F3B5FBF9F8200C1FFA8CFE09FB1855F0
:1003380040EA054508FB0EF0A84202FA01F20BD983
:100348001CEB050508F1FF3A80F08880A84240F2CE
:100358008580A8F1020865442D1AA4B2B5FBF9F00E
:1003680009FB105544EA054500FB0EFEAE4508D9C9
:100378001CEB050500F1FF346CD2AE456AD9023892
:10038800654440EA0840A0FB0294A5EB0E05A5428F
:10039800C846A64656D353D05EB1B3EB080265EB08
:1003A8000E0505FA07F722FA01F3CD401F43C6E907
:1003B80000750021BDE8F087C2F1200320FA03F19F
:1003C8000CFA02FC25FA03F395400D434FEA1C474B
:1003D8001FFA8CFEB3FBF7F107FB11302B0C43EA35
:1003E800004301FB0EF0984204FA02F408D91CEB12
:1003F800030301F1FF382FD298422DD90239634403
:100408001B1AADB2B3FBF7F007FB103345EA0345FF
:1004180000FB0EF3AB4208D91CEB050500F1FF38D1
:1004280016D2AB4214D902386544ED1A40EA0141AC
:1004380038E73146304607E78646E5E61846FAE6E5
:100448004B45A9D2B9EB020864EB0C0E0138A3E7BF
:100458004046EAE7204694E74146D1E7D0467BE7A5
:10046800023B654432E7084609E76444023842E73C
:10047800704700BF72B6FEE700B59BB04822002166
:1004880008A805F051F800230193029303930493FD
:100498000593069307931B490A6822F4C06242F445
:1004A80000720A600A6802F4C0620092009A21226F
:1004B80008924FF480320992012210921193A022DF
:1004C80012920A93139308A800F0CCFCB0B94F23FA
:1004D8000193002302930393049305930793012147
:1004E80001A800F0FBFF58B900224FF080614FF4DB
:1004F800807000F0F7FB1BB05DF804FBFFF7BAFF54
:10050800FFF7B8FF0004005800B5B1B001F072FC65
:10051800FFF7B2FF00F000F900F02CF800F044F902
:1005280000F0B8F800F008FAB4220F4903A804F064
:10053800EDFF00F007FA02F0E5FE8DF808000B4821
:1005480002F0A0FE112003F0F9FA02F0B7FD02F064
:10055800D9FE8DF8080002F037FFADF80400044B0F
:100568001B6B9847E5E700BF58550008C019EB35E5
:10057800F45700082DE9F04188B00024039404944E
:100588000594069407944FF0B043DA6C42F00202E7
:10059800DA64DA6C02F002020292029ADA6C42F031
:1005A8000102DA64DB6C03F001030193019B384D0F
:1005B80022462021284601F001FB224664214FF003
:1005C800904001F0FBFA012208214FF0904001F021
:1005D800F5FA01220421284601F0F0FA20230393BA
:1005E800012604960594069403A9284601F014FAF6
:1005F8004FF4C073039312230493059406944FF0A9
:100608000408CDF81C8003A9284601F005FA40F635
:10061800820303930494059403A94FF0904001F0DA
:10062800FBF96423039304960594069403A94FF0F9
:10063800904001F0F1F908230393049602270597E7
:10064800069403A94FF0904001F0E6F94FF4807347
:1006580003930497059403230693079403A94FF083
:10066800904001F0D9F9CDF80C80049605970694CE
:1006780003A9284601F0D0F94FF48053039304945A
:10068800059403A9284601F0C7F908B0BDE8F08130
:100698000004004808B51348134B03604FF00043AB
:1006A800436000238360C3600361042242610376D0
:1006B800437683760122C26180F8203043628362E8
:1006C80080F82C304FF4805202634363836380F8D0
:1006D8003C30C36400F05AF900B908BDFFF7CAFE00
:1006E800FBE700BF2C000020002401400268094BF2
:1006F8009A4200D0704782B04FF0B0431A6E42F46D
:1007080000721A661B6E03F400730193019B02B01A
:10071800704700BF0024014008B50548082303605E
:1007280001F09CFB00B908BDFFF7A4FEFBE700BF82
:100738009000002000B583B04FF0B0435A6E42F0ED
:1007480001025A665B6E03F001030193019B0022CC
:100758001146322001F0CCFA322001F001FB03B03F
:100768005DF804FB70470020704700B583B0019026
:10077800019800F017F803B05DF804FB00207047FB
:100788000020704700207047002070470020704705
:1007980000207047002070470020704700207047F5
:1007A800002070477047000008B51948194B0360CE
:1007B8004FF4E133436000238360C36003610C227C
:1007C800426183614FF40042C2614FF400620262E9
:1007D8004362836202F007FB70B900210C4802F003
:1007E8007DFB60B900210A4802F09DFB50B908481A
:1007F80002F055FB48B908BDFFF73CFEEDE7FFF7EF
:1008080039FEEFE7FFF736FEF1E7FFF733FEF2E7D1
:100818009C0000200038014070B596B004460021C5
:1008280011911291139114911591382203A804F093
:100838007BFE2268284B9A4201D016B070BD012376
:1008480003934FF44033049303A800F09BFF002860
:100858003ED14FF0B0431A6E42F480421A661A6EC7
:1008680002F480420292029ADA6C42F00202DA64DE
:10087800DA6C02F002020192019ADA6C42F001028B
:10088800DA64DB6C03F001030093009B40231193AF
:10089800022612960024139414940725159511A97D
:1008A8000E4801F0B9F84FF480631193129613942F
:1008B8001494159511A94FF0904001F0ADF8224617
:1008C8002146242001F014FA242001F049FAB4E763
:1008D800FFF7D0FDBDE700BF003801400004004825
:1008E800FEE7FEE7FEE7FEE7FEE770477047704762
:1008F80008B501F095FA08BD08B5024801F066FE92
:1009080008BD00BF9C00002008B5024801F01AFD90
:1009180008BD00BF900000207047002070470020ED
:10092800704702207047002070470120704708B9BF
:100938000F2070471620704708B5FFF713FF00F027
:1009480007F808BD70477047704770477047704791
:1009580008B50748074B0360074B8360074B4360A4
:10096800074BC360074B0361074B1B68984708BDDB
:100978002C0100204F0900085109000853090008FC
:100988005509000857090008F457000870B582B0E7
:1009980000230193002800F01B810446836DBBB13E
:1009A8002268936813F0805F1FD1936823F0104387
:1009B80023F0170343F080539360864B1B689B0911
:1009C800854AA2FB03239B0901335B00019309E0DD
:1009D800FFF78CFE0023E36584F85430E0E7019BC1
:1009E800013B0193019B002BF9D12268936813F016
:1009F800805F40F09C80A36D43F01003A365E36D16
:100A080043F00103E3650120936813F0040300D069
:100A18000123A16D11F0100F40F0D380002B40F09E
:100A2800D080A16D21F4817141F00201A165916826
:100A380011F0010F51D1A168257E41EA8531657E0B
:100A480041EAC531A67E41EA4631256B0DB14FF426
:100A580080552943E56829432569002D69DB4FF452
:100A68000015294394F82C5041EA450194F8205088
:100A7800012D61D0656A25B105F4E075A66A354394
:100A88002943D56825F4FE3C2CF4FF7C4CEA01018F
:100A9800D160626802F04042E16C42EA010594F8D4
:100AA8003C10012955D0226816694C493140294328
:100AB80011616268B2F1404F0FD0B2F1804F0CD093
:100AC800B2F1004F09D0464DD5F8081721F470113E
:100AD80002F470120A43C5F808272568626B696931
:100AE80021F007010A436A612168A56B4A6922F06F
:100AF800700242EA05124A612269002A33D122684B
:100B0800936A63F00F03936223685B6903F007033A
:100B1800626B9A424CD0A36D23F0120343F010038A
:100B2800A365E36D43F00103E36501204EE0002077
:100B38006AE725F0004594E716B941F4803199E752
:100B4800A56D45F02005A565E56D45F00105E56550
:100B580090E7216C0A43616C0A43A16C0A432A435B
:100B680042F001059FE7B2F5001FCDD1072B08D849
:100B7800226E9900CA4002F00F020F2A01D00133F9
:100B8800F4E7012B0ED021688B6AE369013B9B00D7
:100B980003F01C036FF00F0202FA03F3226E1343F3
:100BA8008B62B1E72268936A63F00F039362ABE745
:100BB8000023E365A36D23F0030343F00103A3655A
:100BC80004E0A36D43F01003A365012002B070BDDB
:100BD8000120FBE708000020632D3E0502FCFF1FF3
:100BE8000020014030B589B004468C462A4B93E872
:100BF80003000690ADF81C1003F1080292E8030008
:100C08000490ADF8141001AD103393E8070085E89F
:100C18000700BCF5007F07D0002314E008AA02EB08
:100C2800830353F81C5C1EE00023022B08D808AA93
:100C380002EB430232F8082CA242EFD20133F4E768
:100C4800002510E00133022B0CD808AA02EB43025E
:100C580032F8102CA242F5D308AA02EB830353F80A
:100C68001C5C00E000250D4A136823F007032B43A2
:100C78001360FFF778FD0446084B1B6803F0070371
:100C8800AB4206D0FFF76FFD001B0228F4D9032002
:100C980000E0002009B030BD0C56000800400058A4
:100CA80010B5C0F303100C4B53F820404FF0B0437D
:100CB800D3F8083103F00F03084A52F82300B4FBB5
:100CC800F0F400F0FBFF01460548A0FB0430800C5F
:100CD800FFF788FF10BD00BF00570008A0560008A6
:100CE80083DE1B4370B586B00C461646022302937A
:100CF8000323049300230393C0F3034101F5901CDD
:100D08004FF0B045EB6C01228A401343EB6483B289
:100D18000193C0F30750059001A94FEA8C2000F019
:100D28007BFEAB6823F0FE4344EA06021A43AA603E
:100D380006B070BD4FF0B0439968DB6803F0030359
:100D480011F00C010AD00C2906D0042947D0082933
:100D58003BD00022104626E0012BF6D14FF0B043DD
:100D68001B6813F008030DD04FF0B0431B6813F055
:100D7800080324D14FF0B042D2F894202E4A52F8FA
:100D880023200EE04FF0B042126812F0080F12D183
:100D98004FF0B043D3F89430C3F30323264A52F8F4
:100DA8002320D1B100204FF0B0439B6803F00C031F
:100DB8000C2B1AD070474FF0B0421268EEE74FF094
:100DC800B0431B68C3F30313D8E74FF0B0431A6866
:100DD80012F4801206D11948E5E71046E3E700222D
:100DE8001748E0E700221648DDE74FF0B043DB681C
:100DF80003F00303022B09D0032B08D14FF0B043B3
:100E08001B6813F4801F15D10C4A00E00C4A4FF000
:100E1800B043D868C0F3062000FB02F2D868C0F3DC
:100E280002100130B2FBF0F2D868400F0130B2FB7B
:100E3800F0F0BFE7024AEAE7005700080048E80177
:100E48000024F40008B5FFF775FF4FF0B0439B6826
:100E5800C3F30313024A52F82330B0FBF3F008BD82
:100E6800A0560008002800F01983F8B504464FF092
:100E7800B0439D6805F00C05DE6806F003060368BC
:100E880013F0200F00F08F80EDB10C2D19D0236ADC
:100E9800002B00F0BC804FF0B042136843F0010310
:100EA8001360FFF760FC07464FF0B0431B6813F070
:100EB800020F65D1FFF757FCC01B0228F4D90320A5
:100EC800F9E2012EE3D14FF0B0431B6813F0020F93
:100ED80003D0236A002B00F0E382A06A4FF0B043EE
:100EE8001B6813F0080F29D04FF0B0431B6803F0BC
:100EF800F00398422AD9FFF7D3FE002840F0D282A7
:100F08004FF0B0431A6842F008021A601A6822F0DB
:100F1800F002A16A0A431A60616A5A6822F47F42A1
:100F280042EA01225A60FFF78DFFB04B1860B04BC0
:100F3800186800F037FF002835D0BCE24FF0B04306
:100F4800D3F894301B0903F0F003D2E74FF0B04315
:100F58001A6842F008021A601A6822F0F002A16AC0
:100F68000A431A60616A5A6822F47F4242EA0122FF
:100F78005A60A06AFFF794FE0028D4D001209AE2B4
:100F88004FF0B0431A6842F008021A601A6822F05B
:100F9800F002A16A0A431A60616A5A6822F47F4221
:100FA80042EA01225A60236813F0010F51D0082D3C
:100FB80045D00C2D41D04FF0B042136823F4801374
:100FC800A1680B4313606368B3F5803F63D0B3F542
:100FD800041F65D04FF0B0431A6822F480321A60BB
:100FE8001A6822F400121A606368002B63D0FFF7B6
:100FF800BAFB07464FF0B0431B6813F4003F28D1F3
:10100800FFF7B1FBC01B6428F4D9032053E24FF06B
:10101800B042136823F001031360FFF7A4FB0746EF
:101028004FF0B0431B6813F0020FBCD0FFF79BFBD7
:10103800C01B0228F4D903203DE2032EBBD14FF098
:10104800B0431B6813F4003F03D06368002B00F023
:101058002B82236813F0020F52D0042D3DD00C2DA3
:1010680039D02369002B00F091804FF0B04213680B
:1010780043F480731360FFF776FB06464FF0B043E6
:101088001B6813F4806F77D1FFF76DFB801B022874
:10109800F4D903200FE2136843F480331360A3E705
:1010A8004FF0B0431A6842F400121A601A6842F40A
:1010B80080321A6098E7FFF756FB07464FF0B043B7
:1010C8001B6813F4003FC4D0FFF74DFBC01B642816
:1010D800F4D90320EFE1022EC3D14FF0B0431B68CF
:1010E80013F4806F03D02369002B00F0DF8161695E
:1010F8004FF0B042536823F0FE4343EA0163536064
:10110800236813F0080F00F08E80A369002B71D0BC
:101118004FF0B043D3F89430E16903F010029142E4
:1011280011D003F00302022A00F0C28113F0010F6C
:1011380042D14FF0B042D2F8943023F01003E16965
:101148000B43C2F894304FF0B042D2F8943043F0D9
:101158000103C2F89430FFF706FB06464FF0B04390
:10116800D3F8943013F0020F5DD1FFF7FCFA801B1F
:101178001128F3D903209EE161694FF0B04253680A
:1011880023F0FE4343EA01635360B9E74FF0B042EE
:10119800136823F480731360FFF7E5FA06464FF0EF
:1011A800B0431B6813F4806FAAD0FFF7DCFA801BEA
:1011B8000228F4D903207EE14FF0B042D2F89430EF
:1011C80023F00103C2F89430FFF7CDFA06464FF03A
:1011D800B043D3F8943013F0020FAAD0FFF7C3FA44
:1011E800801B1128F3D9032065E100BF0800002007
:1011F800040000204FF0B042D2F8943023F00103ED
:10120800C2F89430FFF7AFFA06464FF0B043D3F870
:10121800943013F0020F06D0FFF7A5FA801B1128AF
:10122800F3D9032047E1236813F0040F00F0B180DD
:10123800A84B1B6813F4807F10D100F037FDFFF72F
:1012480092FA0646A34B1B6813F4807F06D1FFF77A
:101258008AFA801B0228F5D903202CE1E368002BC9
:1012680061D0852B01D0052B07D14FF0B042D2F8C1
:10127800903043F00403C2F89030FFF774FA064642
:101288004FF0B042D2F8903043F00103C2F89030EA
:101298004FF0B043D3F8903013F0020F08D1FFF7A6
:1012A80062FA801B41F288339842F1D9032002E1A7
:1012B800E368812B01D0852B1AD1FFF754FA064633
:1012C8004FF0B042D2F8903043F08003C2F890302B
:1012D8004FF0B043D3F8903013F4006F59D1FFF7B3
:1012E80042FA801B41F288339842F1D90320E2E0A8
:1012F800FFF739FA06464FF0B042D2F8903023F0A3
:101308008003C2F890304FF0B043D3F8903013F414
:10131800006F3ED0FFF727FA801B41F288339842CE
:10132800F1D90320C7E0FFF71EFA06464FF0B04296
:10133800D2F8903023F08003C2F890304FF0B043D9
:10134800D3F8903013F4006F08D0FFF70CFA801B25
:1013580041F288339842F1D90320ACE0FFF703FA51
:1013680006464FF0B042D2F8903023F00103C2F89D
:1013780090304FF0B043D3F8903013F0020F08D0FC
:10138800FFF7F1F9801B41F288339842F1D9032025
:1013980091E0E36A002B00F08D800C2D62D0022BC7
:1013A8001FD04FF0B0431A6822F080721A60DA68D2
:1013B80022F00302DA60DA6822F0885222F48032DE
:1013C800DA60FFF7D0F904464FF0B0431B6813F01A
:1013D800007F73D0FFF7C7F9001B0A28F4D9032050
:1013E80069E04FF0B042136823F080731360FFF791
:1013F800BAF905464FF0B0431B6813F0007F2AD1B5
:101408004FF0B042D36834491940236B606B0343F3
:10141800A06B43EA0023E06B0343206C0343606C3A
:1014280003430B43D360136843F080731360D3689E
:1014380043F08053D360FFF796F904464FF0B0436A
:101448001B6813F0007F37D1FFF78DF9001B0A28BE
:10145800F4D903202FE0FFF786F9401B0A28C9D9E1
:10146800032028E0012B2BD04FF0B043DB6803F0BA
:101478000301226B914225D103F07002616B8A420D
:1014880022D103F4FE42A16BB2EB012F1ED103F06F
:101498006043626C93421BD100200CE0012070472E
:1014A800012008E0012006E0012004E0012002E01C
:1014B800012000E00020F8BD0020FCE70020FAE74A
:1014C8000120F8E70120F6E70120F4E70120F2E720
:1014D8000120F0E7000400588C80C111002800F0BA
:1014E800278170B50C460546934B1B6803F007032C
:1014F8008B422DD32B6813F0020F3FD12B6813F0CA
:10150800200F53D12B6813F0400F6AD12B6813F0CA
:10151800040F40F083802B6813F0080F40F0978089
:101528002B6813F0010F00F0DE806B68022B00F0CF
:10153800A880032B00F0AD80002B40F0B2804FF064
:10154800B042126812F0020F40F0B1800120EEE0C4
:10155800794A136823F007030B431360FFF703F975
:101568000646754B1B6803F00703A342C2D0FFF77A
:10157800FAF8801B0228F4D90320D8E0AB684FF0B2
:10158800B0418A6822F0F00213438B60FFF7EBF852
:1015980006464FF0B0439B6813F4803FAED1FFF787
:1015A800E2F8801B0228F4D90320C0E06B694FF0F1
:1015B800B041D1F8082122F0F0021343C1F80831F4
:1015C800FFF7D1F806464FF0B043D3F8083113F4CB
:1015D800003F97D1FFF7C7F8801B0228F3D90320F3
:1015E800A5E0A9694FF0B042D2F8083123F00F0303
:1015F80043EA1113C2F80831FFF7B5F806464FF071
:10160800B043D3F8083113F4803F7FF47FAFFFF77E
:10161800AAF8801B0228F2D9032088E0EB684FF073
:10162800B0418A6822F4E06213438B60FFF79BF8AD
:1016380006464FF0B0439B6813F4003F7FF46BAF4E
:10164800FFF791F8801B0228F3D903206FE029697E
:101658004FF0B042936823F4605343EAC1039360A8
:10166800FFF781F806464FF0B0439B6813F4802FCC
:101678007FF456AFFFF777F8801B0228F3D90320D1
:1016880055E04FF0B042126812F4003F0FD101202C
:101698004DE04FF0B042126812F0007F07D10120F0
:1016A80045E04FF0B042126812F4806F42D04FF01C
:1016B800B0418A6822F0030213438B60FFF753F8A6
:1016C80006464FF0B0439B6803F00C036A68B3EB1F
:1016D800820F08D0FFF747F8801B41F28833984201
:1016E800EFD9032023E0144B1B6803F00703A34240
:1016F80015D9114A136823F0070323431360FFF732
:1017080032F805460C4B1B6803F00703A34206D0CA
:10171800FFF729F8401B0228F4D9032007E0FFF758
:1017280091FB064B1860064B186800F03BFB70BD38
:10173800012070470120FAE7004000580800002007
:101748000400002008B5FFF77DFB4FF0B0439B680D
:10175800C3F30223024A52F82330D84008BD00BF21
:10176800E056000808B5FFF76DFB4FF0B0439B68E3
:10177800C3F3C223024A52F82330D84008BD00BF41
:10178800E056000870B50446036813F4803F40F043
:10179800AB800025236813F0010F0AD062684FF070
:1017A800B041D1F8883023EA124392B21343C1F80A
:1017B8008830236813F0020F0AD0A2684FF0B041B6
:1017C800D1F8883023EA124392B21343C1F8883023
:1017D800236813F0200F09D023694FF0B041D1F8E6
:1017E800882022F440621343C1F88830236813F438
:1017F800007F0CD0206A4FF0B041D1F88830020C3D
:10180800120423EA020343EA0043C1F8883023683C
:1018180013F4806F0CD0606A4FF0B041D1F8883073
:10182800020C120423EA020343EA0043C1F8883099
:10183800236813F4006F0CD0A06A4FF0B041D1F8C0
:101848008830020C120423EA020343EA0043C1F879
:101858008830236813F0400F40F09E80236813F00F
:10186800800F40F0AA80236813F4807F40F0B68090
:10187800236813F0100F0ED0E3684FF0B041D1F891
:10188800882022F440721343C1F88830E368B3F526
:10189800807F00F0B480236813F4004F0FD0236BCF
:1018A8004FF0B041D1F8882022F040421343C1F8EC
:1018B8008830236B1BB9CB6843F08073CB602368F7
:1018C80013F4804F0ED0E36A4FF0B041D1F888206E
:1018D80022F040521343C1F88830E36AB3F1005F45
:1018E80000F09280284670BD00F0E0F9FEF73BFF5B
:1018F8000546484B1B6813F4807F06D1FEF733FF7B
:10190800401B0228F5D9032500E00025002D7FF4AF
:1019180041AF4FF0B043D3F8903003F44073626B9B
:101928009A4224D04FF0B043D3F8902022F440726A
:10193800D3F8901041F48031C3F89010D3F8901088
:1019480021F48031C3F89010C3F8902012F0020FF0
:101958000FD1002D7FF41EAF636B4FF0B041D1F86B
:10196800902022F440721343C1F8903012E700220D
:10197800ECE7FEF7F8FE06464FF0B043D3F8903098
:1019880013F0020FE5D1FEF7EEFE801B41F288331B
:101998009842F1D90325DCE763694FF0B040D0F8ED
:1019A8008820190901F47F2122EA01021B0103F4AE
:1019B8007F231343C0F8883050E7A3694FF0B04045
:1019C800D0F88820190901F47F2122EA01021B01BD
:1019D80003F47F231343C0F8883044E7E3694FF0EA
:1019E800B040D0F88820190901F47F2122EA0102C9
:1019F8001B0103F47F231343C0F8883038E7CB6812
:101A080043F08073CB6046E7CB6843F48033CB6008
:101A180068E700BF0004005870B5002369E08568D6
:101A28005E000324B44025EA0405CC68B4402C4386
:101A38008460446824EA0C0C4C68C4F300149C408D
:101A480044EA0C04446065E0DD08083550F8256078
:101A580003F007044FEA840C0F2404FA0CF426EA76
:101A6800040E0C6904FA0CF444EA0E0440F825400C
:101A780067E0022400E0002404FA0EF42C430CF181
:101A8800020C4B4D45F82C404A4C2568D44325EAB6
:101A98000206D1F804C01CF4801F01D042EA0506F2
:101AA800444D2E606D6804EA0506D1F804C01CF4A4
:101AB800001F01D042EA05063E4D6E60D5F8805001
:101AC80004EA0506D1F804C01CF4803F01D042EABC
:101AD8000506384DC5F88060D5F884502C404E680E
:101AE80016F4003F01D042EA0504324AC2F88440A5
:101AF80001330A6832FA03F458D04FF0010C0CFA9B
:101B080003FC1CEA0202F3D04C6804F00304013C15
:101B1800012C84D94C6804F00304032C0CD0C4684D
:101B28005D004FF0030C0CFA05FC24EA0C0C8C68E1
:101B3800AC4044EA0C04C4604C6804F00304022C72
:101B480082D004684FEA430E4FF0030C0CFA0EFCE7
:101B580024EA0C0C4C6804F0030404FA0EF444EA7A
:101B68000C0404604C6814F4403FC1D04FEA930C55
:101B78000CF102050E4C54F8255003F003044FEA0B
:101B8800840E072404FA0EF425EA0405B0F1904FF8
:101B98003FF471AF084CA04206D004F58064A0421F
:101BA8003FF467AF072467E7012465E770BD00BF0E
:101BB8000000014000080058000400480AB1816193
:101BC8007047816270470346002834D090F825207A
:101BD800D2B2022A06D00422C263002280F824204E
:101BE8000120704701680A6822F00E020A60816CC1
:101BF8000A6822F480720A6001680A6822F0010209
:101C08000A60426C02F01C01006C01228A404260AA
:101C1800DA6C196D51605A6D32B1116821F4807116
:101C280011609A6DD96D5160012283F8252000203A
:101C380083F8240070470120704708B590F82530D4
:101C4800DBB2022B03D00423C363012008BD026862
:101C5800136823F00E0313600268136823F001036E
:101C68001360826C136823F480731360436C03F071
:101C78001C02016C012393404B60C36C026D5A60D7
:101C8800436D33B11A6822F480721A60836DC26D95
:101C98005A60012380F82530002380F82430836BB4
:101CA80013B198470020D1E70020CFE7024A136814
:101CB80043F480731360704700040058024B18689F
:101CC80000F4C060704700BF00040058074AD3689A
:101CD80023F4E0631B041B0C000200F4E0600343E0
:101CE80043F0BF6343F40033D360704700ED00E076
:101CF80000B5194BDB68C3F30223C3F1070CBCF131
:101D0800040F28BF4FF0040C03F1040EBEF1060FB8
:101D180018D9033B4FF0FF3E0EFA0CFC21EA0C01E8
:101D280099400EFA03F322EA0303194300280BDB58
:101D38000901C9B200F1604000F5614080F8001364
:101D48005DF804FB0023E5E700F00F000901C9B2C4
:101D5800024B1954F4E700BF00ED00E014ED00E079
:101D6800002807DB00F01F02400901239340024AC4
:101D780042F82030704700BF00E100E00138B0F1C0
:101D8800807F0BD24FF0E0235861054AF02182F89A
:101D980023100020986107221A61704701207047BC
:101DA80000ED00E0114B1B780BB90120704710B50E
:101DB8000446FFF747F80D4B1A784FF47A73B3FBD4
:101DC800F2F3B0FBF3F0FFF7D9FF68B90F2C01D994
:101DD80001200AE0002221464FF0FF30FFF788FF7C
:101DE800034B1C60002000E0012010BD0000002013
:101DF8000400002010B50320FFF768FFFFF722F862
:101E0800064B18600020FFF7CDFF10B101242046D3
:101E180010BD0446FEF780FDF9E700BF080000206A
:101E2800034B1B78034A11680B441360704700BFCB
:101E38000000002048010020074B1A6822F04002E9
:101E48001A6040F4417018604FF4B8525A601A682A
:101E580042F040021A6070470000015830B583B064
:101E680000284ED004468379002B3BD00223A3716F
:101E78004FF0B042D2F8943023F40043C2F89430C3
:101E8800214B1B68C3EBC303C3F34C43642202FB1F
:101E980003F30193019B4BB3019B013B01934FF06B
:101EA800B043D3F8943013F4804FF3D10025174B87
:101EB800D3F8902042F40042C3F890201449D1F896
:101EC800902042F48052C1F890209A6842F400624F
:101ED8009A604FF400629A615DB10123A3712846AC
:101EE80003B030BD4371FEF725FCBFE70125A560AF
:101EF800DDE72068FFF7A0FF012323710023A3601B
:101F0800EBE70125EBE700BF0800002000040058BC
:101F18000008005882B002461A4B1B68C3EBC30383
:101F2800C3F34C43642000FB03F30193019B4BB1C3
:101F3800019B013B0193144B9B6813F0020FF5D0F2
:101F4800002001E0012090600F4B19730D4B1B68B6
:101F5800C3EBC303C3F34C43642101FB03F30193B5
:101F6800019B43B1019B013B0193074B9B6813F015
:101F7800010FF5D001E001209060034BDB6802B04F
:101F8800704700BF080000200000015882B00246D8
:101F98001C4B1B68C3EBC303C3F34C43642000FB17
:101FA80003F30193019B4BB1019B013B0193164B3A
:101FB8009B6813F0020FF5D0002001E0012090602B
:101FC800114B4FF0FF0C83F80CC00E4B1B68C3EB92
:101FD800C303C3F34C434FF0640C0CFB03F30193AE
:101FE800019B43B1019B013B0193074B9B6813F095
:101FF800010FF5D001E001209060034BDB680B7006
:1020080002B07047080000200000015882B0134B4E
:102018001B6803EB4303C3F34B43642202FB03F344
:10202800019306E002238360012002B07047134247
:1020380012D00B4B5B6913F0040300D00123019A03
:10204800002AEFD0019A013A0192054A526912F02A
:102058000202ECD00122EAE70020E6E708000020AF
:102068000004005800B583B00379012B04D0FFF7B2
:10207800CDFF03B05DF804FB0D4B1B6803EB430376
:10208800C3F34F3301930B4AD2F8903023F4004343
:10209800C2F89030019B013B0193019B002BF9D1C1
:1020A800044AD2F8903043F40043C2F89030DEE797
:1020B80008000020000400582DE9F0410546807909
:1020C8005FFA80F8B8F1010F3ED10C4617461E465C
:1020D8006B79012B3BD001236B710223AB7128462E
:1020E800FFF7C0FF1B4AD2F8903023F40043C2F830
:1020F80090300D212846FFF70DFF210A2846FFF7EB
:1021080009FFE1B22846FFF705FF002405E0395D25
:102118002846FFF7FFFE0134A4B2B442F7D30D4AB4
:10212800D2F8903043F40043C2F890302846FFF7C5
:102138006DFFAB680BB94FF000080123AB710023AA
:102148006B714046BDE8F0814FF00208F9E74FF0A7
:102158000208F6E7000400582DE9F04106468079A8
:102168005FFA80F8B8F1010F41D10C4615461F46B9
:102178007379012B3ED0012373713046FFF772FF4C
:102188001E4AD2F8903023F40043C2F890301D2143
:102198003046FFF7BFFE210A3046FFF7BBFEE1B22B
:1021A8003046FFF7B7FE00213046FFF7B3FE0024A4
:1021B80006E029463046FFF7E9FE01350134A4B2AE
:1021C800BC42F6D30D4AD2F8903043F40043C2F82B
:1021D80090303046FFF71AFFB3680BB94FF000088C
:1021E8000123B371002373714046BDE8F0814FF0BD
:1021F8000208F9E74FF00208F6E700BF00040058AC
:102208002DE9F843054680795FFA80F9B9F1010FA5
:1022180043D1884617461E466B79012B40D00123CF
:102228006B712846FFF71EFFB8F1840F05D0B8F18F
:10223800940F02D000232B7101E001232B711A4A5D
:10224800D2F8903023F40043C2F890304146284633
:10225800FFF760FE002405E0395D2846FFF75AFEC7
:102268000134A4B2B442F7D30F4AD2F8903043F401
:102278000043C2F89030B8F1840F0AD1AB680BB9AB
:102288004FF000090123AB7100236B714846BDE88C
:10229800F8832846FFF7BAFEF0E74FF00209F5E7A2
:1022A8004FF00209F2E700BF000400582DE9F041A1
:1022B800064680795FFA80F8B8F1010F39D10C46EB
:1022C80015461F467379012B36D0012373713046AA
:1022D800FFF7C8FE1A4AD2F8903023F40043C2F838
:1022E800903021463046FFF715FE00213046FFF7B3
:1022F80011FE002406E029463046FFF747FE013567
:102308000134A4B2BC42F6D30D4AD2F8903043F45B
:102318000043C2F890303046FFF778FEB3680BB937
:102328004FF000080123B371002373714046BDE8E4
:10233800F0814FF00208F9E74FF00208F6E700BF16
:102348000004005830B583B005460023ADF80430CA
:10235800022301AA1221FFF7A9FF9DF804409DF866
:10236800053043EA042413F0010F26D114F0020FBC
:1023780027D114F0040F28D114F0080F29D114F034
:10238800100F2AD114F0200F2BD114F0400F2CD1AC
:1023980014F0800F06D014F4807F2AD0012128463B
:1023A80001F0FEFB14F4007F28D1022301AA19468C
:1023B8002846FFF725FF03B030BD284601F0D8FBBB
:1023C800D4E7284601F0DCFBD3E7284601F00CFCF3
:1023D800D2E7284601F010FCD1E7284601F014FCAA
:1023E800D0E7284601F0F8FBCFE7284601F0D0FBFC
:1023F800CEE70021284601F0D3FBD3E7284601F0B9
:10240800E1FBD2E72DE9F041054680795FFA80F8D3
:10241800B8F1010F38D10C4617461E466B79012BCF
:1024280035D001236B712846FFF71CFE194AD2F8F4
:10243800903023F40043C2F890300E212846FFF76D
:1024480069FD21462846FFF765FD002405E0395D52
:102458002846FFF75FFD0134A4B2B442F7D30D4A12
:10246800D2F8903043F40043C2F890302846FFF782
:10247800CDFDAB680BB94FF000080123AB71002309
:102488006B714046BDE8F0814FF00208F9E74FF064
:102498000208F6E7000400582DE9F0410646807965
:1024A8005FFA80F8B8F1010F3DD10C4615461F467A
:1024B8007379012B3AD0012373713046FFF7D2FDAF
:1024C8001C4AD2F8903023F40043C2F890301E2101
:1024D8003046FFF71FFD21463046FFF71BFD002160
:1024E8003046FFF717FD002406E029463046FFF77F
:1024F8004DFD01350134A4B2BC42F6D30D4AD2F8E1
:10250800903043F40043C2F890303046FFF77EFD28
:10251800B3680BB94FF000080123B371002373713E
:102528004046BDE8F0814FF00208F9E74FF0020895
:10253800F6E700BF00040058026852E8003F23F4A1
:10254800907342E800310029F6D1026802F10803CD
:1025580053E8003F23F0805323F00103083242E898
:1025680000310029F1D1C36E012B06D02023C0F819
:1025780088300023C36603677047026852E8003F4B
:1025880023F0100342E800310029F6D1EEE7704746
:1025980008B5026852E8003F23F0400342E80031E2
:1025A8000029F6D12023C0F8843000234367FFF7C1
:1025B800EEFF08BD704708B5806A0023A0F85E30BA
:1025C800A0F85630FFF7F6FF08BD704770B504460F
:1025D8000168CB6908688D6840F60F021A4008D177
:1025E80013F0200F05D010F0200F34D115F0805FC4
:1025F80031D12AB1954A2A4033D1954E304230D153
:10260800E26E012A00F0C38013F4801F03D015F492
:10261800800F40F05B8113F0800F07D010F0800F1F
:1026280040F05B8115F4000F40F0578113F0400F24
:1026380003D010F0400F40F0578113F4000F03D07F
:1026480010F0804F40F0548113F0807F02D00028B2
:10265800C0F2528170BD236F002BFBD020469847F3
:10266800F8E713F0010F09D010F4807F06D0012697
:102678000E62D4F88C103143C4F88C1013F0020F9A
:102688000BD015F0010F08D0216802260E62D4F88D
:102698008C1041F00401C4F88C1013F0040F0BD017
:1026A80015F0010F08D0216804260E62D4F88C10AA
:1026B80041F00201C4F88C1013F0080F0BD010F091
:1026C800200F00D13AB1226808211162D4F88C2079
:1026D8000A43C4F88C2013F4006F0CD010F0806FFC
:1026E80009D022684FF400611162D4F88C2042F0BE
:1026F8002002C4F88C20D4F88C20002AAAD013F029
:10270800200F09D010F0200F02D115F0805F03D000
:10271800236F0BB120469847D4F88C2023689B6818
:1027280013F0400F02D112F0280F29D02046FFF7EE
:1027380003FF23689B6813F0400F1DD0226802F145
:10274800080353E8003F23F04003083242E8003111
:102758000029F3D1E36F5BB13E4A9A63E06FFFF75C
:102768006CFA00283FF476AFE06F836B984771E707
:102778002046FFF71FFF6DE72046FFF71BFF69E7BD
:102788002046FFF717FF0023C4F88C3062E713F0E8
:10279800100F3FF439AF10F0100F3FF435AF10238E
:1027A8000B6223689B6813F0400F55D0E26F1368E3
:1027B8005B689BB2002B3FF44DAFB4F85C109942B4
:1027C8007FF648AFA4F85E3013681B6813F0200F3B
:1027D80031D1226852E8003F23F4807342E8003187
:1027E8000029F6D1226802F1080353E8003F23F0DC
:1027F8000103083242E800310029F3D1226802F1CE
:10280800080353E8003F23F04003083242E8003150
:102818000029F3D12023C4F888300023E366226816
:1028280052E8003F23F0100342E800310029F6D1B6
:10283800E06FFFF7C8F9B4F85C10B4F85E309BB2EB
:10284800C91A89B22046FFF7C0FE03E7010000104D
:1028580020010004BF250008B4F85C10B4F85E300D
:102868009BB2C91A89B2B4F85E309BB2002B3FF410
:10287800F1AE00293FF4EEAE226852E8003F23F49F
:10288800907342E800300028F6D1226802F108036C
:1028980053E8003F23F0805323F00103083242E855
:1028A80000300028F1D12023C4F888300023E366E3
:1028B8002367226852E8003F23F0100342E8003003
:1028C8000028F6D12046FFF780FEC3E64FF48013B8
:1028D8000B62204600F0E0FABCE6636F002B3FF481
:1028E800B9AE20469847B5E62046FFF751FEB1E657
:1028F800204600F0D3FAADE6204600F0CEFAA9E66D
:1029080070B504460168836802691343426913433A
:10291800C269134308689D4A024013430B6022684A
:10292800536823F44053E1680B435360A16922685C
:10293800974B9A4201D0236A1943936823F06E4358
:1029480023F430630B4393602268D36A23F00F03A8
:10295800616A0B43D36223688E4A93421CD08E4A25
:10296800934231D08A4A93424BD0102288498B42F5
:1029780068D0E069B0F5004F00F0A580082A00F2A1
:102988001F81DFE812F0D300F500D1001D01F80027
:102998001D011D011D01FB004FF0B042D2F8882037
:1029A80002F0030242F44032A2F54032032A09D869
:1029B800DFE802F002043C060122D7E70422D5E74B
:1029C8000822D3E71022D1E74FF0B042D2F888208E
:1029D80002F00C0242F44022A2F540220C2A0ED842
:1029E800DFE802F0070D0D0D090D0D0D260D0D0D7B
:1029F8000B000022BAE70422B8E70822B6E7102243
:102A0800B4E74FF0B042D2F8882002F44062B2F541
:102A1800006F0FD005D87AB1B2F5806F0ED10422BD
:102A2800A4E7B2F5406F0BD108229FE702229DE789
:102A380002229BE7022299E7002297E7102295E7F6
:102A4800102293E7082A00F29C80DFE802F0089A37
:102A58003A9A379A9A9A05004FF4004004E0FEF734
:102A680071FE002800F08F80626A4C4B33F8122008
:102A7800B0FBF2F3656805EB4501994200F29480DA
:102A8800B3EB053F00F29280002633463146FDF74E
:102A98006FFB090241EA106100026B08C0182A4660
:102AA800334641F10001FDF763FBA0F540723C4B52
:102AB8009A427DD82368D860304650E0FEF73AF94C
:102AC800CFE73848D0E7082A74D8DFE802F00727AC
:102AD80005732A7373730B00324803E0FEF732FE66
:102AE800002869D0626A2D4B33F81230B0FBF3F03E
:102AF8006268530803EB4000B0FBF2F080B2A0F12B
:102B080010024FF6EF739A4258D820F00F03C0F323
:102B1800420018432368D860002020E0FEF722FE18
:102B2800DEE7FEF707F9DBE71E4803E0FEF70AFEDB
:102B3800002847D0626A194B33F81230B0FBF3F023
:102B4800636800EB5300B0FBF3F080B2A0F1100211
:102B58004FF6EF739A4237D82368D86000200123D4
:102B6800A4F86A30A4F8683000232367636770BD4F
:102B7800FEF7F8FDDCE7FEF7DDF8D9E74FF4004093
:102B8800D8E70120EBE70020E9E700BFF369FFCFB2
:102B9800008000400038014000440040785600089A
:102BA800FFFC0F000024F4000120D8E70120D6E73D
:102BB8000120D4E70120D2E70020D0E70120CEE7AA
:102BC8000120CCE70020CAE70120C8E7836A13F098
:102BD800010F06D00268536823F40033C16A0B431F
:102BE8005360836A13F0020F06D00268536823F417
:102BF8008033016B0B435360836A13F0040F06D0D4
:102C08000268536823F48023416B0B435360836A43
:102C180013F0080F06D00268536823F40043816B51
:102C28000B435360836A13F0100F06D00268936851
:102C380023F48053C16B0B439360836A13F0200F16
:102C480006D00268936823F40053016C0B43936029
:102C5800836A13F0400F0AD00268536823F4801384
:102C6800416C0B435360436CB3F5801F0BD0836AF0
:102C780013F0800F06D00268536823F40023C16C58
:102C88000B43536070470268536823F4C003816C98
:102C98000B435360EBE72DE9F84305460F4616460C
:102CA8009946DDF820802C68E46937EA04030CBFF4
:102CB8004FF0010C4FF0000CB44557D1B8F1FF3F6D
:102CC800F1D0FDF750FDA0EB090040452FD8B8F131
:102CD800000F2CD02B681A6812F0040FE3D0DA69C1
:102CE80012F4006FDFD04FF400621A622A6852E8CB
:102CF800003F23F4D07342E800310029F6D12A6856
:102D080002F1080353E8003F23F00103083242E8C8
:102D180000310029F3D12023C5F88430C5F8883064
:102D2800C5F88C30002385F8803003201FE02A681E
:102D380052E8003F23F4D07342E800310029F6D16D
:102D48002A6802F1080353E8003F23F00103083220
:102D580042E800310029F3D12023C5F88430C5F8B2
:102D68008830002385F88030032000E00020BDE88B
:102D7800F88330B583B004460023C0F88C30FDF7E3
:102D8800F2FC05462268126812F0080F0FD123687A
:102D98001B6813F0040F18D12023C4F88430C4F83A
:102DA80088300020E06684F8800003B030BD6FF002
:102DB8007E430093034600224FF400112046FFF79C
:102DC8006AFF0028E3D00320EFE76FF07E4300930B
:102DD8002B4600224FF480012046FFF75CFF0028B5
:102DE800DAD00320E1E778B310B50446D0F8843090
:102DF8000BB32423C4F884302268136823F001033A
:102E080013602046FFF77CFD012813D0A36ABBB9E5
:102E18002268536823F4904353602268936823F030
:102E28002A0393602268136843F001031360204665
:102E3800FFF79FFF10BD80F88030FDF7EDFCD8E765
:102E48002046FFF7C3FEE3E701207047436E2BB926
:102E58000123A0F86A30A0F86830704730B40368DE
:102E68009A68C2F342629968490F094D6B5CDB00AE
:102E7800084C615C93FBF1F3A0F86A30AB5CDB00B3
:102E8800A25C93FBF2F3A0F8683030BC704700BF37
:102E9800985600089056000870477047704790F899
:102EA8008030012B18D0012380F880302423C0F80B
:102EB800843003681A68196821F00101196022F04A
:102EC80000520023436601680A602022C0F884206B
:102ED80080F88030184670470220704738B590F85F
:102EE8008030012B1DD00446012380F88030242334
:102EF800C0F8843003681D681A6822F001021A605D
:102F08000268936823F0604319439160FFF79EFFBE
:102F180023681D602023C4F88430002084F88000D2
:102F280038BD0220FCE738B590F88030012B1DD061
:102F38000446012380F880302423C0F884300368D5
:102F48001D681A6822F001021A600268936823F06B
:102F5800606319439160FFF779FF23681D602023A0
:102F6800C4F88430002084F8800038BD0220FCE7D3
:102F78007047000010B51346EFF3108472B60A4686
:102F880001460348FFF73CF984F3108810BD00BFE1
:102F98009000002010B51346EFF3108472B60A466D
:102FA80001460348FFF782F984F3108810BD00BF7B
:102FB80090000020014B1878704700BF5201002094
:102FC80000B583B08DF8070001220DF107018020BC
:102FD800FFF7D0FF9DF807302BB9054B01221A7077
:102FE80003B05DF804FB024B02221A70F8E700BF39
:102FF8005201002000B583B00A4B04221A70C0F3B6
:1030080007438DF80430C0F307238DF805308DF899
:103018000600032201A98320FFF7ACFF03B05DF887
:1030280004FB00BF5201002000B583B00A4B052203
:103038001A70C0F307438DF80430C0F307238DF8E6
:1030480005308DF80600032201A98220FFF792FFC0
:1030580003B05DF804FB00BF5201002000B583B047
:10306800C0F307438DF80030C0F307238DF8013013
:103078008DF80200C1F307438DF80330C1F307232D
:103088008DF804308DF80510062269469420FFF764
:1030980071FF034B06221A7003B05DF804FB00BFF2
:1030A8005201002008B500221146C520FFF762FF33
:1030B800014B07221A7008BD5201002008B50022F2
:1030C8001146D120FFF756FF08BD08B5002211466A
:1030D800D220FFF74FFF08BD00B583B08DF8070079
:1030E80001220DF107019F20FFF744FF03B05DF8AF
:1030F80004FB00B583B0FDF718FC01280BD00023B2
:103108008DF8073001220DF107019620FFF732FFF5
:1031180003B05DF804FB01238DF80730F2E700B532
:1031280083B000F0400300F02002134300F01002C7
:10313800134300F00802134300F00402134300F0A5
:103148000202134300F0010018438DF80700012222
:103158000DF107018920FFF70DFF03B05DF804FBAF
:1031680000B583B01C4B98420DD9E1238DF804308B
:10317800E9238DF80530022201A99820FFF7FAFE0D
:1031880003B05DF804FB154B984206D9D7238DF898
:103198000430DB238DF80530EDE7114B984206D952
:1031A800C1238DF80430C5238DF80530E3E70D4BB6
:1031B800984206D975238DF8043081238DF805309F
:1031C800D9E7094B9842D6D96B238DF804306F2381
:1031D8008DF80530CFE700BF00E9A43580F8A932A3
:1031E8008044E52D000B6B1B40FC541900B583B0DF
:1031F8008DF804008DF805108DF806208DF807303D
:1032080004220DEB02019520FFF7B4FE03B05DF830
:1032180004FB00B583B04FEA102C8DF800C08DF880
:103228000100080A8DF802008DF80310110A8DF8C4
:1032380004108DF805201A0A8DF806208DF807303D
:10324800082269461046FFF795FE03B05DF804FBB7
:1032580000B583B000F007008DF80400C1F3074300
:103268008DF80530C1F307238DF806308DF8071067
:1032780004220DEB02019720FFF77CFE03B05DF8F6
:1032880004FB000010B582B00446124B1B78D3B182
:10329800114A00236006E109FCF76AFF030E8DF866
:1032A8000430C0F307438DF80530C0F307238DF8C9
:1032B80006308DF8070004220DEB02018620FFF787
:1032C80059FE02B010BDFFF74BFF024B01221A70E6
:1032D800DEE700BF500100200048E801014B1878E4
:1032E800704700BF5301002000B583B08DF804007B
:1032F8008DF80510022201A98F20FFF73BFE03B0CD
:103308005DF804FB10B582B000248DF80740012257
:103318000DF10701C020FFF73DFE9DF80730C3F30C
:10332800420262F34304C3F3021363F30614204614
:1033380002B010BD00B583B0012201A91520FFF726
:1033480029FE9DF804004042401003B05DF804FBDC
:1033580010B582B00446032201A91420FFF71AFE13
:10336800FFF7BCFF207048B1012818D014220021B3
:10337800204601F05CFF0F2323700EE09DF8043017
:1033880023719DF805305B425B10A3719DF80630F0
:103398005B425B1063710023A36002B010BD9DF80F
:1033A80004305B425B1023739DF9053002339B1098
:1033B80063739DF806305B425B10A373014B1B6877
:1033C8002361EAE74C01002010B582B00024ADF873
:1033D8000440022201A91720FFF7DCFD9DF8043004
:1033E80063F308249DF80530C3F3801262F3861452
:1033F800C3F3401262F34514C3F3001262F30414DA
:10340800C3F3C00262F3C304C3F3800262F382040D
:10341800C3F3400262F3410463F30004204602B0A0
:1034280010BD000000B583B08DF8071001230DF121
:10343800070201460248FEF73FFE03B05DF804FBB1
:103448009000002010B582B004460C4B05221A707B
:10345800972140F6AC00FFF7E5FFC4F307438DF86A
:103468000430C4F307238DF805308DF80640032295
:1034780001A98220FFF77EFD02B010BD5201002095
:1034880000B583B08DF8070001220DF10701A020D7
:10349800FFF770FD9DF807303F2B0FD95B0800221E
:1034A80002E09B08511CCAB21F2BFAD8D900C9B236
:1034B8001144C9B240F20670FFF7B4FF03B05DF8DB
:1034C80004FB000000B583B08DF80700C3B2094AB9
:1034D800137043B101220DF107018A20FFF74AFD5D
:1034E80003B05DF804FB002140F2AC60FFF79AFFDF
:1034F800F0E700BF5301002010B582B004463E4BF0
:1035080093E8030002AB03E9030020783B4B1B78E8
:10351800984206D12378032B2CD8DFE803F0054224
:103528002D54FFF7CFFFF5E76268354BB3FBF2F395
:103538001A0C8DF800201A0A8DF801208DF8023037
:10354800237B8DF80330637B8DF80430A1682D4A06
:1035580000234806C909FCF70BFE030C8DF805305B
:10356800030A8DF806308DF80700082269468B207B
:10357800FFF700FD02B010BD2269214BB3FBF2F347
:103588001A0C8DF800201A0A8DF801208DF80230E7
:10359800237D8DF80330042269468B20FFF7EAFC6F
:1035A800E8E7237E8DF80030637E8DF80130A37E36
:1035B8008DF80230E37E8DF80330042269468B20B3
:1035C800FFF7D8FCD6E762680D4BB3FBF2F31A0C91
:1035D8008DF800201A0A8DF801208DF80230237B1F
:1035E8008DF80330637B8DF80430052269468B2003
:1035F800FFF7C0FCBEE700BF2856000853010020B3
:103608000000093D0048E80100B583B001460123E8
:103618000DF107020348FEF79FFD9DF8070003B070
:103628005DF804FB9000002010B50446FDF77DF915
:10363800012800D010BD40F62310FFF7E5FF00F089
:10364800F901214340F62310FFF7ECFEF2E70000F2
:1036580008B508B1164A1060FDF75EF80220FFF7BA
:10366800E3FF0020134B1870FFF7AAFCFDF75BF986
:1036780001280FD0202140F61110FFF7D3FE20219A
:1036880040F61210FFF7CEFEFDF747F90A4B01226C
:103698001A7008BD4021FFF7DBFD002140F611102C
:1036A800FFF7C0FE4FF07F00FFF739FDECE700BFE2
:1036B80054010020500100205201002010B582B0B2
:1036C80004460020FDF72BF90220FFF7ADFF04F0B8
:1036D800040004F00203184304F0010404438DF8C5
:1036E800074001220DF107018420FFF743FC024B3C
:1036F80000221A7002B010BD5201002010B5044615
:10370800FFF7ECFD00B110BD4FF4D760FFF77CFF69
:1037180000F0FE00C4F3002101434FF4D760FFF727
:1037280081FEE1B240F2B960FFF77CFEEBE770B5CD
:1037380082B00C461646012835D040F6D800FFF76F
:1037480063FF40F01E01C9B240F6D800FFF76AFED9
:103758000120FDF7ECF80546844200DD44B2142D43
:1037680054D0112D5CD00E2D64D0012300220721E6
:103778000420FFF73BFD641B163464B214F1090FF3
:1037880001DA6FF00804382140F6E700FFF74AFE37
:103798008DF804408DF80560022201A98E20FFF7FC
:1037A800E9FB02B070BD0020FDF7C1F80546844270
:1037B80000DD44B20E2D15D00A2D1DD001231A4666
:1037C80000210620FFF712FD641B0E3464B214F1C9
:1037D800110F01DA6FF01004182140F6E700FFF727
:1037E80021FED5E701231A4600210420FFF7FEFC3D
:1037F800641B0E3464B2EAE701231A460021184616
:10380800FFF7F4FC641B0D3464B2E0E701230022E7
:1038180005210320FFF7EAFC641B163464B2ADE708
:103828000123002203210220FFF7E0FC641B163469
:1038380064B2A3E70123002202210846FFF7D6FC61
:10384800641B0E3464B299E730B583B005460C4664
:10385800022201A91320FFF79DFBFFF73FFD012876
:1038680007D09DF804302B709DF80530237003B005
:1038780030BD054B1B78DBB2012BF2D140F2027050
:10388800FFF7C2FE2870EFE75101002010B513467C
:10389800EFF3108472B60A4601460348FEF70CFCA3
:1038A80084F3108810BD00BF9000002008B50146C1
:1038B80008224FF4D860FFF7E9FF002008BD00B5E3
:1038C80083B0030A8DF804308DF80500FFF706FD74
:1038D80010B103B05DF804FB022201A940F2BC60FC
:1038E800FFF7D4FFF5E700B583B0030A8DF804307D
:1038F8008DF80500FFF7F2FC10B103B05DF804FB8A
:10390800022201A940F2BE60FFF7C0FFF5E7000000
:1039180010B584B0044601AB334A07CA03C31A7012
:103928002078324B1B78984206D12378032B2AD86B
:10393800DFE803F005443F05FFF7C4FDF5E7637AC8
:10394800F12B22D0F22B2AD06288110A8DF80410AC
:103958008DF8052022798DF8062062798DF80720E8
:10396800A2798DF80820E2798DF80920227A8DF85D
:103978000A208DF80B30A37A8DF80C30092201A9A2
:103988008C20FFF7F7FA04B010BD4FF6FF70FFF771
:1039980096FF48F20500FFF7A6FF0223D4E741F699
:1039A8000F50FFF78CFF41F22100FFF79CFF062321
:1039B800CAE7237B8DF804300122E0E7E3891A0A7D
:1039C8008DF804208DF80530237C094A13708DF892
:1039D8000630637C8DF80730A37C8DF80830E37CD3
:1039E8008DF809300622CAE7305600085301002036
:1039F8005101002010B51346EFF3108472B60A4641
:103A080001460348FEF7A8FB84F3108810BD00BFE9
:103A18009000002070B582B00026019640F6E200C2
:103A2800FFF7F2FD054600F0FE0140F6E200FFF761
:103A3800F9FC40F6E500FFF7E7FD044600F07F01DA
:103A480040F6E500FFF7EEFC6FF07F40FFF7ECFA79
:103A580004220DEB020140F61900FFF7CBFF3046B8
:103A6800FFF7AEFA294640F6E200FFF7DBFC2146F5
:103A780040F6E500FFF7D6FC019802B070BD0000E3
:103A880010B51346EFF3108472B60A460146034890
:103A9800FEF7B8FC84F3108810BD00BF900000202A
:103AA80008B50A4601460020FFF7EAFF08BD10B531
:103AB8001446FFF7F5FF2046FFF79CFA10BD0000FB
:103AC80010B51346EFF3108472B60A460146034850
:103AD800FEF7E2FC84F3108810BD00BF90000020C0
:103AE80070B582B006460C46154600238DF807309F
:103AF8000DF107012046FFF7A7FE2278AA4202D956
:103B0800012002B070BD31469DF80700FFF7D8FFCD
:103B18000020F6E710B5012903D00120FCF7FFFECD
:103B280010BD04460846012C03D0022CF6D1032010
:103B3800F4E70420FFF778FD0220F6E738B50446DD
:103B4800FCF7EFFE48B102280DD1022502222146DA
:103B58002846FFF7ECFD284638BD0F2C01DC01256F
:103B6800F4E70225F2E70125F0E70120704700009D
:103B780008B5024B1B680120984708BD5401002076
:103B880008B5024B1B680220984708BD5401002065
:103B980008B5024B1B684020984708BD5401002017
:103BA80008B511B1012905D008BD054B1B68802057
:103BB8009847F9E7024B1B684FF480709847F3E782
:103BC8005401002008B5034B1B684FF40070984758
:103BD80008BD00BF5401002008B5024B1B68202017
:103BE800984708BD5401002008B5024B1B68042003
:103BF800984708BD5401002008B5024B1B680820EF
:103C0800984708BD5401002008B5024B1B681020D6
:103C1800984708BD54010020014688B10023152BA0
:103C28000DD81846074A52F833208A4202D8013381
:103C3800DBB2F4E7034B03EBC00000797047FEE703
:103C48001F2070474057000870B582B006460C46E2
:103C58001D4B019340F60700FFF7D6FCC0F3C103E4
:103C680008336B4413F8045C00F00703013B05FAC2
:103C780003F3164DB5FBF3F5B5FBF6F2072A21D988
:103C8800012000FB02F2032A00D8042000FB05F5FE
:103C98004FF4D660FFF7B8FC000200F4706640F2FB
:103CA800B160FFF7B1FC304310F4006F03D06FEA46
:103CB80000506FEA10506D0905FB00F0C01120603C
:103CC80002B070BD0220DCE704080A0C0048E801D5
:103CD8004FF0FF3070474FF0FF3070474FF0FF3024
:103CE80070477047002070470020704770474FF0BA
:103CF800FF3070474FF0FF3070477047704770478C
:103D0800012070470A2807D8DFE800F0200B1117B8
:103D18001A1C1E06080E14000020704742F6B10057
:103D2800704743F60950704745F26110704747F6EF
:103D3800122070474AF2C32070474FF22440704760
:103D480004487047044870470448704741F6846047
:103D5800704700BF48E8010090D0030020A1070089
:103D68009DF80410D20053B908200244183241B11A
:103D780002239DF80000184402EBC00070470020A1
:103D8800F3E70023F5E770B59DF810409DF818504B
:103D98000432A1F1050CBCF1010F32D918B9A1F117
:103DA8000B06012E35D901282FD000269DF814E0E6
:103DB8004FEACE0E8DB34FF0100CE6448800AEEB00
:103DC800810E6CB34FF0000CF444062904D90CF1B1
:103DD800080C0EB1881E8000BCF1000F23DB844460
:103DE8000CF1FF3C9CFBF0FC02FB0C3303F10C00D4
:103DF800062901D803F10E008000013002398840FD
:103E080070BD0B2BCAD80C23C8E70C2903D0002699
:103E1800CCE70126CAE70126C8E74FF0000CCCE73B
:103E28004FF0140CD0E74FF0000CD8E7F0B585B090
:103E38000E4615461946BDF828209DF82C309DF8E9
:103E480030709DF834C048B1012812D001250024F3
:103E58002C44601EB0FBF5F005B0F0BDCDF804C0F1
:103E680000972846FFF77CFF4FF47A7400FB04F4B0
:103E7800EEE7CDF808C00197009313460A46294695
:103E88003046FFF780FF4FF47A7400FB04F4034BCD
:103E9800985DFFF737FF0546DAE700BFF0570008DF
:103EA80008B5034B1B6813B15B6803B1984708BD9D
:103EB8005802002008B5FFF7F3FF08BD08B5034B0B
:103EC8001B6813B1DB6803B1984708BD580200208E
:103ED80008B5FFF7F3FF08BD70B5002305E0CC5C1B
:103EE800E443CC540024C45401339A42F7DC002341
:103EF8001C4613E003F1070C24E0EDB24D5D45FAD2
:103F08000EFE0EF0010E84EA0E04C6F3C70504FA8D
:103F18000CFC465D46EA0C0C00F805C0B3EBC20F7A
:103F280026DA5D4203F0070C05F0070558BFC5F116
:103F3800000C5FFA8CFECEF1070E5FFA8EFE9C46EF
:103F4800002BD7DB4FEAEC0501335E4203F0070C88
:103F580006F0070658BFC6F1000C5FFA8CFCCCF1DE
:103F6800070C5FFA8CFC1E46002BC6DADE1DC4E780
:103F7800A30143EAC4135BB21CB920210B43835449
:103F880070BD0021FAE7000008B5012804D00A4BEB
:103F98005B7D012B08D008BD084B19700648C17716
:103FA8000E30FFF7B5FCF6E7044B1970024881752F
:103FB8000E30FFF7ADFCEEE7740200200C00002085
:103FC80008B5FFF721FB08BD08B5FFF72BFA08BDB8
:103FD80008B5FFF7B3FD0121FFF79CFDFFF76EF869
:103FE80008BD000008B50121074B93F85600FFF7FC
:103FF80091FD2D214FF4D760FFF7E6FFFFF765F835
:104008000248FEF7F7FF08BD74020020FFFF0F000B
:1040180070B504460D4601EB4003094EB365002315
:104028001A464FF6FF710846FFF7F3F8002196F895
:104038005600FFF76FFD29462046FFF70FF870BDC1
:104048007402002038B50446FFF74CFE012815D04D
:1040580000231A4640F262210846FFF7DAF884B9CD
:104068000F4C0021A16594F85600FFF753FD6378C3
:1040780083B16FF07F40FFF7E5F938BDFFF73AFEEF
:10408800EDE7084D2146284601F0D8F9284601F009
:104098008FF9E5E7024B98688001FFF7D3F9ECE761
:1040A800740200205C02002008B50020FEF788FF9B
:1040B80008BD08B5FEF77EFF052807D0072807D0FA
:1040C800042801D0002008BD0220FCE70120FAE7FF
:1040D8000320F8E730B583B000238DF8073000934C
:1040E800A14BB3F85430202B29D81AB2002A00F07B
:1040F8001381013B1F2B00F20F81DFE813F05900F9
:1041080071000D01DF000D010D010D0109010D0107
:104118000D010D010D010D010D010D010D010D0127
:104128000D010D010D010D010D010D010D010D0117
:104138000D010D010D010D010D010D011201B3F568
:10414800807F00F0A1801ED9B3F5007F40F0E480A5
:10415800FEF730FF042800F0A480FEF72BFF0528A7
:1041680040F0DA80814801F0C9F80020FEF728FF06
:104178007F4B1B68002B00F0CF80DB68002B00F022
:10418800CB809847C8E0402B00F0DE80802B40F0C1
:10419800C3800020FEF714FF754B1B68002B00F04E
:1041A800BB809B69002B00F0B78000209847B3E0E4
:1041B800704801F0A3F80020FEF702FFFFF794FD16
:1041C80001280AD06A4B1B68002B00F0A5801B68E9
:1041D800002B00F0A18098479EE0FFF78EFDF1E7E5
:1041E800624801F08BF8604B5B7803B3FF220DF156
:1041F80007016148FFF774FC6048FFF7A9F85C4BBA
:104208001B68002B00F088809C68002C00F08480DC
:10421800554B93F82430012B1DD1534A92F9313074
:1042280092F930209DF807105348A04774E0002009
:10423800FEF7C6FE002140F60210FFF7F3F840F63D
:104248004410FFF7E1F940F00201C9B240F644100A
:10425800FFF7E8F8CAE7444C6946E06BFFF7F4FC5F
:10426800434B1B689D68009B03F5FA73444A82FB25
:104278000312DB17C3EBA2135BB294F929209DF854
:1042880007103D48A84747E00020FEF799FE384B45
:104298001B68002B40D09B69002B3DD0012098471C
:1042A8003AE0344801F02AF80020FEF789FE304B46
:1042B8001B688BB35B687BB398472DE02A4B996DDD
:1042C80051B3C1F3074140F60310FFF77DFE264CBA
:1042D80094F8591040F60410FFF776FE94F8581039
:1042E80040F60510FFF770FE40F60210FFF768FE73
:1042F80040F00101C9B240F60210FFF765FE002246
:10430800A265134640F262210846FEF782FF03E0E9
:10431800FFF7E8FC012801D003B030BDFFF7EEFC41
:10432800FAE7124800F0EAFF0F4B5B7843B1104BF5
:104338001B68002BF0D0DB68002BEDD09847EBE72B
:104348000020FEF73DFEF2E7074B5B7843B1084BD0
:104358001B68002BE0D01B69002BDDD09847DBE7FA
:104368000020FEF72DFEF2E7740200205C02002018
:1043780058020020D0020020580100209802002096
:10438800D34D621008B5034BA3F85400FFF7A2FE03
:1043980008BD00BF7402002008B5FFF7E6FB033034
:1043A80008BD08B5FFF726FB08BD08B5FFF76EFA8C
:1043B80008BD08B5FEF7BEFF00B208BD38B50D460A
:1043C8004FF47A7402FB04F4FEF75CFF2846FFF70B
:1043D800B5FB0121FFF79EFBFEF770FE044D214659
:1043E800284601F02BF8284600F0E2FF38BD00BF50
:1043F800D002002008B5FEF745FF08BD08B500212A
:10440800074B93F85600FFF785FB00231A464FF435
:10441800C0710846FEF7FDFEFEF744FE08BD00BF6A
:104428007402002038B50446FFF75CFC012815D05B
:1044380000231A4640F262210846FEF7EAFE84B9D4
:104448000F4C0021A16594F85600FFF763FB6378D1
:1044580083B16FF07F40FEF7E7FD38BDFFF74AFCF8
:10446800EDE7084D2146284600F0E8FF284600F011
:104478009FFFE5E7024B98688001FEF7D5FDECE762
:10448800740200205C02002008B54FF00400FFF71A
:1044980015F90220FCF769F908BD000070B582B073
:1044A80005460C4600231A4640F201210846FEF74D
:1044B800B0FE584E012196F85600FFF72BFB3378D3
:1044C800012B03D196F85130062B13D040F6890002
:1044D800FFF79AF840F00401C9B240F68900FEF7E8
:1044E800A1FF4C4B1B78042B19D8DFE803F0230EEF
:1044F8002348550040F68900FFF786F800F0FB01D5
:1045080040F68900FEF78EFFEBE74248C4770E308D
:10451800FFF7FEF9002221462846FFF7C8FA3E4C6D
:104528003C4B5968204600F089FF204600F040FFC8
:1045380002B070BDFFF7D6FB01280AD03548847554
:104548000E30FFF7E5F9002221462846FFF7AFFABB
:10455800E5E70DF1070221462846FFF7C8FB0028CA
:10456800E6D12C489DF8073083750E30FFF7D0F957
:1045780000229DF807102846FFF799FACFE725484B
:104588000223837384760E30FFF7C2F90022214696
:104598002846FFF78CFAC2E7224629461F48FFF74C
:1045A8009BFC1C4E0223B373651CEDB2B57606F175
:1045B8000E00FFF7ADF90021F120FFF705FD0021FE
:1045C800F020FFF701FDB36C642B19D0E121F32033
:1045D800FFF7FAFC0421F220FFF7F6FCE1008C1C3F
:1045E800090AF420FFF7F0FC04F0FE01F520FFF7BC
:1045F800EBFC6FF07F4229460848FFF758FA8EE730
:104608007021F320FFF7E0FC1D21F220FFF7DCFC0E
:10461800E4E700BF74020020D00200205801002007
:1046280008B500231A4619461846FEF7F2FDFFF7AB
:10463800F1F908BD10B504461C4B1870FFF75FFB75
:10464800052C04D8DFE804F00A11031D242B0320ED
:10465800FEF738FF154B00225A7310BD0020FEF7F5
:1046680031FF124B00225A73F7E70120FEF72AFFA9
:104678000E4B5A7B187B8242EFD0587300F0DEFA5B
:10468800EBE70220FEF71EFF084B00225A73E4E70F
:104698000220FEF717FF054B00225A73DDE70020C2
:1046A800FEF710FF014B00225A73D6E77402002070
:1046B8002DE9F04186B005460C4617461E460021F6
:1046C80004910591FFF70DFB032D00F25681DFE8F9
:1046D80015F07A00DD0040010400A27C082A00F2EF
:1046E8005981A16804A800F097FD2368002B00F009
:1046F800548142F21072934223D8AE4B03229A732C
:1047080083F838202268DA63E27C83F844200225A3
:104718006368DA00A74B1A8204229A74A27CD2003A
:10472800DA7400221A75A37D022B18D0237D022B80
:1047380015D0627D9F4BDA75A27D1A76227D5A7557
:1047480026E09C4B00259D7383F838502268DA6375
:10475800E27C83F84420226892081A64D8E7627DD4
:1047680002F10F03DBB2012B01D9012A28D10194F0
:1047780001238DF80C30904A904B196801A8FFF777
:10478800ADFAE8B98B4B00221A760121D9755A7512
:10479800FFF78AFC2846FFF74DFF864D05F13800E4
:1047A800FEF7AAFE05F10E00FFF7B2F804A8FFF71E
:1047B8007DF8208AFEF7A2FFA089FFF794F8DCE0D5
:1047C8004FF0FF30E3E02368002B00F0E980A27C83
:1047D800082A00F2E880A16804A800F01DFD754BC6
:1047E800002283F838202168D963E17C83F84410DB
:1047F800A16919649A736168C900198204219974BE
:10480800A17CC900D9741A75A37D022B0AD0237D17
:10481800022B07D0627D674BDA75A27D1A76227D5E
:104828005A7518E0627D02F10F03DBB2012B01D942
:10483800012A28D101238DF80C3001945E4A5F4B80
:10484800196801A8FFF74AFAE8B95A4B00221A7604
:104858000121D9755A75FFF727FC0020FFF7EAFEFA
:10486800544D05F13800FEF747FE05F10E00FFF73D
:104878004FF804A8FFF71AF8208AFEF73FFFA0892F
:10488800FFF731F879E04FF0FF3080E0494B012223
:1048980083F83820227883F85020627883F85120F2
:1048A800A27883F85220E378012B33D0022B36D03C
:1048B8005BB3404D4FF0010885F80E80A388AB83A9
:1048C800A379AB77E37985F82030237A85F821300E
:1048D800FFF7EAFB4046FFF7ADFE05F13800FEF7AB
:1048E8000BFE05F10E00FFF713F895F85130062B73
:1048F80024D040F68900FEF787FE40F00401C9B2D3
:1049080040F68900FEF78EFD37E02A4B002283F837
:104918005320CEE7274B012283F85320C9E7237899
:104928000B3BDBB2012B04D9224B002283F8532026
:10493800BFE7204B012283F85320BAE740F68900ED
:10494800FEF762FE00F0FB0140F68900FEF76AFD03
:1049580013E02368013BB3F57A7F27D20320FFF7E2
:1049680069FE1448022380F83830236883641623CC
:1049780080F84C303830FEF7BFFD3846FFF7DEF8D8
:104988000C4C84F85600FFF7B1F96660002006B0B9
:10499800BDE8F0814FF0FF30F9E74FF0FF30F6E760
:1049A8004FF0FF30F3E74FF0FF30F0E74FF0FF3004
:1049B800EDE700BF74020020D0020020580200205A
:1049C8002DE9F04186B006460C4615461F460023E1
:1049D80004930593FFF785F905B10027003D18BF3B
:1049E8000125934B5D7036B1012E00F08F800020B9
:1049F80006B0BDE8F081A368002B00F00D81E368E4
:104A0800002B00F00C81A27F082A00F20B8121699B
:104A180004A800F001FC2068003818BF0120FEF748
:104A28005BFB834D002685F83860A368EB6394F838
:104A3800203085F844306068FFF7EEF885F84500C7
:104A4800AE73E368DB002B82E37FAB74A37FDB00EC
:104A5800EB7494F821302B7594F8223073B961699E
:104A6800A97594F82420022A12D0022B10D094F8A9
:104A780023006F49C8750A764B7523E0022B03D0D3
:104A88006B4AFF219175ECE7694AFF219175E8E7C8
:104A980094F8232002F10F03DBB2012B01D9012A7C
:104AA80031D100238DF80C300294624A624B1968A8
:104AB80001A8FFF713F930BB5D4B00221A760121DC
:104AC800D9755A75FFF7F0FA0020FFF7B3FD584D76
:104AD80005F13800FEF710FD05F10E00FEF718FF8E
:104AE80004A8FEF7E3FEA08BFEF708FE208BFEF776
:104AF800FAFE4FF4FA5303FB07F7A368B7FBF3F783
:104B0800AF60002074E74FF0FF3071E7238E002B71
:104B180000F08B8094F83230012B55D04FF0FF080D
:104B2800A06A003818BF0120FEF7D6FAF8B2FEF7DF
:104B3800A7FC3F4B012283F8382094F82C2083F8F7
:104B4800502094F82D2083F8512094F82E2083F8D3
:104B5800522094F82F30012B3ED0022B41D0B3B312
:104B6800334D0126AE73238EAB8394F83230AB7786
:104B780085F81F8094F8343085F8203094F8353063
:104B880085F82130FFF790FA3046FFF753FD05F11D
:104B98003800FEF7B1FC05F10E00FEF7B9FE95F8F6
:104BA8002130B3422DD040F23670FEF72DFD40F093
:104BB8000401C9B240F23670FEF734FC1C4B4FF6C4
:104BC800FF729A60002013E794F81480A8E7184B46
:104BD800002283F85320C3E7154B012283F85320A2
:104BE800BEE794F82C300B3BDBB2012B04D9104BF9
:104BF800002283F85320B3E70D4B012283F853209A
:104C0800AEE740F23670FEF7FFFC00F0FB0140F221
:104C18003670FEF707FCD1E74FF0FF30E8E64FF0BB
:104C2800FF30E5E64FF0FF30E2E64FF0FF30DFE619
:104C3800740200205C0200205802002010B50446CF
:104C48000E4B187358730120FFF7F4FC54B134214C
:104C58004FF4E860FEF7E6FB442140F24170FEF7AE
:104C6800E1FB10BD14214FF4E860FEF7DBFB2421C3
:104C780040F24170FEF7D6FBF3E700BF7402002054
:104C88002DE9F04F83B004460D4691461F46BDF806
:104C980038609DF83C809DF840A0FFF722F8012C71
:104CA80056D0042C00F0A38064B12846FEF746FFD6
:104CB800574C84F85600FFF719F8149B636003B04B
:104CC800BDE8F08F524C4FF0000B84F838B00C9BC5
:104CD800E3630B2384F844303846FEF79DFF84F8DD
:104CE8004500C4F8409084F80EB0F60026820423EC
:104CF800A3741823E37484F814B088F0010884F8C6
:104D08001580BAF1000F1FD0F222E275404C012342
:104D18002376FFF7C9F90020FFF78CFC04F138006F
:104D2800FEF7EAFB04F10E00FEF7F2FD394A6B4686
:104D380092E8030083E803001846FEF7B7FD40F247
:104D4800FF10FEF7DBFCB0E7314B0122DA75DDE737
:104D58002F4A012382F838300C9BDBB282F850309E
:104D68002D49C95D82F851109DF8341082F852100F
:104D78001FB90C9A0B3A012A2BD9012F26D0244AA5
:104D8800002182F85310224A01219173053BDBB2BE
:104D98008B4223D91E4B9E831D4C84F81E801F4BCB
:104DA8001B78E37784F820A09DF84C3084F82130F4
:104DB800FFF77AF90120FFF73DFC04F13800FEF710
:104DC8009BFB04F10E00FEF7A3FD6EE70C9A0C2A7C
:104DD800D5D10F4A012182F85310D4E70B2E03D8FE
:104DE80013460C229A83D7E7094B9E83D4E7042005
:104DF800FFF720FC0648022380F838300C9B8364B8
:104E0800162380F84C303830FEF776FB4DE700BFAC
:104E1800740200203C560008F05700080C000020DF
:104E28002DE9F04F87B004460E4615460193BDF8AC
:104E38004490BDF848A09DF84C709DF854B09DF87A
:104E48006480AB4B83F80180FEF74BFFB8F1000F8D
:104E580001D04FF0000A6FB19DF85020A54B1A7091
:104E6800012C00F0D280052C08D0002C7CD007B093
:104E7800BDE8F08F9F4BFF221A70F1E70120FEF783
:104E88002BF99B4C002784F83870E563092384F8D4
:104E980044304FF4487323643046FEF7BDFE84F86F
:104EA8004500A7734FEAC909A4F81090A774102306
:104EB800E374277567758F4B1B78A3750123E3751A
:104EC80027760520FFF7B6FB04F13800FEF714FB40
:104ED80004F10E00FEF71CFD02AB874A92E80300BE
:104EE80083E803001846FEF7E1FC40F2FF10FEF7E6
:104EF80005FC40F6B800FFF763F800F0EF0140F654
:104F0800B800FFF761F8042140F6B900FFF75CF834
:104F180040F69B00FFF754F800F0E30141F0080168
:104F280040F69B00FFF750F840F2D160FFF748F8D1
:104F380000F0E70141F0180140F2D160FFF744F8B2
:104F480040F2AC60FFF73CF800F08F0141F05001EF
:104F580040F2AC60FFF738F84FF4FA5303FB0AFA53
:104F6800BAFBF5F5A56082E70020FEF7B5F8604CBE
:104F78004FF0000884F83880E5630B2384F8443048
:104F88003046FEF749FE84F8450084F80E804FEA63
:104F9800C909A4F810900423A3741823E37484F8AF
:104FA800148087F001076775524B1B78A375BBF116
:104FB800000F26D0F222E2754D4C01232376FFF72D
:104FC80073F80020FFF736FB04F13800FEF794FA77
:104FD80004F10E00FEF79CFC484A04AB92E803007B
:104FE80083E803001846FEF761FC40F2FF10FEF765
:104FF80085FB4FF4FA5303FB0AFABAFBF5F5A560F3
:1050080035E73B4B0122DA75D6E70020FEF764F856
:10501800374A012382F83830EBB282F850303849E9
:10502800895D82F85110019982F852101EB9A5F1D4
:105038000B02012A41D9012E3DD02D4A002182F8C8
:1050480053102B4A01219173053BDBB28B4239D9AE
:10505800274BA3F81C90264CA777264B1B78E377A1
:1050680084F820B09DF8603084F82130FFF71CF8F0
:105078000120FFF7DFFA04F13800FEF73DFA04F1EA
:105088000E00FEF745FC5FFA8AF0FEF7F9F994F88E
:105098002130012B21D040F23670FEF7B5FA40F0EE
:1050A8000401C9B240F23670FEF7BCF9104B4FF656
:1050B800FF729A60DBE60C2DBFD10D4A012182F800
:1050C8005310BEE7B9F10B0F03D813460C229A838D
:1050D800C1E7074BA3F81C90BDE740F23670FEF716
:1050E80093FA00F0FB0140F23670FEF79BF9DDE71A
:1050F800740200200C000020445600083C560008AA
:10510800F0570008F0B58BB004460F4616461D460A
:10511800FEF7CAFF0020FFF78DFA2046FFF76AF96D
:105128000123099300240894079406940594049491
:105138000394029403230193009723464FF41672B5
:1051480039462046FFF76CFE2046FFF76BF9FFF75C
:1051580023F9FBF70AFB00F091F80446204600F01B
:1051680097F8A84206D20020FFF723F9B042F5DDF0
:10517800002400E00124FEF797FF20460BB0F0BDA5
:1051880070B582B01D4B18601D4D00246C706C60AA
:10519800AC60AC651B48FEF75BFA6C732C73FDF7CB
:1051A800A8FF21462046FEF79FF804222146012049
:1051B800FEF7BDFA234622464FF6FF710846FEF772
:1051C80028F8FFF761F9104E0094104B22464FF073
:1051D800FF31304600F034F80D4D00940D4B224657
:1051E8004FF0FF31284600F02BF8304600F086F8E3
:1051F800284600F083F802B070BD00BF58020020B6
:10520800740200208D430008D0020020BD3E000833
:105218005C020020D93E000804E011F8012B00F8D8
:10522800012B1A46531E9BB2002AF6D1704702E0A2
:1052380000F8011B1A46531E9BB2002AF8D170478A
:10524800A8B1F8B517461E46044693B10025056077
:10525800094B5B6A08469847606025726572A572BB
:10526800E660069B2361E77265612846F8BD012068
:1052780070470120FAE700BF4C56000810B5034CF0
:10528800E3699847A36A984710BD00BF4C560008C9
:1052980070B50646054DEB69984704466B6A30467B
:1052A8009847AB6A201A984770BD00BF4C56000853
:1052B800054B1B6800E05B691BB18342FBD10120F1
:1052C80070470020704700BFE8020020F8B5044688
:1052D800094E336A98470546012323722768B66941
:1052E800B0472844874202D2B04705442560024BA4
:1052F8009B6820689847F8BD4C56000868B310B5FD
:105308000246EFF3108472B6154B196801238372B5
:10531800E1B100234372884206D00B46B3B19342F1
:1053280011D019465B69F9E70B72486920B10C4B3B
:105338001860FFF7CBFF09E00A4BDB689847084B7A
:1053480000221A6002E05B6923B14B6184F3108884
:10535800002010BD00234B61F8E70120704700BF13
:10536800E80200204C560008094B1A68536901E00E
:105378001A465B69516939B11968D0F800C08C4583
:10538800F6D850614361704750610023436170470C
:10539800E802002008B5054B1B680BB100221A7201
:1053A8004361024B1860FFF791FF08BDE802002037
:1053B800F8B5002836D00446FFF77AFF002834D124
:1053C800657A002D33D1EFF3108672B66768194BF2
:1053D8001B6A9847874200D338462060002323720F
:1053E80001226272A372144B1B6883B1114B9B6933
:1053F80098472368184420600F4B1B681B68984225
:105408000CD22046FFF7C6FF86F310880BE0094B45
:105418001B6998472046FFF7BDFFF5E72046FFF7D1
:10542800A3FFF1E701252846F8BD0125FBE7012583
:10543800F9E700BF4C560008E802002098B110B503
:1054480004460A4B5B6A0846984760602046FFF7A7
:105458002FFF08B9002010BD2046FFF74FFF204658
:10546800FFF7A6FFF7E70120704700BF4C5600087A
:105478000D488546FDF77CFD0C480D490D4A002373
:1054880002E0D458C4500433C4188C42F9D30A4AF1
:105498000A4C002301E013600432A242FBD300F05F
:1054A80011F8FBF731F8FEE700800020000000202B
:1054B800100000209058000810000020F002002082
:1054C800FEE7000070B50D4D0D4C641BA4100026BE
:1054D800A64209D10B4D0C4C00F02EF8641BA41009
:1054E8000026A64205D170BD55F8043B9847013601
:1054F800EEE755F8043B98470136F2E78058000874
:105508008058000880580008845800080A449142CE
:1055180000F1FF3300D1704710B511F8014B03F8C3
:10552800014F9142F9D110BD02440346934200D184
:10553800704703F8011BF9E7F8B500BFF8BC08BCD1
:105548009E467047F8B500BFF8BC08BC9E46704739
:105558000001020304050607080900010203040507
:1055680006070809000102030405060708090001E7
:1055780002030405060708090001020304050607DB
:1055880008090001020304050607080900010203CF
:1055980004050607080900010203040506070809AF
:1055A80000010203040506070809000102030405B7
:1055B8000607080900010203040506070809000197
:1055C800020304050607080900010203040506078B
:1055D800080900010203040506070809000102037F
:1055E800040506070809000102030405060708095F
:1055F8000001020304050607080900010203040567
:1056080006070809120024003000000006000C00FC
:10561800100000000000000001000000020000006F
:105628000000000000000000000000000000000072
:1056380000000000C194C10000000000B227000073
:105648000000000085070008000000008907000826
:105658008D070008910700089507000899070008BA
:105668009D070008A1070008A5070008A90700086A
:10567800010002000400060008000A000C001000E7
:105688002000400080000001080402040801010114
:1056980001010103070100000100000003000000F0
:1056A80005000000010000000100000006000000E5
:1056B8000A000000200000000200000004000000B2
:1056C80008000000100000004000000080000000FA
:1056D80000010000000200000000000000000000BF
:1056E80000000000000000000100000002000000AF
:1056F8000300000004000000A0860100400D030024
:10570800801A060000350C0040420F0080841E00FD
:1057180000093D0000127A000024F40000366E01F2
:105728000048E801006CDC020000000000000000F6
:105738000000000000000000C01200001F00000070
:10574800A816000017000000841C00000F000000CD
:10575800E42500001E000000B42D00001600000023
:10576800083900000E0000002C4C00001D0000004D
:10577800685B000015000000747200000D00000056
:10578800589800001C00000034B700001400000006
:10579800E8E400000C000000783101001B00000064
:1057A800686E01001300000034CA01000B000000FD
:1057B800286202001A00000040DB0200120000000C
:1057C8003C9303000A000000C0C204001900000056
:1057D80060B3050011000000382007000900000030
:1057E80020A10700000000000405060089510008F8
:1057F800BB4000083D460008FD4300080D51000865
:1058080029460008294E0008894C0008093D00086F
:10581800353E0008A544000891440008B14000083E
:105828002D44000805440008C5430008BB43000890
:10583800D13F0008C93F0008B3430008AB43000844
:10584800913F0008454C0008A1430008DD400008CE
:105858004D40000819400008ED3F0008D93F0008F6
:10586800C9490008B9460008D93C0008DF3C0008CF
:0858780030A9FF7F01000000D0
:085880005D01000800000000BA
:085888003901000800000000D6
:10589000010000001000000000093D00FF000000B2
:040000050800547922
:00000001FF
