:020000040800F2
:100000000080002001320008890800088B080008E1
:100010008D0800088F080008910800080000000003
:10002000000000000000000000000000930800082D
:1000300095080008000000009708000899080008CB
:100040005132000851320008513200085132000884
:100050005132000851320008513200085132000874
:100060005132000851320008513200085132000864
:100070005132000851320008513200085132000854
:100080005132000851320008513200085132000844
:100090005132000851320008513200085132000834
:1000A0005132000851320008513200085132000824
:1000B0005132000851320008513200085132000814
:1000C0005132000851320008513200085132000804
:1000D000A108000851320008B10800085132000898
:1000E00051320008513200085132000851320008E4
:1000F00051320008513200085132000851320008D4
:1001000051320008513200085132000851320008C3
:1001100051320008513200085132000851320008B3
:1001200051320008513200085132000851320008A3
:080130005132000851320008B1
:1001380010B5054C237833B9044B13B10448AFF319
:1001480000800123237010BD200000200000000063
:10015800AC32000808B5034B1BB103490348AFF3A1
:10016800008008BD0000000024000020AC32000818
:1001780053B94AB9002908BF00281CBF4FF0FF3106
:100188004FF0FF3000F074B9ADF1080C6DE904CE02
:1001980000F006F8DDF804E0DDE9022304B070475A
:1001A8002DE9F047089E0D4604468846002B4DD1A0
:1001B8008A42944668D9B2FA82F252B101FA02F33D
:1001C800C2F1200120FA01F10CFA02FC41EA03080D
:1001D80094404FEA1C45210CB8FBF5FE1FFA8CF73A
:1001E80005FB1E8341EA03430EFB07F199420BD935
:1001F8001CEB03030EF1FF3080F01E81994240F2A0
:100208001B81AEF1020E63445B1AA4B2B3FBF5F096
:1002180005FB103344EA034400FB07F7A7420AD959
:100228001CEB040400F1FF3380F00881A74240F280
:10023800058164440238E41B40EA0E4000211EB1E7
:10024800D4400023C6E90043BDE8F0878B4208D9B3
:10025800002E00F0EE800021C6E900050846BDE842
:10026800F087B3FA83F100294AD1AB4202D3824224
:1002780000F2F980841A65EB030301209846002EEA
:10028800E2D0C6E90048DFE702B9FFDEB2FA82F23F
:10029800002A40F09180A1EB0C054FEA1C471FFA99
:1002A8008CFE0121B5FBF7F307FB1350250C45EA3B
:1002B80000450EFB03F0A84208D91CEB050503F125
:1002C800FF3802D2A84200F2CB8043462D1AA4B2CE
:1002D800B5FBF7F007FB105544EA05440EFB00FE9A
:1002E800A64508D91CEB040400F1FF3502D2A64547
:1002F80000F2BB802846A4EB0E0440EA03409EE7C8
:10030800C1F120078B4022FA07FC4CEA030C20FAC3
:1003180007F405FA01F31C43FD404FEA1C4900FAB3
:1003280001F3B5FBF9F8200C1FFA8CFE09FB1855F0
:1003380040EA054508FB0EF0A84202FA01F20BD983
:100348001CEB050508F1FF3A80F08880A84240F2CE
:100358008580A8F1020865442D1AA4B2B5FBF9F00E
:1003680009FB105544EA054500FB0EFEAE4508D9C9
:100378001CEB050500F1FF346CD2AE456AD9023892
:10038800654440EA0840A0FB0294A5EB0E05A5428F
:10039800C846A64656D353D05EB1B3EB080265EB08
:1003A8000E0505FA07F722FA01F3CD401F43C6E907
:1003B80000750021BDE8F087C2F1200320FA03F19F
:1003C8000CFA02FC25FA03F395400D434FEA1C474B
:1003D8001FFA8CFEB3FBF7F107FB11302B0C43EA35
:1003E800004301FB0EF0984204FA02F408D91CEB12
:1003F800030301F1FF382FD298422DD90239634403
:100408001B1AADB2B3FBF7F007FB103345EA0345FF
:1004180000FB0EF3AB4208D91CEB050500F1FF38D1
:1004280016D2AB4214D902386544ED1A40EA0141AC
:1004380038E73146304607E78646E5E61846FAE6E5
:100448004B45A9D2B9EB020864EB0C0E0138A3E7BF
:100458004046EAE7204694E74146D1E7D0467BE7A5
:10046800023B654432E7084609E76444023842E73C
:10047800704700BF70B588B00024039404940594B5
:10048800069407944FF0B043DA6C42F00202DA6443
:10049800DA6C02F002020292029ADA6C42F001026D
:1004A800DA64DB6C03F001030193019B1C4D01220C
:1004B8004FF49071284601F0F5FB012241F2030147
:1004C8004FF0904001F0EEFB224660214FF0904043
:1004D80001F0E8FB22460421284601F0E3FB4FF433
:1004E80092730393012604960594069403A928465B
:1004F80001F006FB41F26303039304960594069406
:1005080003A94FF0904001F0FBFA80230393049471
:10051800059403A94FF0904001F0F2FA08B070BDBD
:100528000004004872B6FEE708B51848184B036087
:100538004FF41653436000238360C36003610C22A9
:10054800426183614FF40042C2614FF4006101626D
:10055800436208238362826302F0AEF970B9002116
:100568000A4802F049FA58B90021084802F069FA25
:1005780040B9064802F0FDF930B908BDFFF7D2FFCF
:10058800FFF7D0FFFFF7CEFFFFF7CCFFC801002031
:100598000038014008B51248124B03604FF0004381
:1005A800436000238360C3600361042242610376D1
:1005B800437683760122C26180F8203043628362E9
:1005C80080F82C304FF4805202634363836380F8D1
:1005D8003C30C36400F076FA00B908BDFFF7A2FF0B
:1005E8003C0000200024014008B51748174B036061
:1005F8004FF41653436000238360C36003610C22E9
:100608004261836103624362082282624FF40042BE
:100618008263436602F050F970B900210A4802F07B
:10062800EBF958B90021084802F00BFA40B906481E
:1006380002F0C3F930B908BDFFF774FFFFF772FF86
:10064800FFF770FFFFF76EFFA0000020008000405A
:1006580010B59CB00024189419941A941B941594FE
:10066800169417940E940F94109411941294139452
:1006780014943422214601A802F00CFE2F48304B76
:1006880003604FF41663436084600323C36004610E
:100698004461846102F064FB002843D14FF4805325
:1006A800189318A9254802F0A1FC00283CD123483A
:1006B80002F086FB002839D100231593169317936F
:1006C80015A91E4802F012FD002831D160230E93AF
:1006D80002230F930023109304221292139314936E
:1006E8000C220EA9154802F0D7FB18BB0023019372
:1006F80002930393049305934FF4005206920793D1
:10070800089309934FF000720A920B930C930D9380
:1007180001A90A4802F01EFD70B9084800F0A8F9BE
:100728001CB010BDFFF7FEFEFFF7FCFEFFF7FAFE58
:10073800FFF7F8FEFFF7F6FEFFF7F4FE30010020A2
:10074800002C014000B589B000230493059306935B
:10075800079301930293039315484FF08042026078
:100768004BF67F324260836002F5970202F6C1724F
:10077800C2600361836102F0F3FA90B94FF48053C9
:10078800049304A90A4802F031FC60B900230193DC
:10079800039301A9064802F0A9FC30B909B05DF835
:1007A80004FBFFF7BFFEFFF7BDFEFFF7BBFE00BF70
:1007B8007C01002000B59BB04822002108A802F067
:1007C80069FD002301930293039304930593069311
:1007D800079318490A6822F4C06242F400720A605A
:1007E8000A6802F4C0620092009A222208924FF42A
:1007F80080720C920122109240220D921193B02225
:100808001292139308A800F0A1FB78B94F23019323
:10081800002302930393049305930793022101A8ED
:1008280000F0D0FE20B91BB05DF804FBFFF77AFE9C
:10083800FFF778FE0004005810B501F04FFBFFF7F2
:10084800B9FFFFF717FEFFF76FFEFFF7A3FEFFF7ED
:10085800CBFEFFF7FDFEFFF775FF0AE04FF47A7352
:10086800012205492144054801F07DFF0134102C7F
:10087800F4DD0024FBE700BF00000020C8010020D1
:10088800FEE7FEE7FEE7FEE7FEE7704770477047C2
:1008980008B501F039FB08BD08B5024801F090FB26
:1008A80008BD00BFC801002008B5024801F088FB58
:1008B80008BD00BFA0000020704700000268094B77
:1008C8009A4200D0704782B04FF0B0431A6E42F49B
:1008D80000721A661B6E03F400730193019B02B049
:1008E800704700BF0024014070B598B0044600214D
:1008F80013911491159116911791382205A802F0B9
:10090800C9FC2368444A934204D0444A934238D0ED
:1009180018B070BD202305934FF40063099305A810
:1009280000F0A4FF50BB4FF0B043DA6D42F0010273
:10093800DA65DA6D02F001020192019ADA6C42F08E
:100948000102DA64DB6C03F001030093009B0C23C3
:1009580013930223149300241594169408231793D1
:1009680013A94FF0904001F0CBF8224621462620EB
:1009780001F032FA262001F067FAC9E7FFF7D2FD45
:10098800D1E701230593264B069305A800F06EFFD7
:1009980000283ED14FF0B0431A6E42F480421A66E6
:1009A8001A6E02F480420492049ADA6C42F002024F
:1009B800DA64DA6C02F002020392039ADA6C42F00B
:1009C8000102DA64DB6C03F001030293029B40230B
:1009D8001393022614960024159416940725179548
:1009E80013A9104801F08CF84FF480631393149600
:1009F80015941694179513A94FF0904001F080F8BC
:100A080022462146242001F0E7F9242001F01CFAAF
:100A18007EE7FFF787FDBDE7008000400038014012
:100A2800020003000004004882B003680F4A9342A2
:100A380004D0B3F1804F0DD002B070474FF0B043EF
:100A48001A6E42F400621A661B6E03F40063009388
:100A5800009BF1E74FF0B0439A6D42F001029A65AE
:100A68009B6D03F001030193019BE5E7002C014016
:100A780000B587B000230193029303930493059371
:100A880002680F4B9A4202D007B05DF804FB4FF0A2
:100A9800B043DA6C42F00102DA64DB6C03F0010364
:100AA8000093009B4FF40063019302230293049385
:100AB8000123059301A94FF0904001F021F8E3E7E5
:100AC800002C014070B582B000230193002800F08B
:100AD8001B810446836DBBB12268936813F0805F65
:100AE8001FD1936823F0104323F0170343F080537A
:100AF8009360864B1B689B09854AA2FB03239B09CD
:100B080001335B00019309E0FFF7D8FE0023E3659A
:100B180084F85430E0E7019B013B0193019B002BD3
:100B2800F9D12268936813F0805F40F09C80A36D30
:100B380043F01003A365E36D43F00103E36501206F
:100B4800936813F0040300D00123A16D11F0100F76
:100B580040F0D380002B40F0D080A16D21F481714A
:100B680041F00201A165916811F0010F51D1A1680E
:100B7800257E41EA8531657E41EAC531A67E41EA96
:100B88004631256B0DB14FF480552943E56829435B
:100B98002569002D69DB4FF40015294394F82C5082
:100BA80041EA450194F82050012D61D0656A25B1CC
:100BB80005F4E075A66A35432943D56825F4FE3C5B
:100BC8002CF4FF7C4CEA0101D160626802F04042DB
:100BD800E16C42EA010594F83C10012955D02268DD
:100BE80016694C493140294311616268B2F1404F9E
:100BF8000FD0B2F1804F0CD0B2F1004F09D0464D62
:100C0800D5F8081721F4701102F470120A43C5F8D8
:100C180008272568626B696921F007010A436A6140
:100C28002168A56B4A6922F0700242EA05124A61FE
:100C38002269002A33D12268936A63F00F03936212
:100C480023685B6903F00703626B9A424CD0A36D7B
:100C580023F0120343F01003A365E36D43F001038F
:100C6800E36501204EE000206AE725F0004594E79F
:100C780016B941F4803199E7A56D45F02005A565C1
:100C8800E56D45F00105E56590E7216C0A43616C67
:100C98000A43A16C0A432A4342F001059FE7B2F5D3
:100CA800001FCDD1072B08D8226E9900CA4002F048
:100CB8000F020F2A01D00133F4E7012B0ED021686F
:100CC8008B6AE369013B9B0003F01C036FF00F0282
:100CD80002FA03F3226E13438B62B1E72268936A28
:100CE80063F00F039362ABE70023E365A36D23F082
:100CF800030343F00103A36504E0A36D43F010036D
:100D0800A365012002B070BD0120FBE71800002098
:100D1800632D3E0502FCFF1F0020014030B589B05D
:100D280004468C462A4B93E803000690ADF81C1045
:100D380003F1080292E803000490ADF8141001AD25
:100D4800103393E8070085E80700BCF5007F07D05B
:100D5800002314E008AA02EB830353F81C5C1EE08E
:100D68000023022B08D808AA02EB430232F8082C09
:100D7800A242EFD20133F4E7002510E00133022B41
:100D88000CD808AA02EB430232F8102CA242F5D381
:100D980008AA02EB830353F81C5C00E000250D4A07
:100DA800136823F007032B43136001F0B9F80446D6
:100DB800084B1B6803F00703AB4206D001F0B0F8FC
:100DC800001B0228F4D9032000E0002009B030BD40
:100DD800C83200080040005810B5C0F303100C4B8F
:100DE80053F820404FF0B043D3F8083103F00F0315
:100DF800084A52F82300B4FBF0F400F0D3FF014690
:100E08000548A0FB0430800CFFF788FF10BD00BF29
:100E18006C3300080C33000883DE1B434FF0B043EB
:100E28009968DB6803F0030311F00C010AD00C2960
:100E380006D0042947D008293BD00022104626E0D6
:100E4800012BF6D14FF0B0431B6813F008030DD007
:100E58004FF0B0431B6813F0080324D14FF0B042A1
:100E6800D2F894202E4A52F823200EE04FF0B042D8
:100E7800126812F0080F12D14FF0B043D3F8943033
:100E8800C3F30323264A52F82320D1B100204FF0A0
:100E9800B0439B6803F00C030C2B1AD070474FF03B
:100EA800B0421268EEE74FF0B0431B68C3F3031378
:100EB800D8E74FF0B0431A6812F4801206D11948E7
:100EC800E5E71046E3E700221748E0E70022164866
:100ED800DDE74FF0B043DB6803F00303022B09D0D2
:100EE800032B08D14FF0B0431B6813F4801F15D1B2
:100EF8000C4A00E00C4A4FF0B043D868C0F3062013
:100F080000FB02F2D868C0F302100130B2FBF0F225
:100F1800D868400F0130B2FBF0F0BFE7024AEAE7B9
:100F28006C3300080048E8010024F40008B5FFF716
:100F380075FF4FF0B0439B68C3F30313024A52F89E
:100F48002330B0FBF3F008BD0C330008002800F094
:100F58001983F8B504464FF0B0439D6805F00C05B9
:100F6800DE6806F00306036813F0200F00F08F8098
:100F7800EDB10C2D19D0236A002B00F0BC804FF086
:100F8800B042136843F00103136000F0C9FF07463D
:100F98004FF0B0431B6813F0020F65D100F0C0FF9B
:100FA800C01B0228F4D90320F9E2012EE3D14FF047
:100FB800B0431B6813F0020F03D0236A002B00F024
:100FC800E382A06A4FF0B0431B6813F0080F29D0E2
:100FD8004FF0B0431B6803F0F00398422AD9FFF79B
:100FE800FBFE002840F0D2824FF0B0431A6842F06E
:100FF80008021A601A6822F0F002A16A0A431A600D
:10100800616A5A6822F47F4242EA01225A60FFF775
:101018008DFFB04B1860B04B186800F037FF002800
:1010280035D0BCE24FF0B043D3F894301B0903F03D
:10103800F003D2E74FF0B0431A6842F008021A6092
:101048001A6822F0F002A16A0A431A60616A5A68B3
:1010580022F47F4242EA01225A60A06AFFF7BCFEEE
:101068000028D4D001209AE24FF0B0431A6842F029
:1010780008021A601A6822F0F002A16A0A431A608C
:10108800616A5A6822F47F4242EA01225A60236860
:1010980013F0010F51D0082D45D00C2D41D04FF041
:1010A800B042136823F48013A1680B43136063688C
:1010B800B3F5803F63D0B3F5041F65D04FF0B0435C
:1010C8001A6822F480321A601A6822F400121A6030
:1010D8006368002B63D000F023FF07464FF0B0434E
:1010E8001B6813F4003F28D100F01AFFC01B6428C6
:1010F800F4D9032053E24FF0B042136823F0010300
:10110800136000F00DFF07464FF0B0431B6813F063
:10111800020FBCD000F004FFC01B0228F4D9032042
:101128003DE2032EBBD14FF0B0431B6813F4003FE0
:1011380003D06368002B00F02B82236813F0020FA2
:1011480052D0042D3DD00C2D39D02369002B00F04E
:1011580091804FF0B042136843F48073136000F03D
:10116800DFFE06464FF0B0431B6813F4806F77D15B
:1011780000F0D6FE801B0228F4D903200FE2136882
:1011880043F480331360A3E74FF0B0431A6842F486
:1011980000121A601A6842F480321A6098E700F068
:1011A800BFFE07464FF0B0431B6813F4003FC4D09E
:1011B80000F0B6FEC01B6428F4D90320EFE1022E2C
:1011C800C3D14FF0B0431B6813F4806F03D0236979
:1011D800002B00F0DF8161694FF0B042536823F0C3
:1011E800FE4343EA01635360236813F0080F00F0DD
:1011F8008E80A369002B71D04FF0B043D3F89430A0
:10120800E16903F01002914211D003F00302022AAF
:1012180000F0C28113F0010F42D14FF0B042D2F872
:10122800943023F01003E1690B43C2F894304FF077
:10123800B042D2F8943043F00103C2F8943000F081
:101248006FFE06464FF0B043D3F8943013F0020F08
:101258005DD100F065FE801B1128F3D903209EE1C3
:1012680061694FF0B042536823F0FE4343EA0163DB
:101278005360B9E74FF0B042136823F480731360EA
:1012880000F04EFE06464FF0B0431B6813F4806F23
:10129800AAD000F045FE801B0228F4D903207EE185
:1012A8004FF0B042D2F8943023F00103C2F89430E2
:1012B80000F036FE06464FF0B043D3F8943013F0F2
:1012C800020FAAD000F02CFE801B1128F3D90320AE
:1012D80065E100BF18000020140000204FF0B04264
:1012E800D2F8943023F00103C2F8943000F018FECD
:1012F80006464FF0B043D3F8943013F0020F06D0EF
:1013080000F00EFE801B1128F3D9032047E1236863
:1013180013F0040F00F0B180A84B1B6813F4807F12
:1013280010D100F037FD00F0FBFD0646A34B1B680B
:1013380013F4807F06D100F0F3FD801B0228F5D955
:1013480003202CE1E368002B61D0852B01D0052B0D
:1013580007D14FF0B042D2F8903043F00403C2F8FE
:10136800903000F0DDFD06464FF0B042D2F89030E4
:1013780043F00103C2F890304FF0B043D3F89030F7
:1013880013F0020F08D100F0CBFD801B41F2883327
:101398009842F1D9032002E1E368812B01D0852B23
:1013A8001AD100F0BDFD06464FF0B042D2F8903099
:1013B80043F08003C2F890304FF0B043D3F8903038
:1013C80013F4006F59D100F0ABFD801B41F2883354
:1013D8009842F1D90320E2E000F0A2FD06464FF062
:1013E800B042D2F8903023F08003C2F890304FF02A
:1013F800B043D3F8903013F4006F3ED000F090FD66
:10140800801B41F288339842F1D90320C7E000F0ED
:1014180087FD06464FF0B042D2F8903023F08003A3
:10142800C2F890304FF0B043D3F8903013F4006F07
:1014380008D000F075FD801B41F288339842F1D93D
:101448000320ACE000F06CFD06464FF0B042D2F845
:10145800903023F00103C2F890304FF0B043D3F836
:10146800903013F0020F08D000F05AFD801B41F2B3
:1014780088339842F1D9032091E0E36A002B00F009
:101488008D800C2D62D0022B1FD04FF0B0431A680C
:1014980022F080721A60DA6822F00302DA60DA68F1
:1014A80022F0885222F48032DA6000F039FD0446D6
:1014B8004FF0B0431B6813F0007F73D000F030FD8D
:1014C800001B0A28F4D9032069E04FF0B0421368E2
:1014D80023F08073136000F023FD05464FF0B043FE
:1014E8001B6813F0007F2AD14FF0B042D36834490B
:1014F8001940236B606B0343A06B43EA0023E06B46
:101508000343206C0343606C03430B43D3601368AD
:1015180043F080731360D36843F08053D36000F0C6
:10152800FFFC04464FF0B0431B6813F0007F37D12F
:1015380000F0F6FC001B0A28F4D903202FE000F085
:10154800EFFC401B0A28C9D9032028E0012B2BD027
:101558004FF0B043DB6803F00301226B914225D1C1
:1015680003F07002616B8A4222D103F4FE42A16B40
:10157800B2EB012F1ED103F06043626C93421BD182
:1015880000200CE001207047012008E0012006E05F
:10159800012004E0012002E0012000E00020F8BD65
:1015A8000020FCE70020FAE70120F8E70120F6E731
:1015B8000120F4E70120F2E70120F0E700040058D9
:1015C8008C80C111002800F0278170B50C460546B3
:1015D800934B1B6803F007038B422DD32B6813F042
:1015E800020F3FD12B6813F0200F53D12B6813F053
:1015F800400F6AD12B6813F0040F40F083802B68EA
:1016080013F0080F40F097802B6813F0010F00F0DB
:10161800DE806B68022B00F0A880032B00F0AD8001
:10162800002B40F0B2804FF0B042126812F0020F67
:1016380040F0B1800120EEE0794A136823F00703F7
:101648000B43136000F06CFC0646754B1B6803F0F7
:101658000703A342C2D000F063FC801B0228F4D920
:101668000320D8E0AB684FF0B0418A6822F0F0025E
:1016780013438B6000F054FC06464FF0B0439B6860
:1016880013F4803FAED100F04BFC801B0228F4D944
:101698000320C0E06B694FF0B041D1F8082122F077
:1016A800F0021343C1F8083100F03AFC06464FF047
:1016B800B043D3F8083113F4003F97D100F030FC61
:1016C800801B0228F3D90320A5E0A9694FF0B04296
:1016D800D2F8083123F00F0343EA1113C2F8083196
:1016E80000F01EFC06464FF0B043D3F8083113F45F
:1016F800803F7FF47FAF00F013FC801B0228F2D9F3
:10170800032088E0EB684FF0B0418A6822F4E06279
:1017180013438B6000F004FC06464FF0B0439B680F
:1017280013F4003F7FF46BAF00F0FAFB801B022834
:10173800F3D903206FE029694FF0B042936823F48E
:10174800605343EAC103936000F0EAFB06464FF09A
:10175800B0439B6813F4802F7FF456AF00F0E0FB92
:10176800801B0228F3D9032055E04FF0B0421268DD
:1017780012F4003F0FD101204DE04FF0B042126843
:1017880012F0007F07D1012045E04FF0B042126807
:1017980012F4806F42D04FF0B0418A6822F0030201
:1017A80013438B6000F0BCFB06464FF0B0439B68C8
:1017B80003F00C036A68B3EB820F08D000F0B0FBAB
:1017C800801B41F288339842EFD9032023E0144B61
:1017D8001B6803F00703A34215D9114A136823F0C5
:1017E80007032343136000F09BFB05460C4B1B6863
:1017F80003F00703A34206D000F092FB401B022827
:10180800F4D9032007E0FFF791FB064B1860064B5D
:10181800186800F03BFB70BD012070470120FAE713
:1018280000400058180000201400002008B5FFF7F9
:101838007DFB4FF0B0439B68C3F30223024A52F882
:101848002330D84008BD00BF4C33000808B5FFF767
:101858006DFB4FF0B0439B68C3F3C223024A52F8B2
:101868002330D84008BD00BF4C33000870B504468B
:10187800036813F4803F40F0AB800025236813F021
:10188800010F0AD062684FF0B041D1F8883023EADE
:10189800124392B21343C1F88830236813F0020F41
:1018A8000AD0A2684FF0B041D1F8883023EA124339
:1018B80092B21343C1F88830236813F0200F09D07F
:1018C80023694FF0B041D1F8882022F440621343D5
:1018D800C1F88830236813F4007F0CD0206A4FF0D9
:1018E800B041D1F88830020C120423EA020343EA1B
:1018F8000043C1F88830236813F4806F0CD0606A05
:101908004FF0B041D1F88830020C120423EA0203E8
:1019180043EA0043C1F88830236813F4006F0CD001
:10192800A06A4FF0B041D1F88830020C120423EAC3
:10193800020343EA0043C1F88830236813F0400FDC
:1019480040F09E80236813F0800F40F0AA8023683F
:1019580013F4807F40F0B680236813F0100F0ED088
:10196800E3684FF0B041D1F8882022F44072134365
:10197800C1F88830E368B3F5807F00F0B48023684D
:1019880013F4004F0FD0236B4FF0B041D1F88820EB
:1019980022F040421343C1F88830236B1BB9CB684F
:1019A80043F08073CB60236813F4804F0ED0E36A52
:1019B8004FF0B041D1F8882022F040521343C1F8CB
:1019C8008830E36AB3F1005F00F09280284670BD6A
:1019D80000F0E0F900F0A4FA0546484B1B6813F440
:1019E800807F06D100F09CFA401B0228F5D9032518
:1019F80000E00025002D7FF441AF4FF0B043D3F84D
:101A0800903003F44073626B9A4224D04FF0B04395
:101A1800D3F8902022F44072D3F8901041F480312A
:101A2800C3F89010D3F8901021F48031C3F89010C7
:101A3800C3F8902012F0020F0FD1002D7FF41EAFD3
:101A4800636B4FF0B041D1F8902022F440721343F9
:101A5800C1F8903012E70022ECE700F061FA064680
:101A68004FF0B043D3F8903013F0020FE5D100F0F7
:101A780057FA801B41F288339842F1D90325DCE7F5
:101A880063694FF0B040D0F88820190901F47F212C
:101A980022EA01021B0103F47F231343C0F88830B4
:101AA80050E7A3694FF0B040D0F88820190901F435
:101AB8007F2122EA01021B0103F47F231343C0F8AC
:101AC800883044E7E3694FF0B040D0F8882019091E
:101AD80001F47F2122EA01021B0103F47F2313434F
:101AE800C0F8883038E7CB6843F08073CB6046E7AE
:101AF800CB6843F48033CB6068E700BF000400582C
:101B080070B5002369E085685E000324B44025EAC7
:101B18000405CC68B4402C438460446824EA0C0C67
:101B28004C68C4F300149C4044EA0C04446065E02B
:101B3800DD08083550F8256003F007044FEA840CE7
:101B48000F2404FA0CF426EA040E0C6904FA0CF4C7
:101B580044EA0E0440F8254067E0022400E000242F
:101B680004FA0EF42C430CF1020C4B4D45F82C40B2
:101B78004A4C2568D44325EA0206D1F804C01CF46F
:101B8800801F01D042EA0506444D2E606D6804EAC4
:101B98000506D1F804C01CF4001F01D042EA05066E
:101BA8003E4D6E60D5F8805004EA0506D1F804C0B1
:101BB8001CF4803F01D042EA0506384DC5F8806024
:101BC800D5F884502C404E6816F4003F01D042EA04
:101BD8000504324AC2F8844001330A6832FA03F431
:101BE80058D04FF0010C0CFA03FC1CEA0202F3D0A7
:101BF8004C6804F00304013C012C84D94C6804F0BF
:101C08000304032C0CD0C4685D004FF0030C0CFADD
:101C180005FC24EA0C0C8C68AC4044EA0C04C46053
:101C28004C6804F00304022C82D004684FEA430E87
:101C38004FF0030C0CFA0EFC24EA0C0C4C6804F070
:101C4800030404FA0EF444EA0C0404604C6814F427
:101C5800403FC1D04FEA930C0CF102050E4C54F8EA
:101C6800255003F003044FEA840E072404FA0EF407
:101C780025EA0405B0F1904F3FF471AF084CA0423B
:101C880006D004F58064A0423FF467AF072467E7F5
:101C9800012465E770BD00BF00000140000800583E
:101CA800000400480AB181617047816270470346A9
:101CB800002834D090F82520D2B2022A06D0042277
:101CC800C263002280F824200120704701680A6856
:101CD80022F00E020A60816C0A6822F480720A609F
:101CE80001680A6822F001020A60426C02F01C01D5
:101CF800006C01228A404260DA6C196D51605A6D9D
:101D080032B1116821F4807111609A6DD96D5160FA
:101D1800012283F82520002083F824007047012041
:101D2800704708B590F82530DBB2022B03D00423A6
:101D3800C363012008BD0268136823F00E03136013
:101D48000268136823F001031360826C136823F49C
:101D580080731360436C03F01C02016C01239340F1
:101D68004B60C36C026D5A60436D33B11A6822F43C
:101D780080721A60836DC26D5A60012380F8253025
:101D8800002380F82430836B13B198470020D1E7F3
:101D98000020CFE7024A136843F48073136070474A
:101DA80000040058024B186800F4C060704700BF78
:101DB80000040058074AD36823F4E0631B041B0C93
:101DC800000200F4E060034343F0BF6343F40033D0
:101DD800D360704700ED00E000B5194BDB68C3F332
:101DE8000223C3F1070CBCF1040F28BF4FF0040C09
:101DF80003F1040EBEF1060F18D9033B4FF0FF3E66
:101E08000EFA0CFC21EA0C0199400EFA03F322EABF
:101E18000303194300280BDB0901C9B200F1604034
:101E280000F5614080F800135DF804FB0023E5E746
:101E380000F00F000901C9B2024B1954F4E700BFC2
:101E480000ED00E014ED00E0002807DB00F01F02C1
:101E5800400901239340024A42F82030704700BFEE
:101E680000E100E00138B0F1807F0BD24FF0E023B1
:101E78005861054AF02182F8231000209861072252
:101E88001A6170470120704700ED00E0114B1B7884
:101E98000BB90120704710B50446FFF747F80D4B02
:101EA8001A784FF47A73B3FBF2F3B0FBF3F0FFF751
:101EB800D9FF68B90F2C01D901200AE00022214678
:101EC8004FF0FF30FFF788FF034B1C60002000E055
:101ED800012010BD100000201400002010B50320C0
:101EE800FFF768FFFFF722F8064B18600F20FFF78F
:101EF800CDFF10B10124204610BD0446FEF7DCFCDE
:101F0800F9E700BF18000020034B1B78034A11684B
:101F18000B441360704700BF1000002058020020D7
:101F2800014B1868704700BF58020020026852E849
:101F3800003F23F4907342E800310029F6D102688B
:101F480002F1080353E8003F23F0805323F0010314
:101F5800083242E800310029F1D1C36E012B06D0C6
:101F68002023C0F888300023C366036770470268DF
:101F780052E8003F23F0100342E800310029F6D16F
:101F8800EEE7704708B5026852E8003F23F04003C7
:101F980042E800310029F6D12023C0F8843000231C
:101FA8004367FFF7EEFF08BD704708B5806A002356
:101FB800A0F85E30A0F85630FFF7F6FF08BD70476E
:101FC80070B504460168CB6908688D6840F60F0251
:101FD8001A4008D113F0200F05D010F0200F34D18B
:101FE80015F0805F31D12AB1954A2A4033D1954EF8
:101FF800304230D1E26E012A00F0C38013F4801F12
:1020080003D015F4800F40F05B8113F0800F07D0E8
:1020180010F0800F40F05B8115F4000F40F05781FD
:1020280013F0400F03D010F0400F40F0578113F425
:10203800000F03D010F0804F40F0548113F0807FE0
:1020480002D00028C0F2528170BD236F002BFBD054
:1020580020469847F8E713F0010F09D010F4807F65
:1020680006D001260E62D4F88C103143C4F88C10C7
:1020780013F0020F0BD015F0010F08D021680226CB
:102088000E62D4F88C1041F00401C4F88C1013F0DF
:10209800040F0BD015F0010F08D0216804260E623A
:1020A800D4F88C1041F00201C4F88C1013F0080F1A
:1020B8000BD010F0200F00D13AB12268082111622C
:1020C800D4F88C200A43C4F88C2013F4006F0CD089
:1020D80010F0806F09D022684FF400611162D4F8C3
:1020E8008C2042F02002C4F88C20D4F88C20002ADE
:1020F800AAD013F0200F09D010F0200F02D115F04C
:10210800805F03D0236F0BB120469847D4F88C200A
:1021180023689B6813F0400F02D112F0280F29D0D2
:102128002046FFF703FF23689B6813F0400F1DD07C
:10213800226802F1080353E8003F23F04003083205
:1021480042E800310029F3D1E36F5BB13E4A9A635C
:10215800E06FFFF7E6FD00283FF476AFE06F836B92
:10216800984771E72046FFF71FFF6DE72046FFF706
:102178001BFF69E72046FFF717FF0023C4F88C30E0
:1021880062E713F0100F3FF439AF10F0100F3FF46F
:1021980035AF10230B6223689B6813F0400F55D0AE
:1021A800E26F13685B689BB2002B3FF44DAFB4F845
:1021B8005C1099427FF648AFA4F85E3013681B683C
:1021C80013F0200F31D1226852E8003F23F48073C6
:1021D80042E800310029F6D1226802F1080353E8E9
:1021E800003F23F00103083242E800310029F3D10F
:1021F800226802F1080353E8003F23F04003083245
:1022080042E800310029F3D12023C4F888300023A4
:10221800E366226852E8003F23F0100342E80031E9
:102228000029F6D1E06FFFF742FDB4F85C10B4F86E
:102238005E309BB2C91A89B22046FFF7C0FE03E799
:102248000100001020010004B31F0008B4F85C105E
:10225800B4F85E309BB2C91A89B2B4F85E309BB24A
:10226800002B3FF4F1AE00293FF4EEAE226852E8AD
:10227800003F23F4907342E800300028F6D122682A
:1022880002F1080353E8003F23F0805323F00103D1
:10229800083242E800300028F1D12023C4F8883001
:1022A8000023E3662367226852E8003F23F0100307
:1022B80042E800300028F6D12046FFF780FEC3E64A
:1022C8004FF480130B62204600F050FBBCE6636FAE
:1022D800002B3FF4B9AE20469847B5E62046FFF7F5
:1022E80051FEB1E6204600F043FBADE6204600F083
:1022F8003EFBA9E670B5044601688368026913438A
:1023080042691343C269134308689D4A0240134354
:102318000B602268536823F44053E1680B43536011
:10232800A1692268974B9A4201D0236A194393689E
:1023380023F06E4323F430630B4393602268D36A1F
:1023480023F00F03616A0B43D36223688E4A9342DA
:102358001CD08E4A934231D08A4A93424BD01022E5
:1023680088498B4268D0E069B0F5004F00F0A5803D
:10237800082A00F21F81DFE812F0D300F500D1002F
:102388001D01F8001D011D011D01FB004FF0B042A9
:10239800D2F8882002F0030242F44032A2F540321B
:1023A800032A09D8DFE802F002043C060122D7E735
:1023B8000422D5E70822D3E71022D1E74FF0B04234
:1023C800D2F8882002F00C0242F44022A2F5402202
:1023D8000C2A0ED8DFE802F0070D0D0D090D0D0DC2
:1023E800260D0D0D0B000022BAE70422B8E70822DB
:1023F800B6E71022B4E74FF0B042D2F8882002F4D2
:102408004062B2F5006F0FD005D87AB1B2F5806F8F
:102418000ED10422A4E7B2F5406F0BD108229FE742
:1024280002229DE702229BE7022299E7002297E712
:10243800102295E7102293E7082A00F29C80DFE833
:1024480002F0089A3A9A379A9A9A05004FF400408F
:1024580004E0FFF7EBF9002800F08F80626A4C4B2C
:1024680033F81220B0FBF2F3656805EB4501994299
:1024780000F29480B3EB053F00F2928000263346C9
:102488003146FDF775FE090241EA106100026B084A
:10249800C0182A46334641F10001FDF769FEA0F550
:1024A80040723C4B9A427DD82368D860304650E051
:1024B800FEF7B4FCCFE73848D0E7082A74D8DFE83D
:1024C80002F0072705732A7373730B00324803E081
:1024D800FFF7ACF9002869D0626A2D4B33F8123047
:1024E800B0FBF3F06268530803EB4000B0FBF2F076
:1024F80080B2A0F110024FF6EF739A4258D820F03C
:102508000F03C0F3420018432368D860002020E07E
:10251800FFF79CF9DEE7FEF781FCDBE71E4803E0E6
:10252800FFF784F9002847D0626A194B33F8123054
:10253800B0FBF3F0636800EB5300B0FBF3F080B23C
:10254800A0F110024FF6EF739A4237D82368D8608B
:1025580000200123A4F86A30A4F868300023236718
:10256800636770BDFFF772F9DCE7FEF757FCD9E740
:102578004FF40040D8E70120EBE70020E9E700BF6F
:10258800F369FFCF0080004000380140004400405C
:10259800E4320008FFFC0F000024F4000120D8E713
:1025A8000120D6E70120D4E70120D2E70020D0E7B8
:1025B8000120CEE70120CCE70020CAE70120C8E7C8
:1025C800836A13F0010F06D00268536823F40033BE
:1025D800C16A0B435360836A13F0020F06D0026886
:1025E800536823F48033016B0B435360836A13F001
:1025F800040F06D00268536823F48023416B0B4311
:102608005360836A13F0080F06D00268536823F4F6
:102618000043816B0B435360836A13F0100F06D09D
:102628000268936823F48053C16B0B439360836AF9
:1026380013F0200F06D00268936823F40053016C4E
:102648000B439360836A13F0400F0AD00268536803
:1026580023F48013416C0B435360436CB3F5801F24
:102668000BD0836A13F0800F06D00268536823F4F6
:102678000023C16C0B43536070470268536823F40E
:10268800C003816C0B435360EBE72DE9F843054623
:102698000F4616469946DDF820802C68E46937EA2B
:1026A80004030CBF4FF0010C4FF0000CB44557D198
:1026B800B8F1FF3FF1D0FFF733FCA0EB090040452C
:1026C8002FD8B8F1000F2CD02B681A6812F0040F1D
:1026D800E3D0DA6912F4006FDFD04FF400621A62B7
:1026E8002A6852E8003F23F4D07342E800310029F9
:1026F800F6D12A6802F1080353E8003F23F00103EA
:10270800083242E800310029F3D12023C5F884308B
:10271800C5F88830C5F88C30002385F88030032050
:102728001FE02A6852E8003F23F4D07342E80031E2
:102738000029F6D12A6802F1080353E8003F23F084
:102748000103083242E800310029F3D12023C5F8FB
:102758008430C5F88830002385F88030032000E0F5
:102768000020BDE8F8832DE9F04182B01E46D0F87C
:102778008430202B58D104460D469046002957D066
:10278800002A57D090F88030012B55D0012380F8CB
:1027980080300023C0F88C302123C0F88430FFF744
:1027A800BFFB0746A4F85480A4F85680A368B3F585
:1027B800805F05D04FF00008002384F8803014E0D3
:1027C800236913B14FF00008F6E7A8460025F3E7A0
:1027D80038F8023B2268C3F308039362B4F8562022
:1027E80092B2013A92B2A4F85620B4F856309BB28D
:1027F80073B100963B46002280212046FFF745FF33
:10280800E0B9002DE4D015F8012B23689A62E5E7BA
:1028180000963B46002240212046FFF736FF78B954
:102828002023C4F8843000E0022002B0BDE8F08123
:102838000120FAE70120F8E70220F6E70320F4E791
:102848000320F2E730B583B004460023C0F88C308B
:10285800FFF766FB05462268126812F0080F0FD1D1
:1028680023681B6813F0040F18D12023C4F88430A0
:10287800C4F888300020E06684F8800003B030BDDA
:102888006FF07E430093034600224FF40011204668
:10289800FFF7FBFE0028E3D00320EFE76FF07E434D
:1028A80000932B4600224FF480012046FFF7EDFEEF
:1028B8000028DAD00320E1E778B310B50446D0F851
:1028C80084300BB32423C4F884302268136823F0BF
:1028D800010313602046FFF70DFD012813D0A36AFA
:1028E800BBB92268536823F4904353602268936805
:1028F80023F02A0393602268136843F001031360EE
:102908002046FFF79FFF10BD80F88030FDF7ECFFF1
:10291800D8E72046FFF754FEE3E7012070470000A0
:10292800436E2BB90123A0F86A30A0F868307047CD
:1029380030B403689A68C2F342629968490F094D36
:102948006B5CDB00084C615C93FBF1F3A0F86A3028
:10295800AB5CDB00A25C93FBF2F3A0F8683030BC00
:10296800704700BF04330008FC3200087047704706
:10297800704790F88030012B1DD010B50446012314
:1029880080F880302423C0F8843002681368116806
:1029980021F00101116043F000534FF000524266EC
:1029A80002681360FFF7BCFF2023C4F884300020BE
:1029B80084F8800010BD0220704790F88030012B09
:1029C80018D0012380F880302423C0F884300368AD
:1029D8001A68196821F00101196022F000520023D9
:1029E800436601680A602022C0F8842080F880309D
:1029F800184670470220704738B590F88030012B90
:102A08001DD00446012380F880302423C0F8843088
:102A180003681D681A6822F001021A600268936848
:102A280023F0604319439160FFF77AFF23681D6024
:102A38002023C4F88430002084F8800038BD0220A8
:102A4800FCE738B590F88030012B1DD004460123EF
:102A580080F880302423C0F8843003681D681A6821
:102A680022F001021A600268936823F06063194338
:102A78009160FFF755FF23681D602023C4F8843058
:102A8800002084F8800038BD0220FCE730B4036AD7
:102A980023F001030362036A4568826922F48032E5
:102AA80022F073020C68224323F002038C6823434C
:102AB800154CA04207D004F5E054A04203D0A4F579
:102AC8008064A04205D123F00803CC68234323F097
:102AD80004030D4CA04207D004F5C054A04203D013
:102AE80004F58064A04207D125F4407C4C6944EA8F
:102AF8000C0C8D6945EA0C05456082614A684263A1
:102B0800036230BC704700BF002C014030B4036A38
:102B180023F480730362036A4468C26922F4803232
:102B280022F073020D682A4323F400738D6843EA88
:102B38000523124DA84219D0104DA84207D005F51B
:102B4800C055A84203D005F58065A84207D124F4F2
:102B580040544D6944EA05148D6944EA05144460FB
:102B6800C2614A68C263036230BC704723F40063E1
:102B7800CD6843EA052323F48063DDE7002C014098
:102B880030B4036A23F480530362026A4468C36959
:102B980023F0807323F4E6430D6843EA052322F407
:102BA80000528D6842EA05320B4DA84207D005F560
:102BB800C055A84203D005F58065A84204D124F485
:102BC80080444D6944EA85144460C3614B680364DA
:102BD800026230BC704700BF002C014030B4036A69
:102BE80023F480330362036A4468426D22F480321E
:102BF80022F070020D682A4323F400338D6843EAFB
:102C080005430B4DA84207D005F5C055A84203D08F
:102C180005F58065A84204D124F480344D6944EA5E
:102C28000524446042654A688265036230BC704787
:102C3800002C014030B4036A23F480130362026A53
:102C48004468436D23F0807323F4E0430D6843EA3E
:102C5800052322F400128D6842EA05520B4DA84262
:102C680007D005F5C055A84203D005F58065A842F0
:102C780004D124F480244D6944EA852444604365E2
:102C88004B68C365026230BC704700BF002C01402E
:102C980010B4036A046A24F001040462846924F00D
:102CA800F00C4CEA021223F00A030B438261036220
:102CB80010BC704710B4046A24F0100404628469DC
:102CC800036A24F4704C4CEA023223F0A00343EA6E
:102CD80001138261036210BC7047836823F44013B8
:102CE80023F070030B4343F007038360704770477A
:102CF80003681A4A904202D0B0F1804F03D123F002
:102D080070034A681343154A90420AD0B0F1804FC5
:102D180007D002F5C052904203D002F5806290427B
:102D280003D123F44073CA68134323F080034A692C
:102D3800134303608B68C3620B688362074B984236
:102D480007D003F5C053984203D003F58063984237
:102D580001D10B690363012343617047002C0140D3
:102D680060B310B5044690F83D3013B3022384F8DD
:102D78003D30214651F8040BFFF7BAFF012384F8D0
:102D8800483084F83E3084F83F3084F8403084F886
:102D9800413084F8423084F8433084F8443084F871
:102DA800453084F8463084F8473084F83D300020B8
:102DB80010BD80F83C30FDF737FED7E7012070479B
:102DC80060B310B5044690F83D3013B3022384F87D
:102DD8003D30214651F8040BFFF78AFF012384F8A0
:102DE800483084F83E3084F83F3084F8403084F826
:102DF800413084F8423084F8433084F8443084F811
:102E0800453084F8463084F8473084F83D30002057
:102E180010BD80F83C30FFF76AFFD7E70120704704
:102E280030B4036A23F010030362036A44688269BA
:102E380022F0807222F4E6420D6842EA052223F06D
:102E480020038D6843EA0513124DA84219D0114D8D
:102E5800A84207D005F5C055A84203D005F58065FE
:102E6800A84207D124F440644D6944EA85048D6979
:102E780044EA8504446082614A688263036230BC24
:102E8800704723F08003CD6843EA051323F040031D
:102E9800DDE700BF002C014038B590F83C30012B2D
:102EA80000F0958004460D46012380F83C30142A32
:102EB80000F28880DFE802F00B8686861F86868609
:102EC80034868686488686865D8686867100006892
:102ED800FFF7DCFD2268936943F0080393612268D9
:102EE800936923F0040393612268936929690B436A
:102EF8009361002067E00068FFF792FF22689369FA
:102F080043F4006393612268936923F480639361B7
:102F180022689369296943EA01239361002052E0FA
:102F28000068FFF7F3FD2268D36943F00803D36113
:102F38002268D36923F00403D3612268D36929691D
:102F48000B43D36100203EE00068FFF719FE2268BA
:102F5800D36943F40063D3612268D36923F480639F
:102F6800D3612268D369296943EA0123D361002028
:102F780029E00068FFF732FE2268536D43F008032A
:102F880053652268536D23F0040353652268536D1B
:102F980029690B435365002015E00068FFF74AFED6
:102FA8002268536D43F4006353652268536D23F41C
:102FB800806353652268536D296943EA0123536589
:102FC800002000E00120002384F83C3038BD0220B6
:102FD800FCE710B4846824F47F4C42EA03220A43D5
:102FE80042EA0C02826010BC7047000090F83C3046
:102FF800012B76D010B50446012380F83C3002231B
:1030080080F83D3002689068374B034093600B6846
:10301800602B4CD029D8402B54D00CD9502B22D11E
:10302800CA6849682068FFF733FE50212068FFF717
:1030380054FE002005E0202B0DD009D9302B0AD0F2
:103048000120012384F83D30002384F83C3010BD72
:103058000BB1102B05D119462068FFF73EFE002062
:10306800EFE70120EDE70120EBE7B3F5805F34D00F
:10307800B3F5005F0CD1CB684A6889682068FFF710
:10308800A8FF2268936843F4804393600020D8E740
:10309800702B24D1CB684A6889682068FFF799FFAC
:1030A8002268936843F0770393600020C9E7CA68F1
:1030B80049682068FFF7FEFD60212068FFF70DFED4
:1030C8000020BEE7CA6849682068FFF7E1FD402193
:1030D8002068FFF702FE0020B3E70020B1E70120D7
:1030E800AFE70220704700BF8800CEFF90F83C3061
:1030F800012B2BD030B4012380F83C30022380F818
:103108003D30026853689468114DAA4219D023F0E3
:1031180070030D682B43536003680D4A934202D035
:10312800B3F1804F04D124F080048A6814439C6072
:10313800012380F83D30002380F83C30184630BC2D
:10314800704723F470034D682B43E0E70220704773
:10315800002C014090F83C30012B46D010B40123DC
:1031680080F83C30CB6823F440738A68134323F417
:1031780080634A68134323F400630A68134323F403
:1031880080530A69134323F400534A69134323F411
:1031980080430A6B134323F470238A6943EA02438A
:1031A8000268134CA24209D0114CA2420BD05364BE
:1031B800002380F83C30184610BC704723F0805339
:1031C800CC692343F0E723F470038C6A43EA045381
:1031D80023F080730C6A234323F000734C6A234363
:1031E80023F00053C96A0B43E1E70220704700BF90
:1031F800002C0140704700000D488546FFF7FAFF94
:103208000C480D490D4A002302E0D458C450043339
:10321800C4188C42F9D30A4A0A4C002301E013600F
:103228000432A242FBD300F011F8FDF705FBFEE7DC
:10323800008000200000002020000020C833000883
:103248002000002060020020FEE7000070B50D4D50
:103258000D4C641BA4100026A64209D10B4D0C4C42
:1032680000F020F8641BA4100026A64205D170BD0A
:1032780055F8043B98470136EEE755F8043B984764
:103288000136F2E7B8330008B8330008B83300084D
:10329800BC33000802440346934200D1704703F848
:1032A800011BF9E7F8B500BFF8BC08BC9E4670479B
:1032B800F8B500BFF8BC08BC9E4670470000000087
:1032C800120024003000000006000C00100000006E
:1032D80000000000010000000200000001000200E0
:1032E8000400060008000A000C001000200040003E
:1032F8008000000108040204080101010101010322
:1033080007010000010000000300000005000000A4
:103318000100000001000000060000000A00000093
:103328002000000002000000040000000800000067
:1033380010000000400000008000000000010000B4
:103348000002000000000000000000000000000073
:10335800000000000100000002000000030000005F
:1033680004000000A0860100400D0300801A06003A
:1033780000350C0040420F0080841E0000093D000B
:1033880000127A000024F40000366E010048E801BB
:10339800006CDC02000000000000000000000000DB
:0833A80000000000000000001D
:0833B000F8CDFF7F01000000D1
:0833B8005D01000800000000A7
:0833C0003901000800000000C3
:1033C80064756D6D796D657373616765200A0D00AD
:1033D800010000001000000000093D00000000008E
:0400000508003201BC
:00000001FF
